:020000040800F2
:10000000600A00206D020008B53B00080D210008C1
:10001000B13B000871140008C54000080000000052
:100020000000000000000000000000009D3E0008ED
:100030007514000800000000693D0008F53E000846
:10004000870200088702000887020008870200086C
:10005000870200088702000887020008870200085C
:10006000DD140008F91400081515000887020008BF
:10007000870200088702000887020008870200083C
:10008000870200088702000887020008870200082C
:10009000870200088702000887020008311500085F
:1000A00087020008A53F00088702000887020008B1
:1000B000AD3F000887020008870200088702000899
:1000C00087020008870200088702000887020008EC
:1000D00087020008B53F0008870200088702000871
:1000E000BD140008870200088702000800F002F82B
:1000F00000F092F80AA090E8000C82448344AAF130
:100100000107DA4501D100F087F8AFF2090EBAE82D
:100110000F0013F0010F18BFFB1A43F0010318473B
:100120004466000064660000103A24BF78C878C1B5
:10013000FAD8520724BF30C830C144BF04680C60ED
:10014000704700000023002400250026103A28BF35
:1001500078C1FBD8520728BF30C148BF0B60704739
:100160006E2900F0BF81702900F00183662906F036
:100170000F82652906F00C82672906F00982612941
:1001800006F0088203681B0A28BF41F08001692934
:1001900000F06C81642900F06981752900F06681A6
:1001A0006F2900F08F82782900F0CD82E92900F0D4
:1001B0002982E42900F02682F52900F02382EF2924
:1001C00000F08C82F82900F0CC820368DB0928BF9C
:1001D00041F08001632900F0D187732900F0D687B0
:1001E000E32900F0E187F32900F0E687002070475B
:1001F0001FB500F086F801F035F80400002000215A
:1002000006F0B0F9401C60600020002106F094F96F
:10021000E0601FBD10B510BD00F0F7FF1146FFF7FD
:10022000E7FF04F045FA01F0D3F803B4FFF7F2FF5B
:1002300003BC01F0D7F800000B49D1F800C04A68B0
:100240005CF8043B1068184442F8040B8C4528BF46
:10025000A1F1DC0C8A4228BFA1F1DC02C1F800C088
:100260004A6020F0004070477C0100200948804728
:1002700009480047FEE7FEE7FEE7FEE7FEE7FEE788
:10028000FEE7FEE7FEE7FEE704480549054A064BA0
:1002900070470000A13F0008ED0000086004002046
:1002A000600A002060060020600600200FB41CB524
:1002B000084B06AA7B4469460090059800F02BF98C
:1002C00004460020694600F039F920461CBC5DF860
:1002D00014FB0000850200000B4910B5A1F17C025F
:1002E0000A4CC2E93712372106E000EB104342F80E
:1002F0002130074B00FB03400B1EA1F10101F4DC90
:1003000010BD0120E8E700001C010020E119D666BD
:10031000CD0D010010B5431C02E010F8011B71B1B6
:100320008107FAD14FF0013202C88C1A8C4314EACB
:10033000C211F9D0C01A0A0603D0C01E10BDC01ADF
:1003400010BD0A0401D0801E10BD0902FCD0401E61
:1003500010BD4FF0000200B5134694469646203972
:1003600022BFA0E80C50A0E80C50B1F12001BFF46E
:10037000F7AF090728BFA0E80C5048BF0CC05DF8D4
:1003800004EB890028BF40F8042B08BF704748BF22
:1003900020F8022B11F0804F18BF00F8012B704796
:1003A00070477047704770B5044685690068C1069C
:1003B00001D5302600E02026C00707D070BDD4E963
:1003C000012130469047206A401C20626D1EF6D500
:1003D00070BD70B5044685690078C00707D170BD4F
:1003E000D4E9012120209047206A401C20626D1E24
:1003F000F6D570BD09684A0501D540B27047C905F8
:10040000FCD500B2704709684A0501D5C0B27047F3
:10041000C905FCD580B2704770B50C460546012A67
:1004200005D02878800600D5EA69002302E0012380
:1004300005E05B1C934202D2E05C0028F9D1A86978
:10044000E618C01AA861286A184428622846FFF7EF
:10045000AAFF04E0D5E9012114F8010B9047B4424A
:10046000F8D32846FFF7B5FF70BD00002DE9F04135
:100470000646002410687529314616A510D0FFF7EE
:10048000B9FF002802DA404213A507E031688A0765
:1004900001D512A502E0490704D511A5012401E008
:1004A000FFF7B1FF00210A2206F1240709E0B0FBA3
:1004B000F2FCB0FBF2F302FB1C003030785418461B
:1004C000491C0028F3D123462A463046BDE8F041B6
:1004D00000F065BA000000002D0000002B000000B5
:1004E0002000000011680268006A530501D50870F9
:1004F0000AE0D30501D5088006E0130603D5C2172C
:10050000C1E9000200E008600120704701694A1C4F
:1005100002610878704700B58FB0CDE90131002144
:10052000059105497944CDE903101146684600F06C
:1005300029F90FB000BD0000E5FFFFFF0A6802F8CF
:10054000010B0A60704700002DE9FF5F15468A46DF
:100550000446DFF8AC80F8440027D8E900103E4696
:10056000CDE9001010E03AF816106A4602A800F033
:1005700027FE411C07D02178890603D5E269391886
:1005800091420DD80744761C2078800602D5E06998
:10059000B84205DDAE42E6DB3AF816000028E2D1AB
:1005A000A069C01BA0612046FFF7FDFED8E900103E
:1005B000CDE90010002017E03AF818106A4602A8AA
:1005C00000F0FEFDB0F1FF3F81460BD000250DF19C
:1005D000080B05E0D4E901211BF8050090476D1CCC
:1005E0004D45F7D308F10100B0428046E4DB206AB4
:1005F000384420622046FFF7ECFEBDE8FF9F000074
:100600003E6000002DE9F0418046D21D22F0070235
:100610000025D2E90002F52915A614D0011E72F1B9
:10062000000106DA0023D0EB030063EB020211A6FF
:1006300008E0D8F800108B0701D50FA602E04907A3
:1006400001D50EA601251146002408F1240704E077
:1006500000F060F930323A55641C50EA0102F7D1DB
:100660002B46324621464046BDE8F04100F097B99E
:10067000000000002D0000002B0000002000000002
:1006800030B4002100F1240408E002F00705D2088C
:10069000303542EA4372DB086554491C52EA0305CF
:1006A000F3D10468002310A2250708D504F0200424
:1006B0000C4304D0C46901230CA2641EC46130BC85
:1006C00000F06DB910B5044621461068FFF79BFE97
:1006D00002462046BDE810400023D1E7D21D22F09B
:1006E0000701D1E90023CBE7000000003000000043
:1006F000F0B40D460188090502D5214C7C4402E086
:100700001F4C7C440E34002100F1240608E002F066
:100710000F071209E75D42EA03721B097754491C6F
:1007200052EA0307F3D102780023120704D5702D93
:1007300006D009B1022311342246F0BC00F02FB9D3
:1007400001231034F8E770B504460D4621461068C1
:10075000FFF759FE024629462046BDE870400023B7
:10076000C6E7D21D22F00703D3E90023C0E70368E0
:10077000126843F0200303600823C3610023B7E736
:10078000A05E00002DE9F05F894604464FF0000AA4
:10079000DFF874B1FB44C0F820A02046E168884728
:1007A000002874D0252806D0D4E901219047206A7A
:1007B000401C2062F1E700265F462046E16888473A
:1007C0002028054607DB312D05D2781910F8200CBA
:1007D00008B10643F1E7B00701D526F00406C4F8D6
:1007E0001CA00027C4F818A02A2D09D0284605F01F
:1007F0009BFE38B304EB8708303DC8F8185019E069
:1008000059F8041B204604EB87029161E168884790
:10081000012F054618D1E069002820DA26F02006CD
:100820001DE0D8F8180000EB800005EB40003038E0
:10083000C8F818002046E1688847054605F074FEB0
:100840000028EED1012F0AD02E2D08D12046E168D4
:1008500088477F1C0546022F46F02006C4DBA069AE
:10086000002803DA404246F00106A061F00701D0FB
:1008700026F010066C2D0BD0682D09D04C2D39D0E8
:100880006A2D35D0742D35D07A2D33D016E038E06E
:10089000E1682F4620468847B842054609D16C2FAB
:1008A00026D04FF48060E16806432046884705461D
:1008B00004E06C2F1AD04FF4807006430DB3A5F1FD
:1008C0004100192802D8203546F400664A462946D8
:1008D000204626604E46FFF743FC80B101280BD02E
:1008E000F61D26F0070000F1080956E74020E4E76E
:1008F0008020D8E70020D6E706F104094DE7284616
:1009000052E7206ABDE8F09F305E00000048704763
:100910008401002030B5B0F10A0271F100034FEA02
:10092000900E4EEA817EB0EB0E0061EB91014FEA32
:10093000101E4EEA017E10EB0E0041EB11114FEA42
:10094000102E4EEA016E10EB0E0041EB11214FEA22
:10095000104E4EEA014E10EB0E0041EB11414018D3
:1009600041F100014FEAD00040EA41704FEAD10165
:100970004FEA810444EA907410EB800544EB0104D3
:100980006D1944EB0404521BA3414FF0000348BF10
:100990000A3200D530BD401C41F1000130BD2DE9C7
:1009A000F0470D4699469246044600F12408016836
:1009B000880604D5E06921F01001216000E00120E3
:1009C000A84201DD471B00E00027A1697A1902EB6C
:1009D0000900081AA0612078C00602D42046FFF75B
:1009E000E2FC002608E0D4E901211AF8060090474D
:1009F000206A401C761C20624E45F4DB2078C0063D
:100A00000AD52046FFF7CFFC06E0D4E901213020CB
:100A10009047206A401C2062381EA7F10107F4DCD1
:100A200007E0D4E9012118F805009047206A401C2E
:100A30002062281EA5F10105F3DC2046FFF7C9FC62
:100A40002078000602D50220BDE8F0870120FBE7F0
:100A50002DE9FF4F0C461E464FF0FF378BB0D2E911
:100A60000001DDF860800A908A46C1F30A5505B995
:100A70003D46002108464FF00000BAF1000F00F497
:100A8000400005DA00EB80004FF4400101EA50001D
:100A90004FEA9059B9F1010F00DDB9460A9850EAC2
:100AA0004A000ED044F61050A5F2FF3545432F14EE
:100AB000B8F1000F1ED07542291E1EDDC9F10002DB
:100AC0001CE0B8F1010F4FF0000001D0302103E02D
:100AD000F24305E02154401CB042FBDB30460022CB
:100AE000002121540B99C1F80880C1E900200FB002
:100AF000BDE8F08FBD1B6D1CDEE74A4600DA694297
:100B000006A800F0F3FB06AB93E8070003AB83E80D
:100B1000070050460A9905F02BF98DE80700A0F56B
:100B200000501F3800900398002D0ADD42F21F018B
:100B30004A460844002303A90390684605F094FB45
:100B400009E0A0F500504A461F38002303A903908E
:100B5000684605F09EFB8DE807000004000C03D0FA
:100B60004FF0FF30410800E01046B8F1000F03D00D
:100B70000022009215461EE0751E05D4FFF7CAFE3E
:100B8000303262556D1EF9D5B3460122084302D0BA
:100B900000227F1C04E02078302801D100227F1E33
:100BA000002A099784D01DE0112D07DAFFF7B2FE65
:100BB000303262556D1C50EA0102F5D1084302D073
:100BC0000098C8B10EE00021681E05E0235C625C5D
:100BD00063542254401E491C8142F7DBAB46A81BDC
:100BE000401E0990002004F80B000B98099AC0F8E9
:100BF0000880C0E9002B7AE711264FF0000857E77C
:100C00002DE9F04F88460446D21D22F0070191B02D
:100C1000D1E90001CDE90A0105F072FC02460B980A
:100C2000C00F01D02D2007E02068810701D52B20BF
:100C300002E0202101EAC000032A099001D0072A1E
:100C400005DB03464146204600F010FB0BE120780F
:100C5000800601D5E06900E00620B8F1650F814605
:100C600006D0B8F1660F18D0B8F1670F70D131E037
:100C70000020B9F1110F009001DB112301E009F10F
:100C800001030AAA01A90CA8FFF7E2FEDDE90C7036
:100C9000002609F10105834647E001204B460090FC
:100CA0004FF000470AAA01A90CA8FFF7D1FEDDE921
:100CB0000DB00C995D46002610B909F101000D1820
:100CC000B9EB050003D4C0F1FF3609F10105A5EB2E
:100CD00009002BE0B9F1010F01DA4FF00109002002
:100CE000B9F1110F0090484601DD112300E00346E1
:100CF0000AAA01A90CA8FFF7ABFEDDE90C704D466E
:100D000000268346207800070AD4AB4500DA5D460A
:100D100001A8012D04DD411911F8011C302907D06B
:100D20004F4502DA17F1040F04DA012082460FE082
:100D30006D1EEEE7002F02DCED1B3E4403E0781C45
:100D4000A84200DD7D1CB81B00F1010A4FF00047EE
:100D50002078000703D4AA4501DB4FF0FF3A0021B9
:100D6000B7F1004F0DF143088DF8431024D0022055
:100D70002B23002F01DA7F422D230A21021EA0F12E
:100D8000010000DC5FB197FBF1FC97FBF1F201FB86
:100D90001C7C17460CF1300C08F801CDEEE7A8F1E9
:100DA000010003702188090501D5452100E0652176
:100DB000A0F1010800F8011C09980FA9A1EB080790
:100DC000FF1D00B10120411901EBEA70A16938440F
:100DD000081A401EA0612078C00602D42046FFF702
:100DE000E2FA099828B1D4E901219047206A401C11
:100DF00020622078C00622D52046FFF7D4FA1EE0F4
:100E0000002E04DBB34502DD01A8805D00E0302048
:100E1000D4E901219047206A401C2062761CAAF187
:100E200001005FEA000A0AD100F01CFAC0680168FC
:100E3000405CD4E901219047206A401C2062281EB2
:100E4000A5F10105DCDC07E0D4E9012118F8010B6C
:100E50009047206A401C2062381EA7F10107F3DC8E
:100E60002046FFF7B6FA032011B041E62DE9F04F16
:100E700004460D46D21D22F0070089B0D0E9009744
:100E80004846394605F03CFB0246F80F01D02D23B9
:100E900007E02068810701D52B2302E0202101EA29
:100EA000C0038DF820300BB1012000E00020032AA0
:100EB000824601D0072A04DB2946204600F0D6F9F5
:100EC0003FE12078800601D40D2500E0E569C7F3F5
:100ED0000A560D2D49DA00214FEA175B08464FF0FC
:100EE0000000002F00F4400007DA00EB80004FF410
:100EF000400100EBD07001EA60008115012901DD9D
:100F00004FF0FF3100224FEA850CBCF1180F06D3D9
:100F10001346ACF118004FF08052C24003E04FF48A
:100F2000801323FA0CF30CF10C0CBCF1200F04D34A
:100F3000ACF1200C09FA0CF001E007FA0CF00029E2
:100F40004FF0004801DD18B90FE00ED140450CD339
:100F500019EB02095F4121B9404502D19F4329EABB
:100F60000209BBEB175F00D0761C2088000502D574
:100F70007B48784402E07A487844193808AA30233C
:100F800002F80A30037C0AF10101002E0AF1020A7C
:100F900053546A4602DC4FF0300101E04FF031015A
:100FA0004FF001088DF8001002D0A6F2FF3603E0E2
:100FB00059EA470100D06B4E002D02DC2178090769
:100FC00004D54FF002082E218DF80110C4460021EF
:100FD0000BE0C7F303433F01C35C491C6D1E02F8DD
:100FE0000830052908F1010801DA002DF1DC0021A3
:100FF0000CE000EB1973491C1B786D1E082902F8E0
:1010000008304FEA091908F1010801DA002DF0DC77
:1010100021688B0602D516E0A8F10108E04505DD40
:1010200002EB080313F8013C302BF5D0B8F1000FA8
:1010300009DD02EB080313F8013C2E2B03D109074D
:1010400001D4A8F10108002D05DD3E2102F80810A9
:101050006D1E08F10108407C002E02F8080008F11E
:10106000010804DA2D20764202F8080002E02B2065
:1010700002F808000A214FF47A70864208F101084C
:101080000BDB96FBF0F3303302F8083096FBF0F3FD
:1010900008F1010800FB136601E0642E0CDB6420FC
:1010A00096FBF0F3303302F8083096FBF0F308F1CA
:1010B000010800FB136601E00A2E06DB96FBF1F047
:1010C000303002F8080008F1010896FBF1F001FB4E
:1010D0001060303002F80800A16908F1010808EB3F
:1010E000050202EB0A00081AA0612078C00602D4AB
:1010F0002046FFF758F9216A08AE01EB0A0020628A
:1011000004E0D4E9012116F8010B9047BAF1010A75
:10111000F7D22078C00602D52046FFF744F96E4684
:1011200009E016F8010B3E280FD0D4E901219047C1
:10113000206A401C2062B8F10108F2D22046FFF775
:1011400048F909B00320BDE8F08F206A28442062E6
:1011500003E0D4E90121302090476D1EEBD3F8E77E
:101160007656000002FCFFFF10B5436913B1AFF3E0
:10117000008001E0FFF750F9012010BD127800F166
:1011800024010A7000224A700122EDE711684FF035
:10119000FF32E9E710B5436913B1AFF3008001E016
:1011A000FFF7D2F9012010BD128800F124018284DA
:1011B0000022C2840122EDE711684FF0FF32E9E717
:1011C0002DE9F04116460C46054600F043F8036849
:1011D00093F80101012807D0FF2C12D8185D80B1C7
:1011E00001202C70BDE8F081D3F80701324621467A
:1011F00003F20713C7182846BC46BDE8F041002398
:1012000060474FF0FF30EDE770477546FFF77EFB14
:10121000AE4605006946534620F00700854618B0E3
:1012200020B5FFF731F8BDE820404FF000064FF041
:1012300000074FF000084FF0000BAC46ACE8C009C7
:10124000ACE8C009ACE8C009ACE8C00921F007016E
:101250008D46704710B500F005F8001D10BD00BFA9
:101260000553000000487047A40100202DE9F0411B
:101270001F46044603260168072A01F4006004DBC8
:1012800008B116A505E016A503E008B115A500E014
:1012900015A521F010002060A069C01EA0610FB14B
:1012A000401EA0612046FFF77EF84FB1D4E901212E
:1012B00038469047206A401C2062C01C206206E02D
:1012C000206AFAE7D4E9012115F8010B9047761E50
:1012D000F8D22046FFF77DF8BDE8F0814E414E0080
:1012E0006E616E00494E4600696E66002DE9F0475A
:1012F000814616468AB0354878440DC88DE80D0001
:1013000032487844801C03AC0DC884E80D0041F6D7
:101310009B300844372190FBF1F290FBF1F5A5F1E9
:10132000800501FB12041B3C02D56442012000E051
:101330000020DFF898A080460027FA44AAF1BE0AF0
:101340000EE0E0070AD03246684607EB470101236A
:101350000AEB810104F09DFF8DE8070064107F1CFB
:10136000002CEED1194F7F44AE3F19E0E80715D0AD
:1013700007EB04100DF1180A90E80E008AE80E0041
:10138000C068F04201D1981908903246012306A99D
:1013900003A804F07EFF03AB83E807006D10641C14
:1013A000002DE3D14FF0010332466946B8F1000F3A
:1013B00003A802D004F058FF01E004F06AFFC9E975
:1013C0000001C9F808200AB0BDE8F087805300008A
:1013D00010B50446AFF300802046BDE81040FEF78C
:1013E00024BF000001491820ABBEFEE72600020022
:1013F0004FF0013C50F8042B51F8043B9A4221D1A4
:10140000A2EB0C03934313EACC1317D150F8042B2F
:1014100051F8043B9A4215D1A2EB0C03934313EA13
:10142000CC130BD150F8042B51F8043B9A4209D14C
:10143000A2EB0C03934313EACC13DBD04FF0000074
:10144000704700BFD01A01BAB1FA81F101F018015A
:1014500022FA01F0CB40DBB2C0B2C01AC1F12001C8
:101460002CFA01F3D11A914311EAC311E6D1704766
:10147000FFE7FEE77047000081B0009040F20000F7
:10148000C2F2000000684DF68361C4F21B31A0FB7C
:101490000110800C4CF6CD41CCF6CC41A0FB0110E4
:1014A0008108009848430090FFE70098411E009192
:1014B00008B1FFE7F9E701B07047000080B54FF4CD
:1014C000004001F0ABFA38B1FFE74FF4004001F003
:1014D000BBF904F07FFBFFE780BD000080B504206E
:1014E00001F09CFA30B1FFE7042001F0ADF903F000
:1014F0008FF8FFE780BD000080B5082001F08EFA6C
:1015000030B1FFE7082001F09FF903F0F3FEFFE799
:1015100080BD000080B5102001F080FA30B1FFE7F7
:10152000102001F091F904F025F9FFE780BD0000DB
:1015300080B5202001F072FA30B1FFE7202001F0E1
:1015400083F904F0A3F9FFE780BD000081B0EFF359
:10155000108072B60090FFE7FEE7000080B584B00F
:10156000039000F0ADF902900398019001980130CA
:1015700048B1FFE740F29A00C2F2000001780198FA
:1015800008440190FFE7FFE700F09AF90299401A3A
:101590000199884201D2FFE7F6E704B080BD000060
:1015A00090B00F900E9100200D900990FFE70E98DB
:1015B00000680D99C840002800F07F81FFE70D9971
:1015C000012088400C900E9800680C9908400B9000
:1015D0000B980C99884240F06C81FFE70E984068A8
:1015E0000590002851D0FFE7059801283AD0FFE781
:1015F000059802283FD0FFE7059803285FD0FFE752
:101600000598112832D0FFE70598122838D0FFE757
:1016100005980021C1F21101884236D0FFE70598F4
:101620000021C1F2120188422FD0FFE70598002166
:10163000C1F22101884228D0FFE705980021C1F2BC
:101640002201884221D0FFE705980021C1F2310133
:1016500088421AD0FFE705980021C1F23201884282
:1016600013D02FE00E98C06809902CE00E98C06847
:101670000430099027E00E98C0680830099022E0F5
:101680000E98C0680C3009901DE00E98806818B95B
:10169000FFE70420099011E00E988068012806D128
:1016A000FFE7082009900C980F99086105E00820D1
:1016B00009900C980F994861FFE7FFE703E00020CD
:1016C000099000E0FFE70B98FF2803D8FFE70F9889
:1016D000049003E00F9804300490FFE7049808900A
:1016E0000B98FF2804D8FFE70D988000039006E0D0
:1016F0000D996FF01F0000EB81000390FFE7039846
:10170000079008980068079A0F219140884309992B
:1017100091400843089908600E98C079C0060028D7
:1017200040F1C680FFE7FFE741F21800C4F2020073
:10173000016841F001010160006800F001000690BD
:101740000698FFE70D9820F003000821C4F201017C
:1017500040580A900D9800F0030081000F2000FA15
:1017600001F10A9888430A900F9840F60001C4F2EC
:101770000101884203D1FFE70020029026E00F9884
:1017800040F60041C4F20101884203D1FFE7012085
:10179000019018E00F9841F20001C4F20101884263
:1017A00003D1FFE7022000900AE00F9941F20042C6
:1017B000C4F201020420914208BF03200090FFE719
:1017C00000980190FFE701980290FFE702980D99B9
:1017D00001F00301890000FA01F10A9808430A9018
:1017E0000A980D9921F003010822C4F201028850E1
:1017F0000E988079C00748B1FFE70B9A40F200418C
:10180000C4F2010108681043086008E00B9A40F236
:101810000041C4F20101086890430860FFE70E9898
:1018200080798007002809D5FFE70B9A40F2044130
:10183000C4F2010108681043086008E00B9A40F206
:101840000441C4F20101086890430860FFE70E9864
:101850008079C006002809D5FFE70B9A40F20841BD
:10186000C4F2010108681043086008E00B9A40F2D6
:101870000841C4F20101086890430860FFE70E9830
:1018800080798006002809D5FFE70B9A40F20C41C9
:10189000C4F2010108681043086008E00B9A40F2A6
:1018A0000C41C4F20101086890430860FFE7FFE7BC
:1018B000FFE70D9801300D9079E610B070470000F9
:1018C00040F24440C2F200000068704780B58EB01C
:1018D0000C900C9820B9FFE701208DF8370043E108
:1018E0000C9890F83D0040B9FFE70C99002081F872
:1018F0003C000C9800F040FAFFE70C99242081F896
:101900003D000C980168086820F0010008600C9800
:101910000168086840F4004008600C980168086895
:1019200020F40040086000F01BFB0A900C9840680F
:1019300048F2A061C0F2010188420BD8FFE70A9982
:1019400048F28042C0F21E020020914238BF0120BE
:1019500009900AE00A9940F60012C0F23D02002008
:10196000914238BF01200990FFE70998012804D16E
:10197000FFE701208DF83700F6E00A984DF6836105
:10198000C4F21B31A0FB0110800C0B900C98006876
:10199000406820F03F000B9908430C9909684860A3
:1019A0000C980068006A20F03F0008900C9840688E
:1019B00048F2A061C0F20101884204D8FFE70B9809
:1019C000013007900EE00B984FF49671484344F6AF
:1019D000D351C1F26201A0FB0101012000EB911083
:1019E0000790FFE70898079908430C99096808626F
:1019F0000C980068C0694CF6FF71884306900C98FB
:101A0000406848F2A061C0F2010188421FD8FFE798
:101A10000A9801380C9949684900B0FBF1F001308F
:101A20006FF31F30032803D8FFE7042005900BE075
:101A30000A9801380C9949684900B0FBF1F001306F
:101A40006FF31F300590FFE7059804904CE00C9869
:101A5000806868B9FFE70A9801380C99496801EB7A
:101A60004101B0FBF1F001306FF31F3003900DE046
:101A70000A9801380C99496819225143B0FBF1F0DA
:101A80000130042161F31F300390FFE70398000544
:101A900018B9FFE70120029023E00C98806868B92C
:101AA000FFE70A9801380C99496801EB4101B0FB46
:101AB000F1F001306FF31F3001900DE00A9801380A
:101AC0000C99496819225143B0FBF1F0013004210F
:101AD00061F31F300190FFE7019840F4004002904D
:101AE000FFE702980490FFE70698049908430C99D1
:101AF0000968C8610C980068006820F0C0000C9B61
:101B00001968DA691B6A1A43104308600C98006868
:101B1000806848F2FF3188430C9A1168D3681269D3
:101B20001A43104388600C980068C06820F0FF00DA
:101B30000C9B19685A699B691A431043C8600C983A
:101B40000168086840F0010008600C9900200864F2
:101B50000C9A202182F83D100C9908630C9981F8A9
:101B60003E008DF83700FFE79DF837000EB080BDCE
:101B700080B588B0DDF828C00690ADF81610049244
:101B8000ADF80E30FFF79CFE0290069890F83D00ED
:101B9000202840F0E980FFE7069802996A46116024
:101BA0000221C0F210010122192300F0B9FB20B17B
:101BB000FFE702208DF81F00DAE0FFE7069890F8B3
:101BC0003C00012804D1FFE702208DF81F00CFE080
:101BD0000699012081F83C00FFE7FFE706980068BE
:101BE0000068C00738B9FFE706980168086840F048
:101BF00001000860FFE706980168086820F40060AB
:101C000008600699212081F83D000699102081F88E
:101C10003E00069900200864049806994862BDF8C1
:101C20000E00069948850698408D06990885069904
:101C30000020CFF6FF70C8620698BDF816100A9A09
:101C4000029B00F097FA20B1FFE701208DF81F00FA
:101C50008EE0FFE70020019006980068406901903F
:101C600006980068806901900198FFE7FFE70698F1
:101C7000008D002860D0FFE706980A99029A00F0CC
:101C800037FC80B1FFE70698006C042807D1FFE716
:101C900006980168086840F400700860FFE70120BA
:101CA0008DF81F0064E006980168406A00780861BA
:101CB0000699486A013048620699488D013848857E
:101CC0000699088D0138088506980068406900F07B
:101CD00004010120B0EB910F16D1FFE70698008DAB
:101CE00090B1FFE706980168406A0078086106999C
:101CF000486A013048620699488D0138488506993E
:101D0000088D01380885FFE706980A99029A00F0C5
:101D1000BBFA80B1FFE70698006C042807D1FFE703
:101D200006980168086840F400700860FFE7012029
:101D30008DF81F001CE09AE706980168086840F4D7
:101D4000007008600699202081F83D000699002067
:101D500081F83E00FFE70699002081F83C00FFE78C
:101D600000208DF81F0003E002208DF81F00FFE720
:101D70009DF81F0008B080BD80B588B00790002096
:101D800006900590049003900798006845F2004182
:101D9000C4F2000188422CD1FFE7FFE741F21800AE
:101DA000C4F20200016841F008010160006800F01F
:101DB000080002900298FFE7C020039012200490D0
:101DC0000320069040F60040C4F2010003A9FFF78B
:101DD000E7FBFFE741F21C00C4F20200016841F496
:101DE00000110160006800F4001001900198FFE705
:101DF000FFE708B080BD000040F29A00C2F2000088
:101E0000027840F24441C2F20001086810440860C0
:101E10007047000080B542F20001C4F20201086878
:101E200040F010000860032000F08CF80F2000F054
:101E300005F800F03BF8002080BD000080B582B0BE
:101E4000009040F20000C2F20000006840F29A01E7
:101E5000C2F200010A784FF47A71B1FBF2F1B0FBE3
:101E6000F1F000F04BF920B1FFE701208DF80700F9
:101E700018E000980F280DD8FFE700994FF0FF30C9
:101E8000002200F045F8009840F29C01C2F20001E7
:101E9000086003E001208DF8070003E000208DF8C2
:101EA0000700FFE79DF8070002B080BD83B0FFE7A1
:101EB00041F21800C4F20200016841F00101016022
:101EC000006800F0010002900298FFE7FFE741F28E
:101ED0001C00C4F20200016841F0805101600068FA
:101EE00000F0805001900198FFE7FFE70421C4F261
:101EF000010108680090009820F0E06000900098D0
:101F000040F00070009000980860FFE703B0704751
:101F100080B586B08DF817000491039200200290DE
:101F200002F032F902909DF917000190029804998D
:101F3000039A01F0E3FE0146019802F093F906B01E
:101F400080BD000080B582B00190019802F0ACF92C
:101F500002B080BD40F20000C2F20000006870478D
:101F600080B5FFF7F7FF41F20401C4F202010968EE
:101F7000C1F3022246F2A461C0F60001895CC840A8
:101F800080BD000080B584B00290029820B9FFE7C0
:101F900001208DF80F006DE00298406A60B9FFE7FC
:101FA00002984068B0F5827F01D1FFE703E0029913
:101FB0000020C861FFE705E002990020086102994E
:101FC0004861FFE7029900208862029890F851006A
:101FD00040B9FFE70299002081F85000029800F014
:101FE0004DF8FFE70299022081F85100029801683C
:101FF000086820F040000860029A01921168506859
:10200000D2F808C0D36800F482700CF4044C604429
:1020100003F400631844136903F00203184453697E
:1020200003F001031844936903F400731844D3695F
:1020300003F038031844136A03F080031843926ACC
:1020400002F40052104308600299488B00F004002B
:102050000968486002980168C86920F40060C86196
:10206000029900204865029A012182F851108DF8EA
:102070000F00FFE79DF80F0004B080BD80B588B069
:102080000790002006900590049003900798006840
:1020900043F60001C4F2000188422DD1FFE7FFE7BB
:1020A00041F21C00C4F20200016841F48041016069
:1020B000006800F4804002900298FFE7FFE741F2D9
:1020C0001800C4F20200016841F0080101600068D4
:1020D00000F0080001900198FFE74FF420400390C2
:1020E000022004900320069040F60040C4F2010054
:1020F00003A9FFF755FAFFE708B080BD80B582B0AD
:102100000190019801F0CCFE02B080BDFFE7FEE730
:1021100082B0009000980068406900F4806101205E
:10212000B0EB912F1ED1FFE7009801686FF480603B
:102130004861009900200863009A202182F83D1030
:10214000009981F83E000099086C40F00400086492
:10215000FFE70099002081F83C00FFE701208DF89F
:10216000070003E000208DF80700FFE79DF8070057
:1021700002B0704780B588B00690ADF81610049292
:1021800003930698C06A02900298082809D0FFE7D6
:102190000298012805D0FFE7029810F5803F07D18B
:1021A000FFE706980168086840F4807008600DE059
:1021B0000698006B122807D1FFE7069801680868A7
:1021C00040F48070086000E0FFE7FFE70698049B9A
:1021D00003996A4611604FF00111002200F0A0F847
:1021E00080B1FFE7069800680068C005002805D5A3
:1021F000FFE706994FF400700864FFE703208DF8AD
:102200001F003CE006980069B0F5804F08D1FFE759
:10221000BDF8160000F0FE000699096808611CE090
:10222000BDF8160000F44070C009F0300699096846
:1022300008610698049A039B0821C0F2010100F08E
:10224000CFF820B1FFE701208DF81F0017E09DF8BF
:102250001600069909680861FFE70698049A039B2F
:102260000221C0F2010100F0BBF820B1FFE701201C
:102270008DF81F0003E000208DF81F00FFE79DF898
:102280001F0008B080BD000080B584B002900191AD
:102290000092FFE702980068406900F00401002006
:1022A000B0EB910F33D1FFE70298FFF731FF20B178
:1022B000FFE701208DF80F002DE00198013028B3D1
:1022C000FFE7FFF7FDFA0099401A0199884203D809
:1022D000FFE70198C8B9FFE7029900200863029A56
:1022E000202182F83D10029981F83E000299086C85
:1022F00040F020000864FFE70299002081F83C00CC
:10230000FFE701208DF80F0005E0FFE7C2E700209E
:102310008DF80F00FFE79DF80F0004B080BD0000AE
:1023200080B586B0DDF820C0049003918DF80B20B5
:102330000193FFE79DF80E0001280CD1FFE70498F8
:1023400000684069BDF80C100840401AB0FA80F0EF
:10235000400900900BE0049800688069BDF80C10FB
:102360000840401AB0FA80F040090090FFE700985A
:102370009DF80B1088422AD1FFE70198013028B35D
:10238000FFE7FFF79DFA0899401A0199884203D8A0
:10239000FFE70198C8B9FFE7049900200863049A91
:1023A000202182F83D10049981F83E000499086CC0
:1023B00040F020000864FFE70499002081F83C0009
:1023C000FFE701208DF8170005E0FFE7B2E70020E6
:1023D0008DF81700FFE79DF8170006B080BD0000DC
:1023E00080B586B00490039102920193FFE79DF8B7
:1023F0000E0001280CD1FFE7049800684069BDF881
:102400000C100840401AB0FA80F0400900900BE030
:10241000049800688069BDF80C100840401AB0FAB2
:1024200080F040090090FFE70098002858D1FFE7AE
:1024300004980068406900F480610120B0EB912F9E
:1024400024D1FFE704980168086840F40070086030
:10245000049801686FF48060486104990020086363
:10246000049A202182F83D10049981F83E000499D5
:10247000086C40F004000864FFE70499002081F82C
:102480003C00FFE701208DF817002DE00298013095
:1024900028B3FFE7FFF714FA0199401A029988421E
:1024A00003D8FFE70298C8B9FFE704990020086342
:1024B000049A202182F83D10049981F83E00049985
:1024C000086C40F020000864FFE70499002081F8C0
:1024D0003C00FFE701208DF8170005E0FFE786E7E5
:1024E00000208DF81700FFE79DF8170006B080BDAB
:1024F00080B584B0029001910092FFE702980068D5
:102500004069C1B20020B0EBD11F33D1FFE7029880
:10251000FFF7FEFD20B1FFE701208DF80F002DE051
:102520000198013028B3FFE7FFF7CAF90099401A74
:102530000199884203D8FFE70198C8B9FFE70299DB
:1025400000200863029A202182F83D10029981F848
:102550003E000299086C40F020000864FFE70299F1
:10256000002081F83C00FFE701208DF80F0005E016
:10257000FFE7C3E700208DF80F00FFE79DF80F008D
:1025800004B080BD80B50120002103F021F90220B4
:10259000FEF7E4FF80BD000080B582B08DF8070033
:1025A0009DF80700012103F013F902B080BD00007F
:1025B00080B582B08DF807008DF806109DF80600F2
:1025C00001460091032836D80099DFE801F0020D9A
:1025D0001A279DF8070040F08000002103F0F8F86A
:1025E0000120FEF7BBFF26E09DF80700403040F0D9
:1025F0008000C0B2002103F0EBF80120FEF7AEFF2F
:1026000019E09DF80700143040F08000C0B20021AE
:1026100003F0DEF80120FEF7A1FF0CE09DF80700B3
:10262000543040F08000C0B2002103F0D1F8012006
:10263000FEF794FFFFE702B080BD000080B582B0D6
:10264000019000208DF80300FFE701989DF803102A
:10265000405C68B1FFE701989DF80310405C0121E0
:1026600003F0B6F89DF8030001308DF80300ECE7A5
:1026700002B080BD80B582B08DF807009DF80700DC
:1026800040F22432C2F20002107069464FF47A70B0
:10269000086040F23430C2F200004E210123FFF7FF
:1026A00067FA02B080BD000080B586B00F20FEF74B
:1026B00055FF0320019003F0BDF80420FEF74EFF04
:1026C000019803F0B7F86420FEF7D6FE019803F0F6
:1026D000B1F801200490FEF741FF0220029003F0C0
:1026E000A9F80498FEF73AFF28200021039103F08F
:1026F0006FF80498FEF732FF03990C2003F068F896
:102700000498FEF72BFF0399049803F061F80298F0
:10271000FEF724FF0399062003F05AF80498FEF709
:102720001DFF40F2EA31C2F200010591087840F045
:1027300008000870FFF79EFF0599087800F0FD007B
:102740000870FFF797FF06B080BD000082B00190CF
:10275000019A41F21400C4F20200016811430160C1
:102760000068019908400090009802B0704700008E
:1027700082B00190019A41F21C00C4F2020001688B
:10278000114301600068019908400090009802B070
:102790007047000082B00190019A41F21C00C4F21F
:1027A000020001681143016000680199084000902F
:1027B000009802B07047000082B00190019A41F287
:1027C0001800C4F202000168114301600068019919
:1027D00008400090009802B07047000082B001905D
:1027E000019A41F21800C4F202000168114301602D
:1027F0000068019908400090009802B070470000FE
:1028000082B00190019A41F21800C4F202000168FE
:10281000114301600068019908400090009802B0DF
:102820007047000082B00190019A41F21800C4F292
:10283000020001681143016000680199084000909E
:10284000009802B07047000081B00090009840F2FC
:102850001441C4F20101086001B0704781B00090DA
:10286000009A40F20441C4F20101086890430860F4
:1028700001B0704781B00090009A40F20C41C4F260
:10288000010108689043086001B0704781B0009072
:10289000009A40F20041C4F20101086890430860C8
:1028A00001B0704781B00090009A40F20841C4F234
:1028B000010108689043086001B0704781B0009042
:1028C000009A40F20441C4F2010108681043086014
:1028D00001B0704781B00090009A40F20C41C4F200
:1028E000010108681043086001B0704781B0009092
:1028F000009A40F20041C4F20101086810430860E8
:1029000001B0704781B00090009A40F20841C4F2D3
:10291000010108681043086001B0704780B584B0B9
:10292000039000208DF80B0003980079002867D0F1
:10293000FFE703980068002861D0FFE7039840791B
:102940000146019140B1FFE7019801280DD0FFE752
:102950000198022812D01AE003980068FFF77EFF62
:1029600003980068FFF7C2FF15E003980068FFF7BF
:102970008DFF03980068FFF7A1FF0CE00398006843
:10298000FFF7B4FF03980068FFF798FF03E001200A
:102990008DF80B00FFE70398807978B3FFE7039881
:1029A000807901460091012808D0FFE700980228AD
:1029B0000DD0FFE70098032812D01AE003980068B2
:1029C000FFF758FF03980068FFF79CFF15E0039896
:1029D0000068FFF767FF03980068FFF77BFF0CE0D4
:1029E00003980068FFF78EFF03980068FFF772FFF7
:1029F00003E001208DF80B00FFE7FFE7FFE708E0A9
:102A000003980068FFF742FF03980068FFF726FF6E
:102A1000FFE79DF80B0004B080BD000081B000907E
:102A200040F21440C4F20100006800990840401AC6
:102A3000B0FA80F0400901B07047000042F2000097
:102A4000C4F20200006800F00700704781B00090F7
:102A500042F20001C4F20201086820F00700009A67
:102A60001043086001B0704782B0019000919DF85A
:102A700000000821C4F2010151F82000009A4FEA39
:102A8000124C20EA1240019B9CFAACFCBCFA8CFC74
:102A900003FA0CF31843D2B241F8220002B0704797
:102AA00080B586B0059004910498B0F801000390B9
:102AB000039890FAA0F0B0FA80F00290FFE7039834
:102AC0000299C840002849D0FFE703980299C840FE
:102AD000C00700283ED0FFE70298072806D8FFE786
:102AE000029940F201108840019009E00298A0F19B
:102AF00008014FF00110884040F080600190FFE72E
:102B000004984068082807D1FFE705980199049ABE
:102B1000126900F0B7F8FFE705980199049A526826
:102B200000F066F804984068012805D0FFE7049893
:102B3000406809280DD1FFE705980199049A926829
:102B400000F0B6F805980199049AD26800F06AF886
:102B5000FFE7FFE7029801300290B0E7002006B0DF
:102B600080BD000082B00190009101988068BDF89E
:102B700001100840401AB0FA80F0400902B07047D6
:102B800082B001900091BDF801000199486102B046
:102B90007047000082B001900091BDF801000199DA
:102BA000486102B07047000082B001900091BDF80A
:102BB00001000199086102B07047000084B00390E1
:102BC0000291019203989DF80B100844009000991F
:102BD0000868029A92FAA2F2B2FA82F293000F22E5
:102BE0009A409043019A9A401043086004B070479D
:102BF00084B003900291019203989DF80B10084451
:102C0000009000990868029A92FAA2F2B2FA82F24F
:102C100093000F229A409043019A9A401043086013
:102C200004B0704784B003900291019203989DF81C
:102C30000B100844009000990868029A92FAA2F2D8
:102C4000B2FA82F2930004229A409043019A9A4089
:102C50001043086004B0704783B002900191009265
:102C60000298C06801990A0A20EA1120009992FA94
:102C7000A2F2B2FA82F2914008430299C86003B00E
:102C80007047000083B00290019100920298C068E2
:102C900001990A0A20EA1120009992FAA2F2B2FAE6
:102CA00082F2914008430299C86003B07047000067
:102CB00084B003900291019203989DF80B10084490
:102CC000009000990868029A92FAA2F2B2FA82F28F
:102CD000930003229A409043019A9A40104308605F
:102CE00004B0704781B0009000994CF6CC40086069
:102CF00001B0704781B00090009945F255500860CE
:102D000001B0704781B000900098C06800F00300E7
:102D1000B0FA80F0400901B07047000081B0009027
:102D200000994AF6AA20086001B0704781B000906F
:102D300000994AF6AA20086001B0704781B000905F
:102D400000994AF6AA20086001B0704782B001904D
:102D50000091009800F007000199486002B07047A8
:102D600082B00190009100986FF31F300199886044
:102D700002B0704741F20400C4F20200006800F0A3
:102D8000F000704741F20400C4F20200006800F451
:102D9000E060704741F20400C4F20200006800F4F1
:102DA0006050704741F20400C4F20200006800F075
:102DB0000C00704741F20400C4F20200006800F009
:102DC0000C00704780B582B0019001F007F80199BE
:102DD00008600198006800F0C9FF019948600198F7
:102DE000406800F0D7FF019988600198406800F0C2
:102DF000E3FF0199C86002B080BD000041F200010C
:102E0000C4F20201086840F4803008607047000096
:102E100041F20000C4F202000068C0F34040704775
:102E200041F22401C4F20201086840F00100086088
:102E30007047000041F22400C4F202000068C0F3B1
:102E40004000704782B00190009141F20401C4F249
:102E50000201086820F47C10019A02F44032009BC1
:102E60001A431043086002B07047000041F20001AD
:102E7000C4F20201086840F08070086070470000EA
:102E800041F20400C4F20200006800F48030704790
:102E900041F20400C4F20200006800F470107047B0
:102EA00041F20400C4F202000068C0F340407047E1
:102EB00041F20000C4F202000068C0F340607047B5
:102EC00081B0009041F20401C4F20201086820F0D0
:102ED000F000009A1043086001B0704781B0009084
:102EE00041F20401C4F20201086820F4E060009A93
:102EF0001043086001B0704781B0009041F20401B6
:102F0000C4F20201086820F46050009A104308607F
:102F100001B0704781B0009041F20401C4F2020197
:102F2000086820F00300009A1043086001B0704761
:102F300081B000900099086840F04000086001B03E
:102F40007047000080B584B00390029101208DF895
:102F50000700039800F04EF8C0BBFFE70398006835
:102F60004FF6BF718843029A00921168D2F804E0CC
:102F7000D2F808C0D36841EA0E0141EA0C011943B6
:102F8000136919435369194393691943D369194361
:102F9000126A11430843039908600398406820F0BF
:102FA00004000299C98A0843039948600298006A9C
:102FB000B0F5005F06D1FFE703980299496A00F077
:102FC00027F8FFE700208DF80700FFE79DF80700CE
:102FD00004B080BD81B000900098806800F00100CE
:102FE00001B0704781B0009000988068C0F3400045
:102FF00001B0704781B0009000980068C0F3801065
:1030000001B0704781B000900098007B01B070471C
:1030100082B001900091BDF800000199086102B0F2
:103020007047000083B002908DF8071002980C30B2
:1030300000909DF807000099087003B070470000E9
:1030400081B00090009840F20001C2F200010860D7
:1030500001B0704781B0009000996FF001000861E5
:1030600001B0704781B000900099086820F080009E
:10307000086001B07047000081B000900099886836
:1030800020F08000886001B07047000081B000909F
:103090000099086840F08000086001B070470000A7
:1030A00081B000900099086840F00100086001B00C
:1030B0007047000081B000900099C86840F001009E
:1030C000C86001B07047000081B000900099486965
:1030D00040F00100486101B07047000080B584B045
:1030E00003900291039800680190039842F6004112
:1030F000C4F20101884215D0FFE70398B0F1804F78
:1031000010D0FFE7039840F20041C4F2000188426A
:1031100008D0FFE7039840F60001C4F2000188429E
:1031200008D1FFE7019820F0700002994968084330
:103130000190FFE7039842F60041C4F20101884282
:1031400015D0FFE70398B0F1804F10D0FFE7039848
:1031500040F20041C4F20001884208D0FFE7039822
:1031600040F60001C4F20001884208D1FFE701984F
:1031700020F440700299C96808430190FFE7019864
:103180000399086003980299896800F021F8039870
:103190000299098800F032F8039842F60041C4F21F
:1031A0000101884206D1FFE703980299096900F0FE
:1031B0002DF8FFE70398FFF787FF002004B080BDDC
:1031C00081B000900098006900F0010001B07047E4
:1031D00082B00190009100980199C86202B07047D6
:1031E00082B0019000910198806844F20701884301
:1031F000009908430199886002B0704782B001903D
:10320000009100980199886202B0704782B00190E5
:10321000009100980199086302B0704782B0019054
:1032200000910198406820F07000009908430199CE
:10323000486002B07047000082B0019001980068B9
:1032400000900098019840680090009802B0704784
:1032500082B0019001980068009000980198406841
:103260000090009802B0704782B001900198006809
:1032700000900098019840680090009802B0704754
:1032800081B000900099086920F49040086100998D
:10329000486920F02A00486101B0704781B0009071
:1032A0000099C86840F40050C86001B07047000041
:1032B00081B000900099C86840F40050C86001B027
:1032C0007047000081B000900099C86840F020006D
:1032D000C86001B07047000080B588B007900691C3
:1032E00001208DF8170000200490079800F088F85E
:1032F000002851D1FFE70798C06841F20C6188436C
:10330000069A5168D3681269194311430843079913
:10331000C86007980699896800F0C0F80798069970
:10332000496900F0ADF86846FFF74CFD079843F691
:103330000001C4F20101884203D1FFE70398049021
:1033400018E0079844F20041C4F20001884203D11A
:10335000FFE7029804900CE0079844F60001C4F2DD
:103360000001884203D1FFE70298049000E0FFE7E4
:10337000FFE7FFE7049870B1FFE70698006850B1D7
:10338000FFE700208DF8170007980499069A126845
:1033900000F04EF8FFE7FFE79DF8170008B080BD8A
:1033A00081B0009000980068C0F3400001B0704701
:1033B00081B0009000980068C0F3800001B07047B1
:1033C00081B0009000980068C0F3C00001B0704761
:1033D00081B0009000980068C0F3401001B07047C1
:1033E00081B0009000980068C0B2C00901B0704779
:1033F00081B0009000980068C0B2C00901B0704769
:1034000081B000900098C068C0F3403001B07047B0
:1034100081B000900098C068C0F3401001B07047C0
:1034200081B0009000984068C0B201B070470000C1
:1034300083B00290019100920198192148430099AC
:103440008900B0FBF1F348F21F51C5F2EB11A3FB69
:1034500001204209642002FB1033322000EB0310EC
:10346000A0FB0101F02000EA511000EB0210C1F3B3
:103470004311084480B20299886003B0704700008D
:1034800082B0019000910198406920F44070009949
:1034900008430199486102B07047000082B0019072
:1034A00000910198006920F4405000990843019967
:1034B000086102B07047000082B001908DF80310DF
:1034C0009DF803000199486002B0704782B00190F6
:1034D0008DF803109DF803000199486002B0704711
:1034E00082B001904EF21000CEF200000068009011
:1034F00000980198013020B1FFE701980130019058
:10350000FFE7FFE7019870B1FFE74EF21000CEF23F
:1035100000000068C003002804D5FFE701980138C7
:103520000190FFE7EEE702B07047000080B5402051
:10353000FFF70CF980BD000010B59EB0002015907B
:103540001D901C901B901A901990189017901020A5
:103550000590FFF731F920200690FFF72DF90420A0
:103560000890FFF729F908201090FFF725F941F29C
:103570000000C4F2010001902021C0F2204100911E
:10358000FFF708FB40F60000C4F20100099041F685
:103590001901C0F201410291FFF7FCFA40F6004028
:1035A000C4F201000D905021C0F250410491FFF788
:1035B000F1FA009A01981599179201220F92189228
:1035C0000222149219921A9117A90391FFF768FA2F
:1035D0000399DDF83CC0149B159ADDF808E00998C2
:1035E000CDF85CE0CDF860C019931A92FFF758FA55
:1035F0000399DDF83CC0149B159ADDF810E00D9896
:10360000CDF85CE0CDF860C019931A92FFF748FA44
:1036100015984FF07061FFF727FA15980321CFF244
:103620000001FFF721FA0F984FF07041FFF71CFAE5
:103630000F980121C0F20F01FFF716FA0F98012130
:10364000C0F2F001FFF710FA089B0F9A1498159931
:103650001C938DF874208DF875108DF876001CA8D9
:103660000790FFF75BF90F9B1499159A07984FF491
:10367000004CCDF870C08DF874308DF875208DF841
:103680007610FFF74BF90F9BDDF840C01499159A9F
:103690000798CDF870C08DF874308DF875208DF8CE
:1036A0007610FFF73BF9DDF814C00F9B1499159ABB
:1036B0000798CDF870C08DF874308DF875208DF8AE
:1036C0007610FFF72BF9DDF818C00F9B1499159AA7
:1036D0000798CDF870C08DF874308DF875208DF88E
:1036E0007610FFF71BF9089A099840F20441FFF79A
:1036F00065FA0998109A8021C0F280410A91FFF77B
:103700005DFA0D98109A40F608010B91FFF756FAF2
:103710000D98109A41F210010C91FFF74FFA0D9895
:10372000109A42F220010E91FFF748FA09980A997F
:103730000F9AFFF791FA0B990D980F9AFFF78CFAF1
:103740000C990D980F9AFFF787FA0D980E990F9A1A
:10375000FFF782FA00F000FD159A114600F02CFAEE
:103760000146109800F018FD109800F0ADFC00F034
:10377000F3FC1499159A00F01FFA014609201190E4
:1037800000F00AFD119800F09FFC00F0E5FC149990
:10379000159A00F011FA01460A20129000F0FCFC84
:1037A000129800F091FC00F0D7FC1499159A00F0E3
:1037B00003FA01461720139000F0EEFC139800F076
:1037C00083FC00F0C9FC1499159A00F0F5F9014644
:1037D0002820169000F0E0FC169800F075FC1EB052
:1037E00010BD000080B582B040F23430C2F200005B
:1037F000019045F20041C4F20001016048F2A0616D
:10380000C0F20101416000218160C1604FF480423B
:10381000026141618161C1610162FEF757F818B12F
:10382000FFE7FDF793FEFFE702B080BD80B582B0F1
:1038300043F20000C4F200000190FFF753FA019830
:10384000FFF758FA01980021FFF780FA019840F637
:10385000FF71FFF785FAFFE743F20000C4F20000B2
:10386000FFF750FA012801D0FFE7F5E743F2000027
:10387000C4F20000FFF762FA02B080BD80B594B0D8
:103880000AA803902821FCF764FD00200490099009
:1038900008900790069005904FF48050FEF79EFF29
:1038A00004200090FEF79AFF04984AF2A0010591C7
:1038B0000921069103210791089040F60000C4F207
:1038C0000100029005A90191FFF7EAF8009A019919
:1038D000029844F2400305930692FFF7E1F803993A
:1038E00004980A904FF482720B920C900D900E90F7
:1038F0004FF400720F9220221092119012900A2021
:10390000139043F20000C4F20100FFF71BFB14B058
:1039100080BD000080B582B040F28830C2F2000065
:10392000019043F60001C4F2000101604FF482717E
:1039300041604FF4004181600021C160016141613B
:103940004FF400728261C1610162416281620A21A9
:10395000C162FEF717FB18B1FFE7FDF7F7FDFFE7C0
:1039600002B080BD80B588B000200190079006901D
:103970000590049003904FF40060FEF741FF00F0C3
:10398000F3FB019A012100F04DF901461920009046
:1039900000F024FC009800F0AFFB019842F2107197
:1039A000ADF80C10049041F61F4105910690079068
:1039B00042F60040C4F20100029003A9FFF78EFB1B
:1039C0000298FFF763FB01990298FFF709FC019940
:1039D0000298FFF723FC0298FFF74EFB08B080BD6A
:1039E00080B58AB000200390099008900790069057
:1039F000059001200190FEF7BBFE00F0B5FB019998
:103A0000039A00F00FF901461C20029000F0E6FB3B
:103A1000029800F071FB03980A21ADF8141006908B
:103A200041F68B11079108904FF08040049005A952
:103A3000FFF754FB0498FFF715FB03990498FFF771
:103A4000CFFB03990498FFF7E9FB0498FFF714FBF9
:103A50000AB080BD80B592B0002004901190109003
:103A60000F900E900D900C900B900A90099008907A
:103A7000079006904FF48040FEF7D4FE042000909B
:103A8000FEF7D0FE04980221C0F2024106910921FE
:103A9000079103210891099040F60000C4F201004B
:103AA000029006A90191FEF7FBFF009A0199029886
:103AB0000423C0F2044306930792FEF7F1FF00F0DF
:103AC0005BFB049A012100F0E3F8014625200390F6
:103AD00000F0A6FB039800F027FB04984FF4165162
:103AE0000B910C900D900E900C210F911090119055
:103AF00043F60000C4F2010005900BA9FFF7ECFBB0
:103B00000598FFF7BDFB0598FFF7D2FB12B080BD0B
:103B100080B590B0002002900F900E900D900C9008
:103B20000B900A90099008900790069005900490D9
:103B30004FF48020FEF72EFE0820FEF773FE029859
:103B40000421C0F204410491092105910321069149
:103B5000079040F60040C4F20100019004A90091D2
:103B6000FEF79EFF009901980822C0F208420492D5
:103B700004220592FEF794FF02984FF41651099122
:103B80000A900B900C900C210D910E900F9044F622
:103B90000000C4F20000039009A9FFF79DFB039801
:103BA000FFF76EFB0398FFF783FB10B080BD0000AA
:103BB000FFE7FEE7FFE7FEE788B007900691059272
:103BC000079800F0070004900498C0F1070005284A
:103BD00003D3FFE70420019004E00498C0F107003C
:103BE0000190FFE70198039004980430062803D859
:103BF000FFE70020009003E0049803380090FFE7FF
:103C00000098029006980399012202FA01F1013905
:103C10000840029B984005999A40013A1140084398
:103C200008B0704788B0079006910592079800F099
:103C3000070004900498C0F10700052803D3FFE7AC
:103C40000420019004E00498C0F107000190FFE710
:103C50000198039004980430062803D8FFE7002059
:103C6000009003E0049803380090FFE7009802906A
:103C700006980399012202FA01F101390840029BDA
:103C8000984005999A40013A1140084308B070479E
:103C900088B0079006910592079800F007000490FD
:103CA0000498C0F10700052803D3FFE70420019022
:103CB00004E00498C0F107000190FFE70198039029
:103CC00004980430062803D8FFE70020009003E0A2
:103CD000049803380090FFE7009802900698039933
:103CE000012202FA01F101390840029B984005992E
:103CF0009A40013A1140084308B0704788B00790D5
:103D000006910592079800F0070004900498C0F10E
:103D10000700052803D3FFE70420019004E004987E
:103D2000C0F107000190FFE7019803900498043068
:103D3000062803D8FFE70020009003E0049803382A
:103D40000090FFE70098029006980399012202FA7A
:103D500001F101390840029B984005999A40013AC7
:103D60001140084308B070477047000080B582B02A
:103D7000019001980090FEF7FDFF01460098C9B23E
:103D80000A0946F29461C0F60001895CC84002B09D
:103D900080BD000080B582B0019001980090FEF7D0
:103DA000F1FF014600980A0A46F2A461C0F600013C
:103DB000895CC84002B080BD80B582B00190019896
:103DC0000090FEF7E7FF01460098CA0A46F2A46198
:103DD000C0F60001895CC84002B080BD80B582B0E9
:103DE00000200190FEF7E6FF0146009140B1FFE799
:103DF000009804280AD0FFE7009808280CD00FE0AC
:103E000041F20020C0F27A0001900FE041F2002060
:103E1000C0F27A00019009E000F00CF8019005E092
:103E200041F20020C0F27A000190FFE7019802B051
:103E300080BD000080B584B0002003900290FFF7A1
:103E40001FF802900298019028B1FFE70198B0F5A1
:103E5000803F06D010E040F60010C0F23D00039015
:103E600010E0FFF71DF8411C41F20020C0F27A007B
:103E7000B0FBF1F0039005E040F60010C0F23D0009
:103E80000390FFE703980090FFF702F802460098BE
:103E9000022101EB9241484304B080BD704700000D
:103EA00080B582B0009000980138B0F1807F03D3D4
:103EB000FFE70120019019E0009801384EF214014B
:103EC000CEF2000108604FF0FF300F2100F0CAF978
:103ED0004EF21801CEF20001002008604EF21002EE
:103EE000CEF20002072111600190FFE7019802B0B5
:103EF00080BD000080B5FDF77FFF80BD80B582B03A
:103F00000220FEF7A3FDFFE7FEF798FD022801D08F
:103F1000FFE7F9E7FEF772FFFFE7FEF779FF0128F9
:103F200001D0FFE7F9E7FEF77BFFFFE7FEF782FF2F
:103F3000012801D0FFE7F9E74FF480304FF4E0119A
:103F4000FEF780FFFEF792FFFFE7FEF7B1FF0128C3
:103F500001D0FFE7F9E700200190FEF7B1FF4FF431
:103F60008060FEF7BBFF0198FEF7C6FF0220FEF758
:103F7000D1FFFFE7FEF716FF082801D0FFE7F9E7BA
:103F80004AF20020C0F24A40FFF75AF80F20FDF72E
:103F900055FF18B1FFE7FDF7D9FAFFE702B080BD82
:103FA0007047000080B501F0E9FD80BD80B501F0EB
:103FB000FDFD80BD80B582B043F60000C4F2010073
:103FC000FFF706FA00284BD0FFE743F60000C4F2E3
:103FD0000100FFF71DFA002842D0FFE7EFF3108041
:103FE00072B6019043F60000C4F20100FFF718FA20
:103FF0008DF8030040F22730C2F20000007800B3D1
:10400000FFE79DF80300312807D1FFE740F2283190
:10401000C2F20001012008700CE09DF80300322874
:1040200007D1FFE740F22831C2F2000101204870B9
:10403000FFE7FFE740F22731C2F2000100200870DD
:104040000CE09DF80300312807D1FFE740F227314B
:10405000C2F2000101200870FFE7FFE762B62FE01F
:1040600043F60000C4F20100FFF7AAF938B1FFE7F8
:1040700043F60000C4F20100FFF7F6F81FE043F634
:104080000000C4F20100FFF78BF938B1FFE743F6F7
:104090000000C4F20100FFF7CFF80FE043F6000084
:1040A000C4F20100FFF784F938B1FFE743F60000DE
:1040B000C4F20100FFF7CCF8FFE7FFE7FFE7FFE7F7
:1040C00002B080BDFFE7FEE781B08DF803009DF9E7
:1040D000030000280ED4FFE79DF9031001F01F0232
:1040E000012090404A094EF20011CEF2000141F841
:1040F0002200FFE701B0704781B08DF803009DF901
:10410000030000280ED4FFE79DF9031001F01F0201
:10411000012090404A094EF20011CEF2000141F810
:104120002200FFE701B0704781B08DF803009DF9D0
:10413000030000280ED4FFE79DF9031001F01F02D1
:10414000012090404A094EF20011CEF2000141F8E0
:104150002200FFE701B070474EF60C50CEF200008F
:104160000068C0F3022070474EF60C50CEF20000FB
:104170000068C0F3022070474EF60C50CEF20000EB
:104180000068C0F3022070474EF60C50CEF20000DB
:104190000068C0F30220704782B08DF807000091DC
:1041A0009DF9070000280AD4FFE7009800019DF957
:1041B00007104EF20042CEF2000288540BE0009845
:1041C00000019DF8071001F00F014EF61452CEF2D7
:1041D00000028854FFE702B07047000082B08DF8FB
:1041E000070000919DF9070000280AD4FFE7009816
:1041F00000019DF907104EF20042CEF200028854F1
:104200000BE0009800019DF8071001F00F014EF639
:104210001452CEF200028854FFE702B0704700004B
:1042200082B08DF8070000919DF9070000280AD49C
:10423000FFE7009800019DF907104EF20042CEF210
:10424000000288540BE0009800019DF8071001F06F
:104250000F014EF61452CEF200028854FFE702B06E
:104260007047000082B08DF8070000919DF90700AB
:1042700000280AD4FFE7009800019DF907104EF2CC
:104280000042CEF2000288540BE0009800019DF835
:10429000071001F00F014EF61452CEF200028854BE
:1042A000FFE702B07047000083B00290029800F070
:1042B000070000904EF60C51CEF200010868019004
:1042C00001984FF6FF02104001900198009A40EAD1
:1042D00002200022C0F2FA521043019001980860B7
:1042E00003B0704784B003908DF80B100020ADF838
:1042F000080041F22101ADF802108DF80100FFE73E
:104300009DF801009DF80B10884252DAFFE79DF8F6
:104310000900ADF80600BDF8060003999DF80120DC
:10432000895C4840ADF80600BDF80600ADF8040011
:10433000BDF804000002ADF8040000208DF8000074
:10434000FFE79DF80000072820DCFFE7BDF9040027
:10435000B0F1FF3F0DDCFFE7BDF804004000ADF811
:104360000400BDF80400BDF802104840ADF8040098
:1043700005E0BDF804004000ADF80400FFE7FFE7EA
:104380009DF8000001308DF80000DAE7BDF8080064
:104390000002ADF80800BDF80800BDF80410484060
:1043A000ADF80800FFE79DF8010001308DF801002D
:1043B000A6E7BDF8080004B07047000080B588B0DB
:1043C000079000208DF80600FFE79DF806001328EF
:1043D00015DCFFE707989DF80610405CFF2807D022
:1043E000FFE707999DF80620885C01308854FFE7B5
:1043F000FFE79DF8060001308DF80600E5E7002094
:104400008DF80500FFE79DF80500132845DCFFE760
:10441000FBF712FF46F26761C6F2666180FB01128C
:10442000D10801EBD27101EB8101A0EB81008DF885
:104430000700FFE707989DF80710405C90B9FFE779
:10444000FBF7FAFE46F26761C6F2666180FB011275
:10445000D10801EBD27101EB8101A0EB81008DF855
:104460000700E7E707989DF80710405C70B1FFE789
:1044700007989DF80710405C9DF8052002A9885414
:1044800007999DF8072000208854FFE7FFE79DF873
:10449000050001308DF80500B5E700208DF8040017
:1044A000FFE79DF80400132816DCFFE707989DF846
:1044B0000410405CFF2808D0FFE79DF8042002A804
:1044C000805C013807998854FFE7FFE79DF80400F6
:1044D00001308DF80400E4E708B080BD82B001909F
:1044E000019840F20001C2F2000109684DF68362B2
:1044F000C4F21B32A1FB0221890C4843009041F217
:104500000401CEF2000100200860FFE741F2040040
:10451000CEF2000000680099884201D2FFE7F5E77B
:1045200002B0704780B5FEF7BFF880BD4EF6FC5173
:10453000CEF20001086840F08070086041F200018E
:10454000CEF20001086840F00100086070470000EA
:1045500082B040F22831C2F20001002000900870C1
:1045600048708870C870087140F24842C2F2000278
:104570001060506090601074012191748DF80700F4
:10458000FFE79DF80700132836DCFFE79DF80700DA
:10459000020140F2E411C2F2000188549DF80720A4
:1045A00040F21800C2F20000805C01EB0212507071
:1045B0009DF8070001EB00124FF0FF3050609DF8AE
:1045C000070001EB0012012090739DF8070001EB3A
:1045D0000012002010739DF8072001EB02125073A7
:1045E0009DF8072001EB02118870FFE79DF8070096
:1045F00001308DF80700C4E702B0704781B0EFF3D7
:10460000108072B6009001B07047000062B670472B
:1046100080B582B0FFF7F2FF01208DF807000A2075
:1046200001F030FB072000F0E1FB8DF807009DF85A
:1046300007004006002813D5FFE740F2EB31C2F235
:10464000000161200B2200F099FB0720402100F0BF
:1046500039FD40F22531C2F2000101200870FFE768
:104660009DF80700800600280DD5FFE707202021D0
:1046700000F028FD00F0EAFB40F22631C2F2000112
:10468000012008700FE09DF80700C006002809D53A
:10469000FFE70720102100F015FD00F0F7FA00F009
:1046A000D5FBFFE7FFE7FFF7B1FF02B080BD0000D9
:1046B00080B588B0002007908DF81B00FDF7AAFB9D
:1046C000FFF71CFCFEF738FFFFF7D8F8FFF7C2F939
:1046D000FFF748F9FFF786F8FFF782F9FFF71AF9B5
:1046E000FEF724FFFFF714FAFFF7A0F8FFF71EFF0D
:1046F00001F0B6F900F0E6FA672001F0F9FAFFF7E9
:1047000011FF9DF81B0001F0DBF943F20000C4F239
:104710000000FEF70BFB00F0F9F800F0E1FF42F6B5
:104720000040C4F201000390FEF7C4FC0398FEF7BA
:10473000B7FC4FF080400490FEF7BCFC0498FEF7F5
:10474000AFFC43F60000C4F20100FEF7BBFDFFF72B
:10475000FFFE00F0F5FF0F2000F0E8F9FFE740F260
:104760002830C2F20000007848B1FFE740F228315B
:10477000C2F200010020087001F010F8FFE740F2DB
:104780004841C2F200018868C968401A0228C0F096
:10479000B480FFE740F24842C2F200020292906801
:1047A000D060107C40F2E411C2F2000101EB001075
:1047B000437840F23640C2F2000001900370137C4F
:1047C00001EB03139B7B4370127C01EB0211097B0D
:1047D00081700921FFF786FD01460198ADF8181098
:1047E0009DF8191041729DF81810817200F064FB59
:1047F0000298017C01310174007C142839DBFFE749
:1048000040F24841C2F200010020087440F2283012
:10481000C2F20000407848B1FFE740F22831C2F20E
:1048200000010020487000F079FDFFE740F22830D9
:10483000C2F20000807848B1FFE740F22831C2F2AE
:1048400000010020887001F035F8FFE740F22830C1
:10485000C2F20000C07848B1FFE740F22831C2F24E
:1048600000010020C87001F0C9F9FFE700F0B4FDB5
:10487000FFE740F22830C2F200000079E0B3FFE722
:1048800040F24841C2F2000108684968401A90B3FA
:10489000FFE740F24841C2F20001086848F6890289
:1048A000C8F68802A0FB023040098DF8170008689E
:1048B000A0FB02235A091201A2EB5312A0EB8200C3
:1048C0008DF81600086848609DF817209DF816308E
:1048D00040F2F630C2F20000009046F24071C0F69D
:1048E0000001FBF7E3FC00200221FDF761FE0098C8
:1048F000FDF7A4FEFFE7FFE7FFE700F007FC43F248
:104900000000C4F20000FEF711FA28E780B582B07B
:104910000020ADF80600ADF80400BDF80430591CC5
:10492000ADF8041040F2E031C2F200017E22CA5418
:10493000BDF804305A1CADF80420FF22CA54BDF85B
:1049400004305A1CADF804200622CA54BDF80430C5
:104950005A1CADF804203F22CA54BDF80420531C51
:10496000ADF804308854BDF80420531CADF8043071
:104970008854BDF80420501CADF80400022088546F
:1049800001208DF80300FFE79DF80300062813DCE3
:10499000FFE79DF8031040F2E030C2F20000415CF6
:1049A000BDF806000844ADF80600FFE79DF80300D7
:1049B00001308DF80300E7E7BDF80600C0F5803050
:1049C000ADF806009DF80710BDF80420501CADF8A6
:1049D000040040F2E030C2F2000081549DF806105D
:1049E000BDF80420531CADF804308154BDF80420F8
:1049F000511CADF80410EF21815401F04BF94FF434
:104A00007A70ADF80000FFE7BDF80000411EADF878
:104A1000001050B1FFE743F20000C4F20000FEF7BF
:104A20007DF90120FEF75CFDEEE702B080BD0000DD
:104A300080B582B08DF807000020ADF80400ADF815
:104A40000200BDF80230591CADF8021040F2E0310E
:104A5000C2F200017E22CA54BDF802305A1CADF8E1
:104A60000220FF22CA54BDF802305A1CADF80220C1
:104A70000622CA54BDF802305A1CADF802200322A7
:104A8000CA54BDF80220531CADF802308854BDF85A
:104A90000220531CADF8023088549DF80700BDF881
:104AA0000220531CADF80230885401208DF801001B
:104AB000FFE79DF80100062813DCFFE79DF80110D1
:104AC00040F2E030C2F20000415CBDF8040008444E
:104AD000ADF80400FFE79DF8010001308DF80100FA
:104AE000E7E7BDF80400C0F58030ADF804009DF89C
:104AF0000510BDF80220501CADF8020040F2E03075
:104B0000C2F2000081549DF80410BDF80220531C2D
:104B1000ADF802308154BDF80220511CADF80210EE
:104B2000EF21815401F0B6F802B080BD80B584B0A9
:104B30008DF80F000020ADF80C00ADF80A00BDF8AC
:104B40000A30591CADF80A1040F2E031C2F20001FF
:104B50007E22CA54BDF80A305A1CADF80A20FF2242
:104B6000CA54BDF80A305A1CADF80A200622CA54AD
:104B7000BDF80A3003F1010CADF80AC0CA54BDF803
:104B80000A20531CADF80A308854BDF80A20531C83
:104B9000ADF80A3088549DF80F00BDF80A20531C68
:104BA000ADF80A30885401208DF80900FFE79DF820
:104BB0000900062813DCFFE79DF8091040F2E030F9
:104BC000C2F20000415CBDF80C000844ADF80C00D6
:104BD000FFE79DF8090001308DF80900E7E7BDF80F
:104BE0000C00C0F58030ADF80C009DF80D10BDF83C
:104BF0000A20501CADF80A0040F2E030C2F200007A
:104C000081549DF80C10BDF80A20531CADF80A30F1
:104C10008154BDF80A20511CADF80A10EF218154CF
:104C200001F038F86420ADF80600FFE7BDF8060093
:104C3000411EADF8061050B1FFE743F20000C4F288
:104C40000000FEF76BF80120FEF74AFCEEE704B027
:104C500080BD000080B584B0E2208DF80F0040F6E2
:104C60000000C4F20100019041F210010291FDF731
:104C700087FF9DF80F0000F0FBFE012001F002F815
:104C800001980299FDF790FF04B080BD80B584B013
:104C9000E1208DF80F0040F60000C4F20100019001
:104CA00041F210010291FDF76BFF9DF80F0000F03B
:104CB000DFFE012000F0E6FF01980299FDF774FF86
:104CC00004B080BD80B588B000F056F840F6000012
:104CD000C4F2010040F60801FDF752FF41F28830AE
:104CE000009000F0CFFF002002900A2100F0EAF9C6
:104CF000009800F0C7FF02990120019000F0E2F94E
:104D00000199022000F0DEF901990320069000F0DD
:104D1000D9F90299042000F0D5F900F00DF91D2011
:104D20000721039100F0CEF902991C2000F0CAF986
:104D30000398702100F0C6F905201021049100F0BD
:104D4000C1F90621084600F0BDF90498069A40F220
:104D50009401C2F20001059100F076F90599069AD6
:104D60000B20079000F070F90799112000F0AAF9C4
:104D700000F06CF808B080BD7047000080B584B0CA
:104D80008DF80F0002918DF8072040F60000C4F264
:104D9000010041F21001FDF7F3FE9DF80F0000F055
:104DA00067FE00208DF80600FFE79DF806009DF8DD
:104DB000071088420FDAFFE79DF80F0000F020FE91
:104DC00002999DF806208854FFE79DF806000130FF
:104DD0008DF80600E9E740F60000C4F2010041F258
:104DE0001001FDF7E1FE04B080BD000080B582B087
:104DF0008DF8070000208DF8060040F60000C4F290
:104E0000010041F21001FDF7BBFE9DF8070000F024
:104E1000F7FD8DF806009DF8070007280AD0FFE788
:104E2000FF208DF805009DF8050000F0E9FD8DF8E4
:104E30000600FFE740F60000C4F2010041F2100155
:104E4000FDF7B2FE9DF8060002B080BD80B584B0CB
:104E5000002000908DF80F00FFF7C8FF0146009872
:104E60008DF80F109DF80F1041F003018DF80F1011
:104E70009DF80F1000F026F940F29701C2F20001F0
:104E8000019110200322029200F0DEF80199029AAB
:104E90000A2000F0D9F840F60000C4F2010040F604
:104EA0000801FDF781FE962000F0ECFEFFF7D2FE30
:104EB000FFF7ECFE04B080BD80B586B00590FFF72B
:104EC0009DFB002001908DF8130000F09DF80198E3
:104ED000FFF78CFF014601988DF813109DF8131011
:104EE00041F002018DF813109DF8131001F0FE013E
:104EF0008DF813109DF8131000F0E4F8962000F0E0
:104F0000C1FE0599A0200B2200F03AF840F60000FF
:104F1000C4F20100029040F608010391FDF744FE3F
:104F20000F2000F0AFFE02980399FDF729FEFFF76E
:104F30006DFB06B080BD000080B584B050208DF8B8
:104F40000F0040F60000C4F20100019041F2100190
:104F50000291FDF715FE9DF80F0000F089FD01207C
:104F600000F090FE73208DF80F009DF80F0000F008
:104F70007FFD01980299FDF717FE04B080BD000087
:104F800080B586B08DF8170004918DF80F2040F69B
:104F90000000C4F20100029040F60801FDF7F0FDA8
:104FA000029841F21001FDF7EBFD9DF8170000F0AB
:104FB0005FFD012000F066FE00208DF80E00FFE787
:104FC0009DF80E009DF80F1088420DDAFFE7049857
:104FD0009DF80E10405C00F04BFDFFE79DF80E00C1
:104FE00001308DF80E00EBE740F60000C4F201003E
:104FF000019041F21001FDF7D7FD019840F608013C
:10500000FDF7D2FD06B080BD80B582B040F29401BC
:10501000C2F20001009110200322019200F014F866
:105020000099019A0A2000F00FF840F60000C4F23F
:10503000010040F60801FDF7A3FDFFF70BFEFFF7A7
:1050400025FE02B080BD000080B584B08DF80F0051
:1050500002918DF807209DF80F0040F020008DF898
:105060000F0040F60000C4F2010041F21001FDF70C
:1050700087FD9DF80F0000F0FBFC012000F002FE10
:1050800000208DF80600FFE79DF806009DF8071048
:1050900088420DDAFFE702989DF80610405C00F0A8
:1050A000E7FCFFE79DF8060001308DF80600EBE70E
:1050B00040F60000C4F2010041F21001FDF774FD5A
:1050C00004B080BD80B584B08DF80F008DF80E104F
:1050D0009DF80F0040F020008DF80F0040F6000012
:1050E000C4F20100019041F210010291FDF748FD68
:1050F0009DF80F0000F0BCFC9DF80E0000F0B8FC1D
:1051000001980299FDF750FD04B080BD80B586B0CE
:1051100040F22530C2F200000078002876D0FFE788
:1051200040F2EB30C2F2000001900921FFF7DAF8FB
:1051300001460198ADF81610417A807A40EA0120C4
:10514000ADF81400BDF81600BDF81410884256D111
:10515000FFE700208DF81300FFE79DF813001328E8
:105160004CDCFFE740F2EB30C2F2000000789DF823
:10517000132040F21801C2F20001895C884236D146
:10518000FFE740F2EB30C2F20000427940F23031EA
:10519000C2F200010A7082794A70C2798A70027A7A
:1051A000CA7009680391D0F801000130F0B1FFE73F
:1051B00040F2EB30C2F20000D0F8010002909DF8FE
:1051C000131040F2E410C2F2000000EB01108078EE
:1051D00058B9FFE702989DF8132040F2E411C2F29B
:1051E000000101EB02114860FFE7FFE706E0FFE77F
:1051F0009DF8130001308DF81300AEE7FFE740F291
:105200002531C2F2000100200870FFE706B080BD22
:1052100010B58CB0002006908DF82E00ADF82C0053
:105220008DF82A00ADF82800A7218DF826104AF243
:10523000A561ADF82410A5218DF822104AF2A761CE
:10524000ADF820108DF81F000B200BA9032205924A
:10525000FFF794FD059A10200AA9FFF78FFD9DF82E
:1052600028209DF829309DF82A009DF82CC09DF833
:105270002DE09DF82E406946CC60C1F808E0C1F8E9
:1052800004C0086040F2F630C2F2000046F2AC61A1
:10529000C0F60001FBF70AF806988DF81E00FFE73C
:1052A0009DF81E00022821DCFFE79DF81E2009A8BA
:1052B000805C0BA9895C884204D0FFE7FF208DF851
:1052C0001F00FFE79DF81E2008A8805C0AA9895CE2
:1052D000884204D0FFE7FF208DF81F00FFE7FFE7BB
:1052E0009DF81E0001308DF81E00D9E79DF81F00C3
:1052F0000CB010BD80B540F60040C4F2010040F68D
:105300000801FDF72FFC38B9FFE740F22831C2F25F
:10531000000101204870FFE780BD000080B582B029
:1053200000208DF80700FFE79DF80700132843DCF5
:10533000FFE79DF8071040F2E410C2F2000000EB16
:105340000110407B012817D1FFE79DF8070040F2CC
:10535000E411C2F2000101EB0012002050739DF82D
:10536000072001EB02134FF0FF325A609DF807202F
:1053700001EB0211087318E09DF8071040F2E410E9
:10538000C2F2000000EB0110407B02280CDBFFE7BB
:105390009DF8071040F2E410C2F2000000EB01118A
:1053A000487B01384873FFE7FFE7FFE79DF80700F8
:1053B00001308DF80700B7E700200121FDF7F8F86C
:1053C00040F25500C2F20000FDF738F96420FEF704
:1053D00087F802B080BD000080B5B4B00020049012
:1053E0000B900A900990089007908DF81B008DF89B
:1053F0001A008DF81900FFE79DF81900132813DC37
:10540000FFE79DF8192040F2E410C2F2000000EB23
:105410000210406820A941F82200FFE79DF819001A
:1054200001308DF81900E7E720A800F09FFA00206E
:105430008DF81800FFE79DF81800132865DCFFE7DA
:1054400000208DF81700FFE79DF81700132855DCA2
:10545000FFE79DF8171040F22C00C2F20000415CFB
:1054600040F2E410C2F2000000EB011040689DF829
:10547000182020A951F82210884238D1FFE79DF862
:10548000171040F22C00C2F20000415C40F2E41020
:10549000C2F2000000EB01104068013038B3FFE7B2
:1054A0009DF8171040F22C00C2F20000415C07A8E2
:1054B000405CE0B9FFE79DF81B0001308DF81B0050
:1054C0009DF81B109DF8172040F22C00C2F200003E
:1054D000835C40F2E412C2F2000202EB0312517349
:1054E0009DF81710425C07A901208854FFE7FFE7E9
:1054F0009DF8170001308DF81700A5E7FFE79DF82C
:10550000180001308DF8180095E700208DF816007E
:10551000FFE79DF81600132841DCFFE79DF8161001
:1055200040F2E410C2F2000000EB0110407B40F2B8
:105530004841C2F20001897C884229D1FFE79DF8E9
:10554000161040F2E410C2F2000000EB01104068B7
:105550000130E8B1FFE79DF8161040F20400C2F2F6
:105560000000425C40F2F630C2F20000039046F2C6
:105570002771C0F60001FAF799FE039800F0C4FB0A
:1055800040F24841C2F20001887C01308874FFE794
:10559000FFE79DF8160001308DF81600B9E70020EE
:1055A0008DF81500FFE79DF81500132800F396808D
:1055B000FFE79DF8151040F2E410C2F2000000EB86
:1055C0000110407B002800F08280FFE79DF8151055
:1055D00040F2E410C2F2000000EB0110407B012811
:1055E0000BD1FFE79DF8151040F2E410C2F2000065
:1055F00000EB0111022008730AE09DF8151040F23B
:10560000E410C2F2000000EB011101200873FFE773
:105610009DF81500010140F2E410C2F20000029072
:10562000405C0121FCF7C4FF02989DF8151000EBC7
:105630000110407B40F20401C2F20001084410F85E
:10564000010CFCF7A9FF02989DF8151000EB011062
:10565000807800283AD1FFE79DF8151040F2E41059
:10566000C2F2000000EB01110120887040F22830E6
:10567000C2F20000007920B1FFE70220FFF7D8F95D
:1056800023E040F24840C2F20000407C0146019114
:10569000042819D80199DFE801F003070B0F130064
:1056A0000120FFF7C5F90FE00220FFF7C1F90BE079
:1056B0000320FFF7BDF907E00420FFF7B9F903E085
:1056C0000620FFF7B5F9FFE7FFE7FFE7FFE7FFE792
:1056D0009DF8150001308DF8150064E734B080BDE9
:1056E00080B582B0FCF74EFF002101910846FCF71F
:1056F0005FFF40F24000C2F20000FCF79FFF0198FC
:105700000121FCF755FF40F25500C2F20000FCF702
:1057100095FF01980221FCF74BFF40F26A00C2F2AC
:105720000000FCF78BFF01980321FCF741FF40F2DA
:105730007F00C2F20000FCF781FF02B080BD0000D4
:1057400080B582B040F23640C2F200000090FF21E6
:1057500001700921FEF7C6FD01460098ADF806105C
:105760009DF8071041729DF806108172FFF7A4FBA7
:1057700002B080BD80B540F60040C4F2010041F2A5
:105780001001FDF7EFF938B9FFE740F22831C2F216
:10579000000101200870FFE780BD000080B5FFF721
:1057A000CFFF40F22531C2F2000100200870FCF763
:1057B000E9FEFFF795FF40F22C00C2F20000FEF771
:1057C000FDFDFEF7C5FE0520FDF78AFE80BD000049
:1057D00080B582B08DF807008DF806109DF80600A0
:1057E00058B9FFE740F2EA31C2F20001087800F050
:1057F000FE000870FCF73EFF0AE040F2EA31C2F218
:105800000001087840F001000870FCF733FFFFE763
:1058100000208DF805009DF8070000098DF80500AF
:105820009DF8050000F006F89DF8070000F002F86A
:1058300002B080BD80B584B08DF80F009DF80F00D8
:1058400000018DF80F0040F2EA31C2F2000101912F
:10585000087840F004000870FCF70CFF322002903A
:10586000FBF70AFE019800789DF80F100843FCF73B
:1058700001FF0199087800F0FB000870FCF7FAFEC0
:105880000298FBF7F9FD04B080BD000080B540F63A
:105890000040C4F2010042F22001FDF763F938B97B
:1058A000FFE740F22831C2F2000101208870FFE7D3
:1058B00080BD000080B582B040F24840C2F20000D6
:1058C000417C01314174407C052807DBFFE740F251
:1058D0004841C2F2000100204874FFE740F248400E
:1058E000C2F20000407C0146019104283CD8019995
:1058F000DFE801F0030E19242F000C200221FCF731
:1059000057FE46F20170C0F60000FCF797FE2BE050
:105910000C200221FCF74CFE46F2EF60C0F60000BE
:10592000FCF78CFE20E00C200221FCF741FE46F241
:105930000A70C0F60000FCF781FE15E00C20022181
:10594000FCF736FE46F25870C0F60000FCF776FE13
:105950000AE00C200221FCF72BFE46F2F860C0F6AC
:105960000000FCF76BFEFFE702B080BD83B0029041
:1059700000208DF80700FFE79DF8070012283CDCA7
:10598000FFE700208DF80600FFE79DF806009DF870
:105990000710C1F11301884228DAFFE702989DF849
:1059A000062000EB820150F822004968884216D98F
:1059B000FFE702989DF8061050F821000090029928
:1059C0009DF8062001EB8200406841F82200009813
:1059D00002999DF8062001EB82014860FFE7FFE78E
:1059E0009DF8060001308DF80600CEE7FFE79DF830
:1059F000070001308DF80700BEE703B070470000D4
:105A000080B582B08DF8070000208DF80600FFE712
:105A100043F20000C4F20100FDF7E4FA08B9FFE721
:105A2000F6E79DF8071043F20000C4F20100FDF70D
:105A3000F9FAFFE743F20000C4F20100FDF7CAFAE9
:105A400008B9FFE7F6E743F20000C4F20100FDF7F2
:105A5000D9FA8DF806009DF8060002B080BD00005E
:105A600080B543F20000C4F20100FDF761FA80BD89
:105A700080B582B08DF80700FFE743F20000C4F262
:105A80000100FDF7AFFA08B9FFE7F6E79DF8071048
:105A900043F20000C4F20100FDF7C4FAFFE743F24D
:105AA0000000C4F20100FDF795FA08B9FFE7F6E738
:105AB00043F20C00C4F20100006802B080BD000097
:105AC00080B586B08DF8170040F2F630C2F20000C3
:105AD000049046F23571C0F60001012203920023C2
