:020000040800F2
:10000000005000206D350008C72B0008CF2B0008DA
:10001000D72B0008DF2B0008E72B000800000000AA
:10002000000000000000000000000000EF2B0008AE
:10003000FB2B000800000000072C0008132C000810
:10004000B5350008B5350008B5350008B5350008E8
:10005000B5350008B5350008B5350008B5350008D8
:100060001F2C00083D2C00085B2C0008B53500084B
:10007000B5350008B5350008B5350008B5350008B8
:10008000B5350008B5350008B5350008B5350008A8
:10009000B5350008B5350008B5350008792C0008DD
:1000A000B5350008972C0008B5350008B5350008AF
:1000B000A32C0008B5350008B5350008B535000893
:1000C000B5350008B5350008B5350008B535000868
:1000D000B5350008B12C0008B5350008B535000865
:1000E000692D0008B5350008B5350008000000008E
:1000F0000000000000000000000000000000000000
:0C01000000000000000000005FF808F1A3
:10010C0010B5054C237833B9044B13B10448AFF345
:10011C0000800123237010BD0C01002000000000A2
:10012C006064000808B5034B1BB103490348AFF3E7
:10013C00008008BD00000000100100206064000871
:10014C00034613F8012B002AFBD1181A013870470B
:10015C0080B483B000AF78607B684AF6AA221A603C
:10016C0000BF0C37BD4680BC704780B483B000AF75
:10017C0078607B681B6803F08003802B0CBF012325
:10018C000023DBB218460C37BD4680BC704780B4E8
:10019C0083B000AF78600B46FB70FA787B685A60CE
:1001AC0000BF0C37BD4680BC7047000080B582B0E4
:1001BC0000AF0346FB7100BF0748FFF7D6FF0346AD
:1001CC00002BF9D0FB7919460348FFF7E0FF00BF7D
:1001DC000837BD4680BD00BF0048004080B584B0E4
:1001EC0000AF78600023FB6009E0FB687A68134479
:1001FC001B781846FFF7DAFFFB680133FB60FB68DE
:10020C00092BF2DD00BF00BF1037BD4680BD0000DA
:10021C0080B582B000AF0023FB8000233B803B887D
:10022C005A1C3A801A46384B7E2199543B885A1CEA
:10023C003A801A46344BFF2199543B885A1C3A8019
:10024C001A46314B062199543B885A1C3A801A465F
:10025C002D4B3F2199543B885A1C3A801A462A4B05
:10026C00002199543B885A1C3A801A46264B00218F
:10027C0099543B885A1C3A801A46234B02219954B4
:10028C0001237B7109E07B791F4AD35C1A46FB88FA
:10029C001344FB807B7901337B717B79062BF2D97C
:1002AC00FB885B42FB80FB881B0A99B23B885A1C7B
:1002BC003A801A46C9B2144B99543B885A1C3A805E
:1002CC001A46FB88D9B2104B99543B885A1C3A8079
:1002DC001A460D4BEF2199540B48FFF77FFF4FF453
:1002EC007A737B8005E00948FFF732FF012004F0A8
:1002FC00C1FE7B885A1E7A80002BF4D100BF00BF50
:10030C000837BD4680BD00BF2801002000300040EA
:10031C0080B584B000AF0346FB710023FB81002342
:10032C007B817B895A1C7A811A46314B7E219954E8
:10033C007B895A1C7A811A462D4BFF2199547B8953
:10034C005A1C7A811A462A4B062199547B895A1CCD
:10035C007A811A46264B032199547B895A1C7A813F
:10036C001A46234B00219954FB7919127B895A1C8C
:10037C007A811A46C9B21E4B99547B895A1C7A81D0
:10038C0019461B4AFB79535401237B7309E07B7B91
:10039C00174AD35C1A46FB891344FB817B7B0133E0
:1003AC007B737B7B062BF2D9FB895B42FB81FB8940
:1003BC001B0A99B27B895A1C7A811A46C9B20C4B1A
:1003CC0099547B895A1C7A811A46FB89D9B2084BFD
:1003DC0099547B895A1C7A811A46054BEF21995402
:1003EC000348FFF7FBFE00BF1037BD4680BD00BFC2
:1003FC002801002080B584B000AF0346FB710023B8
:10040C00FB8100233B813B895A1C3A811A46374BAE
:10041C007E2199543B895A1C3A811A46334BFF2151
:10042C0099543B895A1C3A811A46304B06219954EF
:10043C003B895A1C3A811A462C4B062199543B890C
:10044C005A1C3A811A46294B002199543B895A1C53
:10045C003A811A46254B002199543B895A1C3A8102
:10046C001946224AFB79535401237B7309E07B7BA9
:10047C001E4AD35C1A46FB891344FB817B7B0133F8
:10048C007B737B7B062BF2D9FB895B42FB81FB895F
:10049C001B0A99B23B895A1C3A811A46C9B2134BB2
:1004AC0099543B895A1C3A811A46FB89D9B20F4B95
:1004BC0099543B895A1C3A811A460C4BEF2199549A
:1004CC000A48FFF78BFE64237B8105E00848FFF7A1
:1004DC003FFE012004F0CEFD7B895A1E7A81002B51
:1004EC00F4D100BF00BF1037BD4680BD28010020ED
:1004FC000030004080B400AF044BDB681B0A03F0F3
:10050C0007031846BD4680BC704700BF00ED00E0F5
:10051C0080B483B000AF0346FB7197F90730002B12
:10052C000BDBFB7903F01F02064997F907305B09D7
:10053C00012000FA02F241F8232000BF0C37BD461F
:10054C0080BC704700E100E080B483B000AF03468C
:10055C003960FB7197F90730002B0ADB3B68DAB284
:10056C000C4997F907301201D2B20B4483F80023DF
:10057C000AE03B68DAB20849FB7903F00F03043B4D
:10058C001201D2B20B441A7600BF0C37BD4680BCA8
:10059C00704700BF00E100E000ED00E080B489B0DE
:1005AC0000AFF860B9607A60FB6803F00703FB6189
:1005BC00FB69C3F10703042B28BF0423BB61FB6950
:1005CC000433062B02D9FB69033B00E000237B615B
:1005DC004FF0FF32BB6902FA03F3DA43BB681A40EF
:1005EC007B699A404FF0FF317B6901FA03F3D943E1
:1005FC007B680B40134318462437BD4680BC7047BC
:10060C0080B485B000AF7860084B9A6907497B6865
:10061C0013438B61054B9A697B681340FB60FB6845
:10062C0000BF1437BD4680BC704700BF00100240AD
:10063C0090B488B000AFF860B9607A60FB681A4675
:10064C00BB681B0E13441C462268BB687B617B692C
:10065C0093FAA3F33B613B69B3FA83F3DBB29B00E0
:10066C000F2101FA03F3DB431A40BB68FB61FB6902
:10067C0093FAA3F3BB61BB69B3FA83F3DBB29B00C0
:10068C00796801FA03F31343236000BF2037BD469A
:10069C0090BC704780B487B000AFF860B9607A60E6
:1006AC00FB68DA68BB681B0ADB431A40BB681B0A91
:1006BC007B617B6993FAA3F33B613B69B3FA83F3E8
:1006CC00DBB219467B688B401A43FB68DA6000BFCB
:1006DC001C37BD4680BC704780B483B000AF7860D7
:1006EC0039603B681B0A9AB27B685A6100BF0C37B1
:1006FC00BD4680BC7047000080B485B000AF786008
:10070C003960134A3B68DBB2023352F823203B6852
:10071C001B0CDB4302EA03013B681B0CFB60FB6810
:10072C0093FAA3F3BB60BB68B3FA83F3DBB21A464C
:10073C007B6803FA02F206483B68DBB20A430233D9
:10074C0040F8232000BF1437BD4680BC704700BF63
:10075C000000014080B588B000AF07F118030022FB
:10076C001A605A603B1D00221A605A609A60DA6067
:10077C001A611020FFF744FF2020FFF741FF0420EF
:10078C00FFF73EFF0820FFF73BFF89498948FFF739
:10079C00A3FF89498948FFF79FFF89498948FFF7DB
:1007AC009BFF834B7B600123BB600223FB60002318
:1007BC003B613B1D19467F4804F0EBF87E4B7B6098
:1007CC000123BB600223FB6000233B613B1D1946E8
:1007DC007A4804F0DEF87A4B7B600123BB6002237D
:1007EC00FB6000233B613B1D1946764804F0D1F8B1
:1007FC004FF070610020FFF77FFF73490020FFF777
:10080C007BFF4FF070410120FFF776FF6F4901200D
:10081C00FFF772FF6E490120FFF76EFF0423BB61E7
:10082C0001233B7700237B770223BB7707F1180367
:10083C00184603F077FF4FF40043BB6101233B776D
:10084C0000237B770223BB7707F11803184603F0CC
:10085C0069FF0823BB6101233B7700237B770223CD
:10086C00BB7707F11803184603F05CFF1023BB613C
:10087C0001233B7700237B770223BB7707F1180317
:10088C00184603F04FFF2023BB6101233B77002365
:10089C007B770223BB7707F11803184603F042FF5E
:1008AC00042240F204414548FFF7C2FE08224949A0
:1008BC004248FFF7BDFE082240F608014148FFF709
:1008CC00B7FE082241F210013E48FFF7B1FE0822A4
:1008DC0042F220013B48FFF7ABFE01223D4937486D
:1008EC00FFF7D8FE012240F608013648FFF7D2FE8A
:1008FC00012241F210013348FFF7CCFE012242F2F3
:10090C0020013048FFF7C6FEFFF7F4FD0346002236
:10091C0000211846FFF742FE034619460820FFF750
:10092C0013FE0820FFF7F4FDFFF7E4FD0346002259
:10093C0002211846FFF732FE034619460920FFF73D
:10094C0003FE0920FFF7E4FDFFF7D4FD0346002268
:10095C0002211846FFF722FE034619460A20FFF72C
:10096C00F3FD0A20FFF7D4FDFFF7C4FD0346002278
:10097C0002211846FFF712FE034619461720FFF70F
:10098C00E3FD1720FFF7C4FDFFF7B4FD034600227B
:10099C0002211846FFF702FE034619462820FFF7EE
:1009AC00D3FD2820FFF7B4FD00BF2037BD4680BD26
:1009BC002000200400100140191801040008014017
:1009CC0050005004000C0140030000F001000F0027
:1009DC000100F0008000800480B500AF124B134A78
:1009EC001A60114B124A5A600F4B00229A600E4B40
:1009FC000022DA600C4B4FF480421A610A4B002241
:100A0C005A61094B00229A61074B0022DA61064BAE
:100A1C0000221A62044803F0B7F80346002B01D0F9
:100A2C0001F0F2FE00BF80BD3401002000540040F4
:100A3C00A086010080B588B000AF786007F1100384
:100A4C0000221A605A609A60DA607B681B68154A4B
:100A5C00934223D1144B9B69134A43F008039361CF
:100A6C00114B9B6903F00803FB60FB68C0233B61DF
:100A7C0012237B610323FB6107F1100319460B481A
:100A8C0002F0FEFE084BDB69074A43F40013D36106
:100A9C00054BDB6903F40013BB60BB6800BF203758
:100AAC00BD4680BD0054004000100240000C0140C7
:100ABC0080B483B000AF78607B684CF6CC421A608F
:100ACC0000BF0C37BD4680BC704780B483B000AF0C
:100ADC0078607B684AF6AA221A6000BF0C37BD46C4
:100AEC0080BC704780B483B000AF78607B6845F2FF
:100AFC0055521A6000BF0C37BD4680BC704780B49D
:100B0C0083B000AF786039603B6803F007027B6804
:100B1C005A6000BF0C37BD4680BC704780B483B0B0
:100B2C0000AF786039603B68C3F30B027B689A6056
:100B3C0000BF0C37BD4680BC704780B483B000AF9B
:100B4C0078607B68DB6803F00303002B01D1012381
:100B5C0000E0002318460C37BD4680BC70470000EF
:100B6C0080B500AF0D48FFF7A3FF0C48FFF7BAFFA5
:100B7C0000210A48FFF7C3FF40F6FF710748FFF753
:100B8C00CDFF00BF0548FFF7D8FF0346012BF9D175
:100B9C000248FFF79AFF00BF80BD00BF0030004045
:100BAC0080B483B000AF786039603B681B0A9AB29E
:100BBC007B681A6100BF0C37BD4680BC704780B49F
:100BCC0083B000AF786039603B681B0A9AB27B68CF
:100BDC005A6100BF0C37BD4680BC704780B400AF73
:100BEC0072B600BF00BFBD4680BC704780B400AF7A
:100BFC0062B600BF00BFBD4680BC704780B582B0F6
:100C0C0000AF7860786801F001F900BF0837BD4685
:100C1C0080BD000080B584B000AF0346FB7100239B
:100C2C00FB7341F210010F48FFF7C9FFFB7918461F
:100C3C0000F0DAFA0346FB73FB79072B07D0FF238E
:100C4C00BB73BB7B184600F0CFFA0346FB7341F233
:100C5C0010010448FFF7A4FFFB7B18461037BD4674
:100C6C0080BD00BF0008014080B582B000AF0346D4
:100C7C000A46FB711346BB71FB7943F02003FB71F1
:100C8C0041F210010948FFF79AFFFB79184600F072
:100C9C008BFABB79184600F087FA41F21001034831
:100CAC00FFF77EFF00BF0837BD4680BD000801403E
:100CBC0080B582B000AF5023FB7141F210010C489B
:100CCC00FFF77DFFFB79184600F06EFA0120FFF765
:100CDC0095FF7323FB71FB79184600F065FA41F21E
:100CEC0010010348FFF75CFF00BF0837BD4680BD0D
:100CFC000008014090B585B000AF03463960FB7128
:100D0C001346BB7141F210011148FFF758FFFB79F4
:100D1C00184600F049FA0023FB730BE0FB7B3A68A2
:100D2C00D418FB79184600F05FFA03462370FB7B5E
:100D3C000133FB73FA7BBB799A42EFD341F210017A
:100D4C000348FFF72DFF00BF1437BD4690BD00BF11
:100D5C000008014080B584B000AF03463960FB71D8
:100D6C001346BB71FB7943F02003FB7141F2100178
:100D7C001148FFF724FFFB79184600F015FA012003
:100D8C00FFF73CFF0023FB7309E0FB7B3A6813443D
:100D9C001B78184600F008FAFB7B0133FB73FA7BD7
:100DAC00BB799A42F1D341F210010348FFF7F8FEE8
:100DBC0000BF1037BD4680BD0008014080B582B031
:100DCC0000AFE223FB7141F210010948FFF7F7FE77
:100DDC00FB79184600F0E8F90120FFF70FFF41F20C
:100DEC0010010348FFF7DCFE00BF0837BD4680BD8D
:100DFC000008014080B582B000AFE123FB7141F2E5
:100E0C0010010948FFF7DBFEFB79184600F0CCF91E
:100E1C000120FFF7F3FE41F210010348FFF7C0FE7B
:100E2C0000BF0837BD4680BD0008014080B582B0C8
:100E3C0000AF0023FB710020FFF7ECFE0346FB71B3
:100E4C00FB7943F00303FB71FB7919460020FFF794
:100E5C000BFF03220C491020FFF77CFF03220A49E9
:100E6C000A20FFF777FF40F608010848FFF798FEC5
:100E7C009620FFF7C3FEFFF7A1FFFFF7BBFF00BFF4
:100E8C000837BD4680BD00BF0400002000080140AB
:100E9C0080B500AF03220A491020FFF75BFF032245
:100EAC0007490A20FFF756FF40F608010548FFF7EF
:100EBC0086FEFFF783FFFFF79DFF00BF80BD00BFDD
:100ECC00000000200008014080B584B000AF03464C
:100EDC003960FB711346BB7140F608011648FFF7E9
:100EEC006EFE41F210011448FFF769FEFB791846BB
:100EFC0000F05AF90120FFF781FE0023FB7309E093
:100F0C00FB7B3A6813441B78184600F04DF9FB7BC9
:100F1C000133FB73FA7BBB799A42F1D341F2100196
:100F2C000548FFF73DFE40F608010348FFF738FE81
:100F3C0000BF1037BD4680BD0008014080B584B0AD
:100F4C0000AF7860FFF74AFE0023FB73FFF7A0FFAA
:100F5C000020FFF75FFE0346FB73FB7B43F00203AD
:100F6C00FB73FB7B23F00103FB73FB7B1946002017
:100F7C00FFF77AFE9620FFF741FE0B227968A0203E
:100F8C00FFF7A2FF40F608010848FFF709FE0F2003
:100F9C00FFF734FE40F608010448FFF710FEFFF798
:100FAC0025FE00BF1037BD4680BD00BF00080140C4
:100FBC0080B400AF00BFBD4680BC704780B500AFA9
:100FCC00FFF7F6FF40F608012348FFF7F8FD41F262
:100FDC008830FFF713FE0A210020FFF745FE41F28F
:100FEC008830FFF70BFE00210120FFF73DFE0121A9
:100FFC000220FFF739FE01210320FFF735FE002107
:10100C000420FFF731FEFFF753FE07211D20FFF7E9
:10101C002BFE00211C20FFF727FE70210720FFF775
:10102C0023FE10210520FFF71FFE06210620FFF7E7
:10103C001BFE032209491020FFF78CFE03220749EF
:10104C000B20FFF787FE0B211120FFF70DFEFFF79A
:10105C00EDFE00BF80BD00BF000801400000002075
:10106C0080B582B000AFFFF7B9FD0123FB710A20F8
:10107C00FFF7C4FD0720FFF7CDFD0346FB71FB799D
:10108C0003F04003002B0BD00B2216496120FFF715
:10109C0031FE40210720FFF7E7FD134B01221A70A8
:1010AC00FB7903F02003002B09D020210720FFF748
:1010BC00DBFDFFF7BBFE0D4B01221A700CE0FB7938
:1010CC0003F01003002B07D010210720FFF7CCFDF5
:1010DC00FFF790FEFFF7AAFEFFF788FD00BF083769
:1010EC00BD4680BD880100209F010020A00100208A
:1010FC0080B483B000AF78607B681B6843F040021B
:10110C007B681A6000BF0C37BD4680BC704780B44A
:10111C0083B000AF78607B689B6803F00103012B00
:10112C0001D1012300E0002318460C37BD4680BCDA
:10113C00704780B483B000AF78607B689B6803F025
:10114C000203022B01D1012300E0002318460C37C7
:10115C00BD4680BC704780B483B000AF78607B68BC
:10116C000C331B78DBB218460C37BD4680BC70477D
:10117C0080B485B000AF78600B46FB707B680C3395
:10118C00FB60FB68FA781A7000BF1437BD4680BC50
:10119C007047000080B500AF0248FFF7A9FF00BF01
:1011AC0080BD00BF0030014080B582B000AF034667
:1011BC00FB7100BF0B48FFF7BCFF0346002BF9D0B7
:1011CC00FB7919460748FFF7D3FF00BF0548FFF727
:1011DC009EFF0346002BF9D0024BDB6800BF08379B
:1011EC00BD4680BD0030014080B584B000AF0346E1
:1011FC00FB710023FB7300BF0D48FFF79AFF0346FA
:10120C00002BF9D0FB7919460948FFF7B1FF00BF55
:10121C000748FFF77CFF0346002BF9D00448FFF783
:10122C009AFF0346FB73FB7B18461037BD4680BD07
:10123C000030014080B483B000AF78607B68DB681D
:10124C0043F400527B68DA6000BF0C37BD4680BCAB
:10125C00704780B483B000AF78607B681B6803F084
:10126C008003802B0CBF01230023DBB218460C3704
:10127C00BD4680BC704780B483B000AF78600B462D
:10128C00FB70FA787B685A6000BF0C37BD4680BC97
:10129C007047000080B582B000AF78600348FFF75C
:1012AC00C9FF00BF0837BD4680BD00BF00380140F4
:1012BC0080B582B000AF0346FB7100BF0748FFF753
:1012CC00C8FF0346002BF9D0FB7919460348FFF7FA
:1012DC00D2FF00BF0837BD4680BD00BF00380140BB
:1012EC0080B584B000AF78600023FB6009E0FB6838
:1012FC007A6813441B781846FFF7DAFFFB68013352
:10130C00FB607868FEF71CFF0246FB689A42EED839
:10131C0000BF00BF1037BD4680BD000080B483B055
:10132C0000AF78600A4B1B680A4AA2FB03235B0DD3
:10133C007A6802FB03F37B6000BF7B685A1E7A60FD
:10134C00002BFAD100BF00BF0C37BD4680BC7047E4
:10135C00A40000206BCA5F6B80B584B002AF03465B
:10136C00FB71084AFB7913704FF47A7300930123D5
:10137C00044A4E21044802F04BFD00BF0837BD461D
:10138C0080BD00BFA40100203401002080B582B0D4
:10139C0000AF0346FB71FB791B01FB71144B1B78EF
:1013AC0043F00403DAB2124B1A70114B1B78184637
:1013BC00FFF7D2FF3220FFF7B1FF0D4B1A78FB7904
:1013CC001343DBB21846FFF7C7FF094B1B7823F01A
:1013DC000403DAB2064B1A70054B1B781846FFF75C
:1013EC00BBFF3220FFF79AFF00BF0837BD4680BD18
:1013FC00A501002080B584B000AF03460A46FB71FE
:10140C001346BB71BB79002B0CD1154B1B7823F009
:10141C000103DAB2124B1A70114B1B781846FFF706
:10142C009BFF0BE00E4B1B7843F00103DAB20C4B25
:10143C001A700B4B1B781846FFF78EFF0023FB73BB
:10144C00FB791B09FB73FB7B1846FFF79FFFFB79AE
:10145C001846FFF79BFF00BF1037BD4680BD00BF8D
:10146C00A501002080B500AF00210120FFF7C2FFCD
:10147C00022002F0FDF800BF80BD80B582B000AF45
:10148C000346FB71FB7901211846FFF7B3FF00BF40
:10149C000837BD4680BD80B584B000AF78600023AE
:1014AC00FB730AE0FB7B7A6813441B780121184616
:1014BC00FFF7A0FFFB7B0133FB73FB7B7A681344C4
:1014CC001B78002BEED100BF00BF1037BD4680BD8E
:1014DC0080B582B000AF03460A46FB711346BB7160
:1014EC00BB79032B46D801A252F823F0091500084A
:1014FC00211500084115000861150008FB7963F0FF
:10150C007F03DBB200211846FFF774FF012002F0C5
:10151C00AFF82FE0FB794033DBB25BB263F07F03B3
:10152C005BB2DBB200211846FFF764FF012002F02A
:10153C009FF81FE0FB791433DBB25BB263F07F03DF
:10154C005BB2DBB200211846FFF754FF012002F01A
:10155C008FF80FE0FB795433DBB25BB263F07F039F
:10156C005BB2DBB200211846FFF744FF012002F00A
:10157C007FF800BF00BF0837BD4680BD80B500AF07
:10158C000F2002F075F80320FFF700FF042002F093
:10159C006FF80320FFF7FAFE6420FFF7BFFE03206D
:1015AC00FFF7F4FE012002F063F80220FFF7EEFED5
:1015BC00012002F05DF800212820FFF71BFF01201D
:1015CC0002F056F800210C20FFF714FF012002F066
:1015DC004FF800210120FFF70DFF022002F048F820
:1015EC0000210620FFF706FF012002F041F80D4B09
:1015FC001B7843F00803DAB20A4B1A70094B1B78BC
:10160C001846FFF7A9FE074B1B7823F00203DAB24A
:10161C00044B1A70034B1B781846FFF79DFE00BF56
:10162C0080BD00BFA501002080B483B000AF7860FE
:10163C007B684AF6AA221A6000BF0C37BD4680BCF4
:10164C007047000080B400AF044B1B68034A43F49E
:10165C008033136000BFBD4680BC70470010024051
:10166C0080B400AF064B1B6803F40033B3F5003FA6
:10167C000CBF01230023DBB21846BD4680BC70476B
:10168C000010024080B400AF044B5B6A034A43F085
:10169C000103536200BFBD4680BC7047001002407E
:1016AC0080B400AF064B5B6A03F00203022B0CBF45
:1016BC0001230023DBB21846BD4680BC704700BF37
:1016CC000010024080B483B000AF7860064B5B68BA
:1016DC0023F0030204497B6813434B6000BF0C37B3
:1016EC00BD4680BC704700BF0010024080B400AF04
:1016FC00034B5B6803F00C031846BD4680BC704777
:10170C000010024080B483B000AF7860064B5B6879
:10171C0023F0F00204497B6813434B6000BF0C3785
:10172C00BD4680BC704700BF0010024080B483B03F
:10173C0000AF7860064B5B6823F4E06204497B6879
:10174C0013434B6000BF0C37BD4680BC704700BFD5
:10175C000010024080B483B000AF7860064B5B6829
:10176C0023F4605204497B6813434B6000BF0C3771
:10177C00BD4680BC704700BF0010024080B400AF73
:10178C00044B1B68034A43F08073136000BFBD46D3
:10179C0080BC70470010024080B400AF064B1B6841
:1017AC0003F00073B3F1007F0CBF01230023DBB205
:1017BC001846BD4680BC70470010024080B483B010
:1017CC0000AF78603960084B5B6823F47C127B684F
:1017DC0003F440313B680B43034913434B6000BF98
:1017EC000C37BD4680BC70470010024080B483B0FB
:1017FC0000AF7860064B1B6823F0070204497B6836
:10180C0013430B6000BF0C37BD4680BC704700BF54
:10181C000020024080B400AF034B1B6803F00703A9
:10182C001846BD4680BC70470020024080B483B08F
:10183C0000AF78607B681B6843F001027B681A601C
:10184C0000BF0C37BD4680BC704780B483B000AF7E
:10185C0078607B686FF001021A6100BF0C37BD46DF
:10186C0080BC704780B483B000AF78607B681B6924
:10187C0003F00103012B01D1012300E000231846E2
:10188C000C37BD4680BC704780B483B000AF786025
:10189C007B68DB6843F001027B68DA6000BF0C37C1
:1018AC00BD4680BC704780B489B000AF78607B685F
:1018BC000C33FB60FB6853E8003FBB60BB6843F034
:1018CC002003FB617B680C33FA69BA617B6179692F
:1018DC00BA6941E800233B613B69002BE7D100BFAB
:1018EC0000BF2437BD4680BC704780B483B000AFC6
:1018FC00786039607B689B68DA433B681B0A13404D
:10190C009BB2002B0CBF01230023DBB218460C3713
:10191C00BD4680BC7047000080B483B000AF304B34
:10192C0000221A702E4B00225A702D4B00229A70F6
:10193C002B4B0022DA702A4B00221A71294B002201
:10194C001A60284B00225A60264B00229A60254BC5
:10195C0000221A74234B01229A740023FB7136E087
:10196C00FB79214A1B011344FA791A70FA79FB7935
:10197C001E49895C1C4A1B01134401330A461A7028
:10198C00FB79194A1B01134404334FF0FF321A60E0
:10199C00FB79154A1B0113440E3301221A70FB7993
:1019AC00114A1B0113440C3300221A70FB790E4AA6
:1019BC001B0113440D3300221A70FB790A4A1B01D8
:1019CC001344023300221A70FB790133FB71FB794B
:1019DC00132BC5D900BF00BF0C37BD4680BC704768
:1019EC00E8010020F0010020040200201C0000206F
:1019FC0080B487B000AF78600B46FB700023FB828D
:101A0C0041F221033B820023FB7438E0FB8A1B0A62
:101A1C00FB81FB7C7A6813441B78DBB21A46FB898A
:101A2C005340FB81FB89BB82B7F914301B02BB828C
:101A3C000023BB7414E0B7F91430002B09DAB7F9A2
:101A4C0014305B00BB82B7F91020BB8A5340BB82B9
:101A5C0003E0B7F914305B00BB82BB7C0133BB7471
:101A6C00BB7C072BE7D9FB8A1B02FB82B7F916203C
:101A7C00BB8A53401BB2FB82FB7C0133FB74FA7CA8
:101A8C00FB789A42C2D3FB8A18461C37BD4680BCF1
:101A9C007047000080B584B000AF304B1B78DBB2D0
:101AAC00002B57D009212E48FFF7A2FF0346BB811C
:101ABC002B4B9B7A1A462A4B5B7A1B029BB2134424
:101ACC007B81BA897B899A4241D10023FB7339E02F
:101ADC00234B1A78FB7B2349CB5C9A422FD1204BAA
:101AEC005A79214B1A701E4B9A791F4B5A701C4B0A
:101AFC00DA791D4B9A701A4B1A7A1B4BDA70FB7BF6
:101B0C00194A126819491B010B4408331A60184B07
:101B1C001B68B3F1FF3F19D0154B1B687B60FB7B37
:101B2C00124A1B01134402331B78002B0ED1FB7B92
:101B3C000E4A1B01134404337A681A6006E0FB7BDF
:101B4C000133FB73FB7B132BC2D900E000BF034BAB
:101B5C0000221A7000BF1037BD4680BD9F010020C7
:101B6C00880100201C0000204403002004020020F7
:101B7C008901002080B500AFFFF774FC0021002024
:101B8C00FFF7A6FC0C48FFF786FC01210020FFF7AD
:101B9C009FFC0A48FFF77FFC02210020FFF798FC0E
:101BAC000748FFF778FC03210020FFF791FC05485C
:101BBC00FFF771FC00BF80BD440000205C000020DA
:101BCC00740000208C00002080B500AFFFF7D6FC1D
:101BDC0000BF80BDB0B58AB004AF334B1B883B82CD
:101BEC000023BB74304B1B88BB810023BB732F4A73
:101BFC0007F108031268114619800233120C1A708F
:101C0C002B4A3B1D1268114619800233120C1A70B4
:101C1C000023FB7507F11003032219460B20FFF775
:101C2C0069F807F10C03032219461020FFF762F83C
:101C3C003B7B1C467B7B1D46BB7B3A7C797CB87C12
:101C4C0003900291019200932B46224619491A489F
:101C5C0003F0F8FB0023BB751EE0BB7D18333B443F
:101C6C0013F8102CBB7D18333B4413F8083C9A42F4
:101C7C0001D0FF23FB75BB7D18333B4413F8142CA8
:101C8C00BB7D18333B4413F80C3C9A4201D0FF2324
:101C9C00FB75BB7D0133BB75BB7D022BDDD9FB7D99
:101CAC0018461837BD46B0BDBC640008C0640008B7
:101CBC00C464000878640008A801002080B582B0D4
:101CCC0000AF0346FB71012301221C491C4803F0A1
:101CDC00B9FB00210020FFF7FBFB1A48FFF7DBFBE9
:101CEC0001210020FFF7F4FB1548FFF7D4FB164841
:101CFC00FFF79AFCFFF76EFF0346FB71FB79002B95
:101D0C000DD11023114A12490D4803F09BFB0221FF
:101D1C000020FFF7DDFB0A48FFF7BDFB09E0FB796C
:101D2C00FF2B06D102210020FFF7D2FB0948FFF759
:101D3C00B2FB00BF0837BD4680BD00BFC8640008B9
:101D4C00A8010020D464000800300040E4640008BE
:101D5C00F0640008FC64000880B485B000AF7860C3
:101D6C000023FB7333E00023BB7327E0BB7B9B009A
:101D7C007A6813441A68BB7B01339B0079680B4467
:101D8C001B689A4217D9BB7B9B007A6813441B686B
:101D9C00BB60BB7B01339B007A681A44BB7B9B0006
:101DAC0079680B4412681A60BB7B01339B007A681C
:101DBC001344BA681A60BB7B0133BB73BA7BFB7BE1
:101DCC00C3F113039A42D1DBFB7B0133FB73FB7B27
:101DDC00122BC8D900BF00BF1437BD4680BC70475A
:101DEC0080B400AF074B1B68064A43F08073136046
:101DFC00054B1B68044A43F00103136000BFBD464A
:101E0C0080BC7047FCED00E0001000E080B485B0B1
:101E1C0000AF78600C4B1B680C4AA2FB03239A0C96
:101E2C007B6802FB03F3FB60094B00225A6000BF86
:101E3C00074B5B68FA689A42FAD800BF00BF1437A8
:101E4C00BD4680BC704700BFA400002083DE1B434E
:101E5C00001000E080B582B000AF0D4BFF221A706D
:101E6C0009210B48FFF7C4FD0346FB80FB881B0AC6
:101E7C009BB2DAB2064B5A72FB88DAB2044B9A72F6
:101E8C000348FFF75BF800BF0837BD4680BD00BFB5
:101E9C009401002080B588B000AF78600023BB7738
:101EAC0012E0BB7F7A6813441B78FF2B09D0BB7FF1
:101EBC007A6813441A78BB7F79680B440132D2B22A
:101ECC001A70BB7F0133BB77BB7F132BE9D900237F
:101EDC007B773DE003F0B6F902462E4B83FB0213F1
:101EEC00D910D317C91A0B469B000B449B00D11A6F
:101EFC000B46FB770FE003F0A5F90246254B83FB5D
:101F0C000213D910D317C91A0B469B000B449B0024
:101F1C00D11A0B46FB77FB7F7A6813441B78002B96
:101F2C00E9D0FB7F7A6813441B78002B0DD0FB7F24
:101F3C007A681A447B7F127820333B4403F8182CC0
:101F4C00FB7F7A68134400221A707B7F01337B7706
:101F5C007B7F132BBED900233B7713E03B7F7A6842
:101F6C0013441B78FF2B0AD03B7F20333B4413F8E0
:101F7C00182C3B7F79680B44013AD2B21A703B7F24
:101F8C0001333B773B7F132BE8D900BF00BF2037D1
:101F9C00BD4680BD6766666680B500AFFFF75AFF29
:101FAC00084B00221A70FFF75DFAFFF7E3FD0648B5
:101FBC00FFF770FFFFF7B0FC052003F05BF800BFE4
:101FCC0080BD00BF9F0100203000002080B500AF15
:101FDC00254B5B7CDBB20133DAB2234B5A74224BB8
:101FEC005B7CDBB2042B02D91F4B00225A741E4BB4
:101FFC005B7CDBB2042B35D801A252F823F000BF76
:10200C002120000831200008412000085120000840
:10201C006120000802210C20FFF75AFA1348FFF741
:10202C003AFA1FE002210C20FFF752FA1048FFF792
:10203C0032FA17E002210C20FFF74AFA0D48FFF79D
:10204C002AFA0FE002210C20FFF742FA0A48FFF7A8
:10205C0022FA07E002210C20FFF73AFA0748FFF7B3
:10206C001AFA00BF00BF80BDF0010020086500080F
:10207C0014650008206500082C6500083865000808
:10208C0080B500AF194B01221A71194B00221A604E
:10209C0002210020FFF71CFA1648FFF7FCF9144B3D
:1020AC001B68DBB2144AA2FB03235B09DBB21846A4
:1020BC000F4B1B68DAB2104BA3FB021359090B46EA
:1020CC001B015B1A9B00D31ADBB202460B490C486E
:1020DC0003F0B8F902210020FFF7FAF90848FFF7DE
:1020EC00DAF90520FEF714F900BF80BDE8010020E5
:1020FC00F00100207400002089888888446500085D
:10210C00A801002080B59CB000AF00237B6007F1D4
:10211C00080300221A605A609A60DA60002387F87C
:10212C006F30002387F86E3012E097F86E2097F826
:10213C006E309B4912010A44043212689B007033C2
:10214C003B4443F8582C97F86E30013387F86E30C7
:10215C0097F86E30132BE8D907F118031846FFF7E0
:10216C00FBFD002387F86D3052E0002387F86C30BC
:10217C0045E097F86C308B4AD35C894A1B011344B9
:10218C0004331A6897F86D309B0070333B4453F856
:10219C00583C9A422ED197F86C30824AD35C804AD4
:1021AC001B01134404331B68B3F1FF3F22D097F893
:1021BC006C307C4AD35C70333B4413F86C3C002B82
:1021CC0018D197F86F30013387F86F3097F86C306F
:1021DC00744AD35C724A1B0113440D3397F86F2079
:1021EC001A7097F86C306F4AD35C70333B44012201
:1021FC0003F86C2C97F86C30013387F86C3097F837
:10220C006C30132BB5D997F86D30013387F86D30DE
:10221C0097F86D30132BA8D9002387F86B302DE07D
:10222C0097F86B305E4A1B0113440D331A785E4BE2
:10223C009B7CDBB29A421CD197F86B30584A1B013D
:10224C00134404331B68B3F1FF3F12D097F86B3083
:10225C00564AD35C1A465649564803F0F3F855488B
:10226C00FFF73EF8504B9B7CDBB20133DAB24E4B9E
:10227C009A7497F86B30013387F86B3097F86B30A2
:10228C00132BCDD9002387F86A307EE097F86A309B
:10229C00434A1B0113440D331B78002B70D097F865
:1022AC006A303F4A1B0113440D331B78012B08D1B4
:1022BC0097F86A303A4A1B0113440C3302221A7005
:1022CC0007E097F86A30364A1B0113440C3301229D
:1022DC001A7097F86A30324A1B0113441B7801219B
:1022EC001846FFF7F5F897F86A302D4A1B0113448E
:1022FC000D331B78013B2D4AD35C1846FFF7BDF814
:10230C0097F86A30264A1B01134402331B78002BC2
:10231C0036D197F86A30224A1B011344023301224A
:10232C001A70254B1B79DBB2002B03D00220FDF772
:10233C00EFFF25E01C4B5B7CDBB2042B20D801A209
:10234C0052F823F0652300086D230008752300085C
:10235C007D230008852300080120FDF7D9FF0FE03D
:10236C000220FDF7D5FF0BE00320FDF7D1FF07E0BE
:10237C000420FDF7CDFF03E00620FDF7C9FF00BFE9
:10238C0097F86A30013387F86A3097F86A30132B64
:10239C007FF67CAF00BF00BF7037BD4680BD00BF6D
:1023AC000402002030000020F00100200800002072
:1023BC0050650008A8010020E801002080B582B01B
:1023CC0000AF0023FB7137E0FB79244A1B01134457
:1023DC000D331B78012B16D1FB79204A1B011344BA
:1023EC000D3300221A70FB791C4A1B011344043371
:1023FC004FF0FF321A60FB79184A1B0113440C335F
:10240C0000221A7015E0FB79144A1B0113440D339A
:10241C001B78012B0DD9FB7910491A010A440D3296
:10242C001278013AD1B20D4A1B0113440D330A46FE
:10243C001A70FB790133FB71FB79132BC4D9012181
:10244C000020FFF745F80648FFF725F8642002F056
:10245C0011FE00BF0837BD4680BD00BF040200203E
:10246C005C00002080B582B000AF0023FB7101F04E
:10247C009DF800F001F9FEF76DF900F0E3F900F0BA
:10248C00AFFF00F04DFEFEF7A7FA00F08DFE00F056
:10249C002DFA01F00DF8FEF763FBFFF7A1FCFEF738
:1024AC0079FEFEF78BFD6720FEF7F4FEFFF78CFB41
:1024BC00FB791846FFF702FC6548FFF7B5F8FDF706
:1024CC00A7FEFFF757FB6348FFF7DEF96148FFF7FC
:1024DC00ADF94FF08040FFF7D7F94FF08040FFF790
:1024EC00A5F95D48FFF7DFF9FFF716FAFFF7B2FC25
:1024FC000F20FDF77FFF594B1B78DBB2002B04D06C
:10250C00564B00221A70FFF747FD554B9A68544BF7
:10251C00DB68D31A012B40F29480514B9B68504AD4
:10252C00D3604F4B1B7CDBB24E4A1B01134401336F
:10253C001A784D4B1A704A4B1B7CDBB2494A1B0173
:10254C0013440E331A78484B5A70454B1B7CDBB244
:10255C00444A1B0113440C331A78434B9A700921DB
:10256C004148FFF745FA0346BB80BB881B0A9BB268
:10257C00DAB23D4B5A72BB88DAB23B4B9A723A488C
:10258C00FEF7DCFC364B1B7CDBB20133DAB2344B8E
:10259C001A74334B1B7CDBB2132B22D9304B002229
:1025AC001A742E4B5B78DBB2002B04D02B4B002221
:1025BC005A70FFF703FF294B9B78DBB2002B04D03A
:1025CC00264B00229A70FFF701FD244BDB78DBB21F
:1025DC00002B04D0214B0022DA70FFF751FDFFF7DE
:1025EC0091FD1E4B1B79DBB2002B2AD01C4B1A68B9
:1025FC001B4B5B689A4224D0194B1B681B4AA2FBED
:10260C0003235B09FB70164B1968184BA3FB0123C2
:10261C005A0913461B019B1A9B00CA1A1346BB701E
:10262C000F4B1B680E4A5360FA78BB78104911485F
:10263C0002F008FF02210020FEF74AFF0D48FEF7CA
:10264C002AFFFFF727FA0248FEF7EEFF53E700BF19
:10265C0000300040002C014000380140E80100200F
:10266C00F001002004020020940100208988888851
:10267C0044650008A801002080B500AF0220FFF7D8
:10268C00B5F800BFFFF7C6F80346022BFAD1FEF7E8
:10269C00D9FF00BFFEF7E4FF0346012BFAD1FEF78A
:1026AC00F1FF00BFFEF7FCFF0346012BFAD14FF4FC
:1026BC00E0114FF48030FFF781F8FFF75FF800BFAF
:1026CC00FFF76AF80346012BFAD10020FFF71AF83E
:1026DC004FF48060FFF72AF80020FFF73BF8022048
:1026EC00FEF7F0FF00BFFFF701F80346082BFAD105
:1026FC00064802F0E3FC0F2000F06EFF0346002BAF
:10270C0001D000F081F800BF80BD00BF00A24A04D8
:10271C0080B500AF41F210010548FFF7E6F803461B
:10272C00002B02D1034B01221A7000BF80BD00BFE9
:10273C00000C0140E801002080B500AF40F6080114
:10274C000548FFF7D2F80346002B02D1034B0122B8
:10275C005A7000BF80BD00BF000C0140E801002092
:10276C0080B500AF42F220010548FFF7BEF80346E2
:10277C00002B02D1034B01229A7000BF80BD00BF19
:10278C00000C0140E801002080B500AF0549064867
:10279C00FFF7ABF80346002B02D1044B0122DA7091
:1027AC0000BF80BD8000800400080140E8010020CB
:1027BC0080B500AF0748FFF755F80346002B07D04C
:1027CC000448FFF742F8044B1B680133024A1360BC
:1027DC0000BF80BD002C0140F001002080B500AF8F
:1027EC004FF08040FFF73EF80346002B08D04FF027
:1027FC008040FFF72AF8034B9B680133014A936032
:10280C0000BF80BDF001002080B400AF72B600BFE5
:10281C0000BFFDE780B485B000AF7860084B9A69C3
:10282C0007497B6813438B61054B9A697B6813409E
:10283C00FB60FB6800BF1437BD4680BC704700BF0F
:10284C000010024080B590B000AF07F118032822A9
:10285C000021184602F059FE3B1D00221A605A60F6
:10286C009A60DA601A614FF48050FFF7D3FF0420AE
:10287C00FFF7D0FF4AF2A0037B600923BB60032360
:10288C00FB6000233B613B1D1946164802F081F8A2
:10289C0044F240037B600423BB603B1D1946114886
:1028AC0002F077F80023BB614FF48273FB610023C5
:1028BC003B6200237B620023BB624FF40073FB621C
:1028CC0020233B6300237B630023BB630A23FB634E
:1028DC0007F118031946044802F0F5F900BF403718
:1028EC00BD4680BD000801400030014080B500AFFE
:1028FC00184B194A1A60174B4FF482725A60154BD9
:10290C004FF400429A60134B0022DA60114B002204
:10291C001A61104B00225A610E4B4FF400729A61EF
:10292C000C4B0022DA610B4B00221A62094B00227D
:10293C005A62084B00229A62064B0A22DA62054858
:10294C0001F0DCFD0346002B01D0FFF75DFF00BF5B
:10295C0080BD00BF480300200038004080B588B01F
:10296C0000AF786007F1100300221A605A609A6079
:10297C00DA607B681B68164A934224D1154BDB69DD
:10298C00144A43F48043D361124BDB6903F4804354
:10299C00FB60FB680F4B9B690E4A43F00803936185
:1029AC000C4B9B6903F00803BB60BB684FF42043DE
:1029BC003B6102237B610323FB6107F11003194682
:1029CC00054800F05DFF00BF2037BD4680BD00BF4D
:1029DC000038004000100240000C014080B485B06B
:1029EC0000AF154B9B69144A43F001039361124BE2
:1029FC009B6903F00103BB60BB680F4BDB690E4A9C
:102A0C0043F08053D3610C4BDB6903F080537B6044
:102A1C007B680A4B5B68FB60FB6823F0E063FB6040
:102A2C00FB6843F00073FB60044AFB68536000BF13
:102A3C001437BD4680BC70470010024000000140B6
:102A4C0080B483B000AF7860074B5A697B68134041
:102A5C007A689A420CBF01230023DBB218460C376C
:102A6C00BD4680BC704700BF0004014080B483B0F9
:102A7C0000AF7860034A7B68536100BF0C37BD46DA
:102A8C0080BC70470004014080B483B000AF786014
:102A9C007B681B6803F00203022B0CBF012300238D
:102AAC00DBB218460C37BD4680BC704780B483B08F
:102ABC0000AF78607B681B6803F00403042B0CBF29
:102ACC0001230023DBB218460C37BD4680BC70478F
:102ADC0080B483B000AF78607B681B6803F0080398
:102AEC00082B0CBF01230023DBB218460C37BD4664
:102AFC0080BC704780B483B000AF78607B681B6883
:102B0C0003F02003202B0CBF01230023DBB218465B
:102B1C000C37BD4680BC704780B485B000AF786080
:102B2C007B681B68FB60FB687B685B68FB60FB6811
:102B3C0000BF1437BD4680BC704780B485B000AF71
:102B4C0078607B681B68FB60FB687B685B68FB607C
:102B5C00FB6800BF1437BD4680BC704780B485B09D
:102B6C0000AF78607B681B68FB60FB687B685B6808
:102B7C00FB60FB6800BF1437BD4680BC704780B457
:102B8C0083B000AF78607B68DB6803F02003202BF8
:102B9C000CBF01230023DBB218460C37BD4680BCAA
:102BAC00704780B483B000AF78607B685B68DBB241
:102BBC0018460C37BD4680BC704780B400AF00BFD0
:102BCC00FDE780B400AF00BFFDE780B400AF00BFED
:102BDC00FDE780B400AF00BFFDE780B400AF00BFDD
:102BEC00FDE780B400AF00BFBD4680BC704780B429
:102BFC0000AF00BFBD4680BC704780B400AF00BFC3
:102C0C00BD4680BC704780B500AF00F015FD00BF1D
:102C1C0080BD80B500AF0420FFF712FF0346002BE8
:102C2C0004D00420FFF722FFFEF71AFA00BF80BD84
:102C3C0080B500AF0820FFF703FF0346002B04D03C
:102C4C000820FFF713FFFFF777FD00BF80BD80B5AD
:102C5C0000AF1020FFF7F4FE0346002B04D0102029
:102C6C00FFF704FFFFF754FD00BF80BD80B500AF38
:102C7C002020FFF7E5FE0346002B04D02020FFF7B1
:102C8C00F5FEFFF76DFD00BF80BD80B500AFFFF70F
:102C9C008FFD00BF80BD80B500AFFFF79FFD00BF6B
:102CAC0080BD000080B582B000AF2948FFF722FF3D
:102CBC000346002B2AD02648FFF761FF0346002B62
:102CCC0024D072B600BF2248FFF76BFF0346FB719E
:102CDC00204B1B78002B10D0FB79312B03D11E4BD2
:102CEC0001221A7005E0FB79322B02D11A4B01221A
:102CFC005A70184B00221A7005E0FB79312B02D167
:102D0C00144B01221A7062B600BF1CE01048FFF78A
:102D1C00DFFE0346002B03D00D48FFF71FFF13E027
:102D2C000B48FFF7B1FE0346002B03D00848FFF712
:102D3C00F3FE09E00648FFF7B9FE0346002B03D06B
:102D4C000348FFF7FAFE00BF00BF0837BD4680BD41
:102D5C0000380140A0030020E801002080B500AF3E
:102D6C004FF40040FFF76CFE0346002B05D04FF4E8
:102D7C000040FFF77BFEFFF707FD00BF80BD80B46E
:102D8C0000AF01231846BD4680BC704780B582B0A9
:102D9C0000AF7860396002F017FC034616221A6007
:102DAC004FF0FF3318460837BD4680BD80B582B062
:102DBC0000AF78604FF0FF317868FFF7E7FF00BF96
:102DCC00FDE780B586B000AFF860B9607A6000238B
:102DDC007B610AE0AFF300800146BB685A1CBA6005
:102DEC00CAB21A707B6901337B617A697B689A423B
:102DFC00F0DB7B6818461837BD4680BD80B586B0C1
:102E0C0000AFF860B9607A6000237B6109E0BB68B1
:102E1C005A1CBA601B781846AFF300807B690133EB
:102E2C007B617A697B689A42F1DB7B6818461837BC
:102E3C00BD4680BD80B483B000AF78604FF0FF33E7
:102E4C0018460C37BD4680BC704780B483B000AFC9
:102E5C00786039603B684FF400525A600023184682
:102E6C000C37BD4680BC704780B483B000AF78602F
:102E7C00012318460C37BD4680BC704780B485B022
:102E8C0000AFF860B9607A60002318461437BD466D
:102E9C0080BC704780B586B000AF7860144A154B83
:102EAC00D31A7B617B693B61134B1B68002B02D1EE
:102EBC00114B124A1A60104B1A687B6813443A691A
:102ECC009A4207D202F080FB03460C221A604FF0A4
:102EDC00FF3309E0084B1B68FB60074B1A687B68E3
:102EEC001344054A1360FB6818461837BD4680BD6D
:102EFC000050002000040000A4030020F80400206F
:102F0C0080B400AF00BFBD4680BC704780B400AF3A
:102F1C00044BDB681B0A03F007031846BD4680BC54
:102F2C00704700BF00ED00E080B483B000AF0346F3
:102F3C00FB7197F90730002B0BDBFB7903F01F02B9
:102F4C00064997F907305B09012000FA02F241F8B3
:102F5C00232000BF0C37BD4680BC704700E100E069
:102F6C0080B483B000AF03463960FB7197F907302A
:102F7C00002B0ADB3B68DAB20C4997F907301201D7
:102F8C00D2B20B4483F800230AE03B68DAB208495A
:102F9C00FB7903F00F03043B1201D2B20B441A76F7
:102FAC0000BF0C37BD4680BC704700BF00E100E09D
:102FBC0000ED00E080B489B000AFF860B9607A60D1
:102FCC00FB6803F00703FB61FB69C3F10703042BE8
:102FDC0028BF0423BB61FB690433062B02D9FB69B0
:102FEC00033B00E000237B614FF0FF32BB6902FA28
:102FFC0003F3DA43BB681A407B699A404FF0FF3108
:10300C007B6901FA03F3D9437B680B4013431846E1
:10301C002437BD4680BC704780B485B000AF786063
:10302C00084BDA6907497B681343CB61054BDA69B6
:10303C007B681340FB60FB6800BF1437BD4680BC47
:10304C00704700BF0010024080B485B000AF7860BC
:10305C00084B9A6907497B6813438B61054B9A6946
:10306C007B681340FB60FB6800BF1437BD4680BC17
:10307C00704700BF0010024080B483B000AF78608E
:10308C007B681B6843F080027B681A6000BF0C37BA
:10309C00BD4680BC704780B483B000AF78607B685D
:1030AC001B6823F080027B681A6000BF0C37BD469A
:1030BC0080BC704780B483B000AF786039607B68A7
:1030CC009B6823F4804323F007033A681A437B6818
:1030DC009A6000BF0C37BD4680BC704780B483B08B
:1030EC0000AF786039607B685B6823F070023B68E6
:1030FC001A437B685A6000BF0C37BD4680BC7047D2
:10310C0080B483B000AF78607B689B6823F080024A
:10311C007B689A6000BF0C37BD4680BC70470000CE
:10312C0080B586B000AF3B1D00221A605A609A60D1
:10313C00DA601A614FF40060FFF786FFFFF7E6FED6
:10314C000346002201211846FFF734FF03461946B7
:10315C001920FFF705FF1920FFF7E6FE42F2107366
:10316C00BB800023BB6041F61F43FB6000233B6127
:10317C0000237B613B1D19460A4801F027FE0948D4
:10318C00FFF77AFF00210748FFF794FF002105485D
:10319C00FFF7A4FF0348FFF7B3FF00BF1837BD4686
:1031AC0080BD00BF002C014080B586B000AF3B1D38
:1031BC0000221A605A609A60DA601A610120FFF7E7
:1031CC002BFFFFF7A3FE0346002201211846FFF751
:1031DC00F1FE034619461C20FFF7C2FE1C20FFF728
:1031EC00A3FE0A23BB800023BB6041F68B13FB605C
:1031FC0000233B613B1D19464FF0804001F0E6FD7A
:10320C004FF08040FFF747FF00214FF08040FFF761
:10321C0051FF00214FF08040FFF760FF4FF08040DE
:10322C00FFF76EFF00BF1837BD4680BD80B400AFFE
:10323C00044BDB681B0A03F007031846BD4680BC31
:10324C00704700BF00ED00E080B483B000AF0346D0
:10325C00FB7197F90730002B0BDBFB7903F01F0296
:10326C00064997F907305B09012000FA02F241F890
:10327C00232000BF0C37BD4680BC704700E100E046
:10328C0080B483B000AF03463960FB7197F9073007
:10329C00002B0ADB3B68DAB20C4997F907301201B4
:1032AC00D2B20B4483F800230AE03B68DAB2084937
:1032BC00FB7903F00F03043B1201D2B20B441A76D4
:1032CC0000BF0C37BD4680BC704700BF00E100E07A
:1032DC0000ED00E080B489B000AFF860B9607A60AE
:1032EC00FB6803F00703FB61FB69C3F10703042BC5
:1032FC0028BF0423BB61FB690433062B02D9FB698D
:10330C00033B00E000237B614FF0FF32BB6902FA04
:10331C0003F3DA43BB681A407B699A404FF0FF31E4
:10332C007B6901FA03F3D9437B680B4013431846BE
:10333C002437BD4680BC704780B485B000AF786040
:10334C00084BDA6907497B681343CB61054BDA6993
:10335C007B681340FB60FB6800BF1437BD4680BC24
:10336C00704700BF0010024080B485B000AF786099
:10337C00084B9A6907497B6813438B61054B9A6923
:10338C007B681340FB60FB6800BF1437BD4680BCF4
:10339C00704700BF0010024080B483B000AF78606B
:1033AC007B68DB6843F400527B68DA6000BF0C3743
:1033BC00BD4680BC704780B483B000AF78607B683A
:1033CC001B6923F490427B681A617B685B6923F06C
:1033DC002A027B685A6100BF0C37BD4680BC70471F
:1033EC0080B58CB000AF07F1140300221A605A604C
:1033FC009A60DA601A615A619A613B4600221A603F
:10340C005A609A60DA601A614FF48040FFF7ACFFA3
:10341C000420FFF7A9FF224B3B6009237B600323A9
:10342C00BB600023FB603B4619461E4801F0B1FA15
:10343C001D4B3B6004237B603B461946194801F049
:10344C00A8FAFFF7F3FE0346002201211846FFF706
:10345C0041FF034619462520FFF712FF2520FFF7F1
:10346C00F3FE4FF416537B610023BB610023FB6119
:10347C0000233B620C237B620023BB620023FB62B4
:10348C0007F114031946094801F094FD0748FFF7AA
:10349C0092FF0648FFF780FF00BF3037BD4680BD66
:1034AC00020002040008014004000404003801403A
:1034BC0080B58CB000AF07F1140300221A605A607B
:1034CC009A60DA601A615A619A613B4600221A606E
:1034DC005A609A60DA601A614FF48020FFF72CFF73
:1034EC000820FFF741FF1A4B3B6009237B60032345
:1034FC00BB600023FB603B461946164801F049FAB5
:10350C00154B3B6004237B603B461946114801F088
:10351C0040FA4FF416537B610023BB610023FB611F
:10352C0000233B620C237B620023BB620023FB6203
:10353C0007F114031946094801F03CFD0748FFF751
:10354C003AFF0648FFF728FF00BF3037BD4680BD65
:10355C0004000404000C014008000804004800406A
:10356C00FFF7CEFC0B480C490C4A002302E0D45860
:10357C00C4500433C4188C42F9D3094A094C0023B3
:10358C0001E013600432A242FBD302F023F8FEF7F1
:10359C0069FF7047000000200C0100205C660008E9
:1035AC000C010020F8040020FEE7000080B500AFFD
:1035BC00084B1B68074A43F010031360032000F00C
:1035CC002BF90F2000F008F8FFF708FA0023184633
:1035DC0080BD00BF0020024080B582B000AF786093
:1035EC00124B1A68124B1B7819464FF47A73B3FBC3
:1035FC00F1F3B2FBF3F3184600F035F90346002B58
:10360C0001D001230EE07B680F2B0AD800227968C9
:10361C004FF0FF3000F00BF9064A7B681360002373
:10362C0000E0012318460837BD4680BDA4000020E9
:10363C00AC000020A800002080B400AF054B1B7824
:10364C001A46054B1B681344034A136000BFBD4662
:10365C0080BC7047AC000020A803002080B400AFF1
:10366C00024B1B681846BD4680BC7047A80300205F
:10367C0080B584B000AF7860FFF7F0FFB8607B686E
:10368C00FB60FB68B3F1FF3F05D00A4B1B781A4671
:10369C00FB681344FB6000BFFFF7E0FF0246BB680A
:1036AC00D31AFA689A42F7D800BF00BF1037BD464C
:1036BC0080BD00BFAC00002080B485B000AF786046
:1036CC007B6803F00703FB600C4BDB68BB60BA68DC
:1036DC004FF6FF031340BB60FB681A02BB68134331
:1036EC0043F0BF6343F40033BB60044ABB68D36050
:1036FC0000BF1437BD4680BC704700BF00ED00E032
:10370C0080B400AF044BDB681B0A03F007031846B8
:10371C00BD4680BC704700BF00ED00E080B483B0B4
:10372C0000AF03463960FB7197F90730002B0ADBB9
:10373C003B68DAB20C4997F907301201D2B20B444C
:10374C0083F800230AE03B68DAB20849FB7903F0FE
:10375C000F03043B1201D2B20B441A7600BF0C3794
:10376C00BD4680BC704700BF00E100E000ED00E00A
:10377C0080B489B000AFF860B9607A60FB6803F080
:10378C000703FB61FB69C3F10703042B28BF042368
:10379C00BB61FB690433062B02D9FB69033B00E0D8
:1037AC0000237B614FF0FF32BB6902FA03F3DA436B
:1037BC00BB681A407B699A404FF0FF317B6901FA74
:1037CC0003F3D9437B680B40134318462437BD469B
:1037DC0080BC704780B582B000AF78607B68013BDD
:1037EC00B3F1807F01D301230FE00A4A7B68013BD0
:1037FC0053600F214FF0FF30FFF790FF054B002275
:10380C009A60044B07221A60002318460837BD46FD
:10381C0080BD00BF10E000E080B582B000AF7860E2
:10382C007868FFF749FF00BF0837BD4680BD80B5FB
:10383C0086B000AF0346B9607A60FB7300237B61EE
:10384C00FFF75EFF78617A68B9687869FFF790FFD7
:10385C00024697F90F3011461846FFF75FFF00BF7D
:10386C001837BD4680BD80B582B000AF78607868EF
:10387C00FFF7B0FF034618460837BD4680BD000071
:10388C0080B48BB000AF7860396000237B6200237A
:10389C003B6269E101227B6A02FA03F3FB613B683C
:1038AC001B68FA691340BB61BA69FB699A4240F024
:1038BC0058813B685B689A4A93425ED0984A93421F
:1038CC0075D8984A934258D0964A93426FD8964AE4
:1038DC00934252D0944A934269D8944A93424CD022
:1038EC00924A934263D8924A934246D0904A93426A
:1038FC005DD8122B2AD8122B59D801A252F823F0DA
:10390C00873900086139000873390008B539000897
:10391C00BB390008BB390008BB390008BB390008AB
:10392C00BB390008BB390008BB390008BB3900089B
:10393C00BB390008BB390008BB390008BB3900088B
:10394C00BB390008693900087D390008794A93426F
:10395C0013D02CE03B68DB683B6229E03B68DB68FA
:10396C0004333B6224E03B68DB6808333B621FE0B6
:10397C003B68DB680C333B621AE03B689B68002BAE
:10398C0002D104233B6213E03B689B68012B05D1F9
:10399C0008233B627B68FA691A6109E008233B62E1
:1039AC007B68FA695A6103E000233B6200E000BFC8
:1039BC00BB69FF2B01D87B6801E07B6804337B611A
:1039CC00BB69FF2B02D87B6A9B0002E07B6A083B39
:1039DC009B003B617B691A680F213B6901FA03F379
:1039EC00DB431A40396A3B6901FA03F31A437B69DA
:1039FC001A603B685B6803F08053002B00F0B180C9
:103A0C004D4B9B694C4A43F0010393614A4B9B69B4
:103A1C0003F00103BB60BB68484A7B6A9B08023316
:103A2C0052F82330FB607B6A03F003039B000F22E8
:103A3C0002FA03F3DB43FA681340FB607B68404AED
:103A4C00934213D07B683F4A93420DD07B683E4A29
:103A5C00934207D07B683D4A934201D1032306E091
:103A6C00042304E0022302E0012300E000237A6A2D
:103A7C0002F0030292009340FA681343FB602F4953
:103A8C007B6A9B080233FA6841F823203B685B6829
:103A9C0003F48013002B06D02D4B9A682C49BB697C
:103AAC0013438B6006E02A4B9A68BB69DB432849B9
:103ABC0013408B603B685B6803F40013002B06D04B
:103ACC00234BDA682249BB691343CB6006E0204BD9
:103ADC00DA68BB69DB431E491340CB603B685B680B
:103AEC0003F40033002B06D0194B5A681849BB69F4
:103AFC0013434B6006E0164B5A68BB69DB43144911
:103B0C0013404B603B685B6803F48033002B21D07F
:103B1C000F4B1A680E49BB6913430B6021E000BFC1
:103B2C0000003210000031100000221000002110A3
:103B3C0000001210000011100010024000000140A3
:103B4C0000080140000C014000100140001401402D
:103B5C00000401400B4B1A68BB69DB430949134055
:103B6C000B607B6A01337B623B681A687B6A22FAC2
:103B7C0003F3002B7FF48EAE00BF00BF2C37BD4685
:103B8C0080BC70470004014080B584B000AF786001
:103B9C007B68002B01D101232BE17B6893F83D302E
:103BAC00DBB2002B06D17B68002283F83C207868BE
:103BBC00FCF740FF7B68242283F83D207B681B6860
:103BCC001A687B681B6822F001021A607B681B680C
:103BDC001A687B681B6842F400421A607B681B6899
:103BEC001A687B681B6822F400421A6000F072FCB1
:103BFC00F8607B685B68814A934207D8FB68804A0F
:103C0C00934294BF01230023DBB206E0FB687D4A9C
:103C1C00934294BF01230023DBB2002B01D001237C
:103C2C00E7E0FB68784AA2FB03239B0CBB607B6834
:103C3C001B685B6823F03F017B681B68BA680A430A
:103C4C005A607B681B681B6A23F03F017B685B68CA
:103C5C006A4A934202D8BB68013309E0BB684FF44F
:103C6C00967202FB03F3694AA2FB03239B090133FF
:103C7C007A6812680B4313627B681B68DB6923F458
:103C8C004F4222F0FF027B685B685C498B4219D87B
:103C9C00FB68591E7B685B685B00B1FBF3F3591C36
:103CAC0040F6FC730B40002B0AD0FB68591E7B6856
:103CBC005B685B00B1FBF3F30133C3F30B0351E01F
:103CCC0004234FE07B689B68002B11D1FB68581EC6
:103CDC007B6859680B465B000B44B0FBF3F3013374
:103CEC00C3F30B03002B0CBF01230023DBB212E048
:103CFC00FB68581E7B6859680B469B000B44990067
:103D0C000B44B0FBF3F30133C3F30B03002B0CBFD9
:103D1C0001230023DBB2002B01D0012322E07B68BE
:103D2C009B68002B0ED1FB68581E7B6859680B46AC
:103D3C005B000B44B0FBF3F30133C3F30B0343F40D
:103D4C0000430FE0FB68581E7B6859680B469B00CC
:103D5C000B4499000B44B0FBF3F30133C3F30B0397
:103D6C0043F44043796809681343CB617B681B6853
:103D7C001B6823F0C0017B68DA697B681B6A1A43F5
:103D8C007B681B680A431A607B681B689B6823F47A
:103D9C00034323F0FF037A6811697A68D2681143F0
:103DAC007A6812680B4393607B681B68DB6823F0AE
:103DBC00FF017B685A697B689B691A437B681B68A7
:103DCC000A43DA607B681B681A687B681B6842F0E0
:103DDC0001021A607B6800221A647B68202283F837
:103DEC003D207B6800221A637B68002283F83E200A
:103DFC00002318461037BD4680BD00BFA0860100C9
:103E0C007F841E00FF083D0083DE1B43D34D6210F0
:103E1C0080B588B002AFF8607A601A460B467B8199
:103E2C0013463B81FFF71AFC7861FB6893F83D3031
:103E3C00DBB2202B40F0E0807B6900931923012238
:103E4C007049F86800F064F90346002B01D0022396
:103E5C00D3E0FB6893F83C30012B01D10223CCE07A
:103E6C00FB68012283F83C20FB681B681B6803F08D
:103E7C000103012B07D0FB681B681A68FB681B68E1
:103E8C0042F001021A60FB681B681A68FB681B6829
:103E9C0022F400621A60FB68212283F83D20FB6843
:103EAC00102283F83E20FB6800221A64FB687A68B3
:103EBC005A62FB683A895A85FB685B8D9AB2FB683B
:103ECC001A85FB68504ADA6279897B693A6AF86824
:103EDC0000F09CF80346002B01D001238DE0002359
:103EEC003B61FB681B685B693B61FB681B689B69FA
:103EFC003B613B6966E07A69396AF86800F022FA3E
:103F0C000346002B0DD0FB681B6C042B07D1FB6800
:103F1C001B681A68FB681B6842F400721A60012364
:103F2C006BE0FB685B6A1A78FB681B681A61FB68BC
:103F3C005B6A5A1CFB685A62FB685B8D9BB2013B47
:103F4C009AB2FB685A85FB681B8D013B9AB2FB68E1
:103F5C001A85FB681B685B6903F00403042B1BD1F7
:103F6C00FB681B8D002B17D0FB685B6A1A78FB680B
:103F7C001B681A61FB685B6A5A1CFB685A62FB6817
:103F8C005B8D9BB2013B9AB2FB685A85FB681B8D1B
:103F9C00013B9AB2FB681A857A69396AF86800F0B5
:103FAC0019FA0346002B0DD0FB681B6C042B07D1B0
:103FBC00FB681B681A68FB681B6842F400721A6085
:103FCC0001231AE0FB681B8D002B94D1FB681B6846
:103FDC001A68FB681B6842F400721A60FB682022A6
:103FEC0083F83D20FB68002283F83E20FB6800220A
:103FFC0083F83C20002300E0022318461837BD4606
:10400C0080BD00BF020010000000FFFF80B588B02B
:10401C0002AFF8607A603B600B467B81FB68DB6A21
:10402C007B617B69082B06D07B69012B03D07B69F4
:10403C0013F5803F08D1FB681B681A68FB681B6886
:10404C0042F480721A600BE0FB681B6B122B07D1D9
:10405C00FB681B681A68FB681B6842F480721A6064
:10406C003B6800937B6800224FF00111F86800F068
:10407C004FF80346002B0DD0FB681B681B6803F43C
:10408C008073B3F5807F03D1FB684FF400721A6420
:10409C00032335E0FB681B69B3F5804F08D17B899E
:1040AC00DBB21A46FB681B6802F0FE021A611BE0C9
:1040BC007B89DB11DBB203F00603DBB263F00F0389
:1040CC00DAB2FB681B681A613B687A680E49F868BB
:1040DC0000F098F80346002B01D0012310E07B89F7
:1040EC00DAB2FB681B681A613B687A680749F868A2
:1040FC0000F088F80346002B01D0012300E00023D8
:10410C0018461837BD4680BD0800010002000100AA
:10411C0080B584B000AFF860B9603B601346FB71AA
:10412C0048E03B68B3F1FF3F44D0FFF797FA0246F3
:10413C00BB69D31A3A689A4202D33B68002B39D137
:10414C00BB681B0CDBB2012B0DD1FB681B685B69D8
:10415C00DA43BB6813409BB2002B0CBF0123002336
:10416C00DBB21A460CE0FB681B689B69DA43BB6840
:10417C0013409BB2002B0CBF01230023DBB21A4669
:10418C00FB799A4216D1FB6800221A63FB68202245
:10419C0083F83D20FB68002283F83E20FB681B6CF3
:1041AC0043F02002FB681A64FB68002283F83C2071
:1041BC00012323E0BB681B0CDBB2012B0DD1FB6888
:1041CC001B685B69DA43BB6813409BB2002B0CBFC6
:1041DC0001230023DBB21A460CE0FB681B689B69C9
:1041EC00DA43BB6813409BB2002B0CBF01230023A6
:1041FC00DBB21A46FB799A4293D00023184610374B
:10420C00BD4680BD80B584B000AFF860B9607A60FF
:10421C003B6071E0FB681B685B6903F48063B3F57A
:10422C00806F23D1FB681B681A68FB681B6842F41B
:10423C0000721A60FB681B686FF480625A61FB683D
:10424C0000221A63FB68202283F83D20FB680022C1
:10425C0083F83E20FB681B6C43F00402FB681A6475
:10426C00FB68002283F83C20012367E07B68B3F1F4
:10427C00FF3F41D0FFF7F2F902463B68D31A7A6848
:10428C009A4202D37B68002B36D1BB681B0CDBB285
:10429C00012B0CD1FB681B685B69DA43BB681340CC
:1042AC009BB2002B14BF01230023DBB20BE0FB6895
:1042BC001B689B69DA43BB6813409BB2002B14BF8D
:1042CC0001230023DBB2002B16D0FB6800221A63FB
:1042DC00FB68202283F83D20FB68002283F83E20F7
:1042EC00FB681B6C43F02002FB681A64FB6800221D
:1042FC0083F83C20012321E0BB681B0CDBB2012BB3
:10430C000CD1FB681B685B69DA43BB6813409BB23A
:10431C00002B14BF01230023DBB20BE0FB681B68EE
:10432C009B69DA43BB6813409BB2002B14BF01237B
:10433C000023DBB2002B7FF46DAF0023184610373F
:10434C00BD4680BD80B584B000AFF860B9607A60BE
:10435C0034E0F86800F086F80346002B01D0012306
:10436C0034E0BB68B3F1FF3F28D0FFF777F9024682
:10437C007B68D31ABA689A4202D3BB68002B1DD152
:10438C00FB681B685B6903F08003802B16D0FB680D
:10439C0000221A63FB68202283F83D20FB68002270
:1043AC0083F83E20FB681B6C43F02002FB681A6408
:1043BC00FB68002283F83C20012307E0FB681B68A4
:1043CC005B6903F08003802BC3D1002318461037A0
:1043DC00BD4680BD80B584B000AFF860B9607A602E
:1043EC0034E0F86800F03EF80346002B01D00123BE
:1043FC0034E0BB68B3F1FF3F28D0FFF72FF902463A
:10440C007B68D31ABA689A4202D3BB68002B1DD1C1
:10441C00FB681B685B6903F00403042B16D0FB6874
:10442C0000221A63FB68202283F83D20FB680022DF
:10443C0083F83E20FB681B6C43F02002FB681A6477
:10444C00FB68002283F83C20012307E0FB681B6813
:10445C005B6903F00403042BC3D100231846103707
:10446C00BD4680BD80B483B000AF78607B681B68AC
:10447C005B6903F48063B3F5806F1BD17B681B68A9
:10448C006FF480625A617B6800221A637B68202279
:10449C0083F83D207B68002283F83E207B681B6CF0
:1044AC0043F004027B681A647B68002283F83C208A
:1044BC00012300E0002318460C37BD4680BC704732
:1044CC0080B400AF024B1B681846BD4680BC7047D9
:1044DC00A400002080B500AFFFF7F2FF0246054BA9
:1044EC005B681B0A03F007030349CB5C22FA03F356
:1044FC00184680BD001002406465000880B582B08B
:10450C0000AF78607B68002B01D1012376E07B68DB
:10451C005B6A002B08D17B685B68B3F5827F09D09E
:10452C007B680022DA6105E07B6800221A617B68F7
:10453C0000225A617B6800229A627B6893F85130A2
:10454C00DBB2002B06D17B68002283F85020786800
:10455C00FEF704FA7B68022283F851207B681B6803
:10456C001A687B681B6822F040021A607B685B68E3
:10457C0003F482727B689B6803F404431A437B68E0
:10458C00DB6803F400631A437B681B6903F00203C6
:10459C001A437B685B6903F001031A437B689B69D0
:1045AC0003F400731A437B68DB6903F038031A4386
:1045BC007B681B6A03F0800342EA03017B689B6AF9
:1045CC0003F400527B681B680A431A607B689B6982
:1045DC001A0C7B681B6802F004025A607B681B682B
:1045EC00DA697B681B6822F40062DA617B6800225E
:1045FC005A657B68012283F851200023184608373E
:10460C00BD4680BD80B483B000AF7860054B1A689E
:10461C0004497B6813430B6000BF0C37BD4680BC5C
:10462C00704700BF0004014080B483B000AF7860D5
:10463C00054B1A687B68DB43034913400B6000BFD2
:10464C000C37BD4680BC70470004014080B483B079
:10465C0000AF7860054B5A6804497B6813434B6084
:10466C0000BF0C37BD4680BC704700BF0004014042
:10467C0080B483B000AF7860054B5A687B68DB432D
:10468C00034913404B6000BF0C37BD4680BC7047DC
:10469C000004014080B483B000AF7860054B9A6889
:1046AC0004497B6813438B6000BF0C37BD4680BC4C
:1046BC00704700BF0004014080B483B000AF786045
:1046CC00054B9A687B68DB43034913408B6000BF42
:1046DC000C37BD4680BC70470004014080B483B0E9
:1046EC0000AF7860054BDA6804497B681343CB60F4
:1046FC0000BF0C37BD4680BC704700BF00040140B2
:10470C0080B483B000AF7860054BDA687B68DB431C
:10471C0003491340CB6000BF0C37BD4680BC7047CB
:10472C000004014080B584B000AF78600023FB73B7
:10473C007B681B79002B65D07B681B68002B6BD0CA
:10474C007B685B79022B1CD0022B25DC002B02D062
:10475C00012B0BD020E07B681B681846FFF788FF05
:10476C007B681B681846FFF74DFF18E07B681B68D9
:10477C001846FFF759FF7B681B681846FFF766FF62
:10478C000DE07B681B681846FFF73CFF7B681B68D5
:10479C001846FFF75BFF02E00123FB7300BF7B6849
:1047AC009B79002B38D07B689B79032B1CD0032B77
:1047BC0025DC012B02D0022B0BD020E07B681B6880
:1047CC001846FFF79DFF7B681B681846FFF762FFD2
:1047DC0022E07B681B681846FFF76EFF7B681B683E
:1047EC001846FFF77BFF17E07B681B681846FFF73E
:1047FC0051FF7B681B681846FFF770FF0CE0012324
:10480C00FB7309E07B681B681846FFF70DFF7B689C
:10481C001B681846FFF72CFFFB7B18461037BD466C
:10482C0080BD90B488B000AFF860B9607A60FB6866
:10483C001A46BB681B0E13441C462268BB687B617E
:10484C007B6993FAA3F33B613B69B3FA83F3DBB265
:10485C009B000F2101FA03F3DB431A40BB68FB6199
:10486C00FB6993FAA3F3BB61BB69B3FA83F3DBB2C5
:10487C009B00796801FA03F31343236000BF2037D0
:10488C00BD4690BC704790B488B000AFF860B9607A
:10489C007A60FB681A46BB681B0E13441C462268E0
:1048AC00BB687B617B6993FAA3F33B613B69B3FA09
:1048BC0083F3DBB29B00032101FA03F3DB431A40C1
:1048CC00BB68FB61FB6993FAA3F3BB61BB69B3FAE9
:1048DC0083F3DBB29B00796801FA03F31343236083
:1048EC0000BF2037BD4690BC704790B488B000AF75
:1048FC00F860B9607A60FB681A46BB681B0E1344FB
:10490C001C462268BB687B617B6993FAA3F33B610D
:10491C003B69B3FA83F3DBB29B00042101FA03F386
:10492C00DB431A40BB68FB61FB6993FAA3F3BB61E1
:10493C00BB69B3FA83F3DBB29B00796801FA03F32A
:10494C001343236000BF2037BD4690BC704780B432
:10495C0087B000AFF860B9607A60FB68DA68BB6852
:10496C001B0ADB431A40BB681B0A7B617B6993FA09
:10497C00A3F33B613B69B3FA83F3DBB219467B6863
:10498C008B401A43FB68DA6000BF1C37BD4680BC05
:10499C00704780B588B000AF786039603B681B68A1
:1049AC001B021B0C7B617B693B613B6993FAA3F394
:1049BC00FB60FB68B3FA83F3DBB2FB6144E00122DA
:1049CC00FB699A407B691340002B3AD0FB69072B9B
:1049DC0006D840F20112FB6902FA03F3BB6108E04E
:1049EC00FB69083B4FF0011202FA03F343F08063BA
:1049FC00BB613B685B68082B06D13B681B691A4698
:104A0C00B9697868FFF7A3FF3B685B681A46B96918
:104A1C007868FFF706FF3B685B68012B03D03B68A7
:104A2C005B68092B0DD13B689B681A46B96978689D
:104A3C00FFF729FF3B68DB681A46B9697868FFF70E
:104A4C0054FFFB690133FB617A69FB6922FA03F3BA
:104A5C00002BB4D1002318462037BD4680BD000082
:104A6C0080B400AF034B5B6803F00C031846BD46E3
:104A7C0080BC70470010024080B400AF034B5B68F1
:104A8C0003F0F0031846BD4680BC7047001002408E
:104A9C0080B400AF034B5B6803F4E0631846BD467B
:104AAC0080BC70470010024080B400AF034B5B68C1
:104ABC0003F460531846BD4680BC7047001002409A
:104ACC0080B400AF034B5B6803F480331846BD46DB
:104ADC0080BC70470010024080B400AF034B5B6891
:104AEC0003F470131846BD4680BC7047001002409A
:104AFC0080B400AF044B5B685B0C03F001031846F9
:104B0C00BD4680BC704700BF0010024080B582B02B
:104B1C0000AF786000F020F802467B681A607B6872
:104B2C001B68184600F03EF802467B685A607B68AA
:104B3C005B68184600F04CF802467B689A607B680C
:104B4C005B68184600F058F802467B68DA6000BFD4
:104B5C000837BD4680BD000080B582B000AF002391
:104B6C007B60FFF77DFF0346082B0CD0082B0ED87B
:104B7C00002B02D0042B03D009E0094B7B6009E029
:104B8C00074B7B6006E000F04BF8786002E0044BCA
:104B9C007B6000BF7B6818460837BD4680BD00BFF0
:104BAC0000127A0080B582B000AF7860FFF764FF26
:104BBC0003461B0903F00F03044AD35C1A467B68B7
:104BCC00D34018460837BD4680BD00BF5465000869
:104BDC0080B582B000AF7860FFF75AFF03461B0A1E
:104BEC00044AD35C1A467B68D34018460837BD4646
:104BFC0080BD00BF6465000880B582B000AF7860EE
:104C0C00FFF752FF0346DB0A044AD35C1A467B6863
:104C1C00D34018460837BD4680BD00BF6465000808
:104C2C0080B582B000AF00237B6000233B60FFF7B0
:104C3C0047FF38603B68002B04D03B68B3F5803FDE
:104C4C0003D00BE00D4B7B600BE0FFF751FF0346ED
:104C5C0001330B4AB2FBF3F37B6002E0074B7B6042
:104C6C0000BFFFF739FF03469B0C02337A6802FB47
:104C7C0003F318460837BD4680BD00BF00093D0050
:104C8C0000127A0080B483B000AF78607B681B6838
:104C9C0003F04003402B01D1012300E00023184610
:104CAC000C37BD4680BC704780B483B000AF7860D1
:104CBC0039603B689BB21A467B681A6100BF0C379F
:104CCC00BD4680BC704780B584B000AF7860396059
:104CDC000123FB737868FFF7D5FF0346002B39D10E
:104CEC007B681B6823F47F4323F0BF033A68116889
:104CFC003A68526811433A68926811433A68D2682C
:104D0C0011433A68126911433A68526911433A687F
:104D1C00926911433A68D26911433A68126A0A439C
:104D2C001A437B681A607B685B6823F004023B685B
:104D3C005B691B0C1A437B685A603B681B6AB3F5B2
:104D4C00005F05D13B685B6A19467868FFF7ACFFDA
:104D5C000023FB73FB7B18461037BD4680BD80B427
:104D6C0083B000AF786039607B683A689A6200BFA4
:104D7C000C37BD4680BC704780B483B000AF786000
:104D8C0039607B683A68DA6200BF0C37BD4680BC7C
:104D9C00704780B483B000AF786039607B683A6844
:104DAC001A6300BF0C37BD4680BC704780B483B01B
:104DBC0000AF78607B685B6943F001027B685A61E5
:104DCC0000BF0C37BD4680BC7047000080B584B076
:104DDC0000AF786039607B681B68FB607B68274A92
:104DEC0093420BD07B68B3F1804F07D07B68244A89
:104DFC00934203D07B68234A934206D1FB6823F08D
:104E0C0070023B685B681343FB607B681B4A9342F0
:104E1C000BD07B68B3F1804F07D07B68184A934264
:104E2C0003D07B68174A934206D1FB6823F4407287
:104E3C003B68DB681343FB607B68FA681A603B686D
:104E4C009B6819467868FFF797FF3B681B881946E3
:104E5C007868FFF784FF7B68084A934205D13B686A
:104E6C001B6919467868FFF794FF7868FFF79EFF77
:104E7C00002318461037BD4680BD00BF002C0140F2
:104E8C00000400400008004080B483B000AF78609C
:104E9C007B68DB6803F40053B3F5005F0CBF0123A0
:104EAC000023DBB218460C37BD4680BC704780B47B
:104EBC0083B000AF786039607B681B6923F4405283
:104ECC003B681A437B681A6100BF0C37BD4680BC37
:104EDC00704780B483B000AF786039607B685B69E1
:104EEC0023F440723B681A437B685A6100BF0C374D
:104EFC00BD4680BC7047000080B485B000AFF86040
:104F0C00B9607A60BA6813469B0013449A001A443D
:104F1C007B689B00B2FBF3F3254AA2FB03235B09DE
:104F2C009BB21B0199B2BA6813469B0013449A00BA
:104F3C001A447B689B00B2FBF3F21D4BA3FB0203EC
:104F4C005B09642000FB03F3D31A1B013233184AAC
:104F5C00A2FB03235B099BB203F0F0039BB20B444F
:104F6C0099B2BA6813469B0013449A001A447B68A2
:104F7C009B00B2FBF3F20E4BA3FB02035B09642014
:104F8C0000FB03F3D31A1B013233094AA2FB0323A0
:104F9C005B099BB203F00F039BB20B449BB21A4606
:104FAC00FB689A6000BF1437BD4680BC704700BFD9
:104FBC001F85EB5180B588B000AF78603960012354
:104FCC00FB770023BB617868FFF75EFF0346002B7D
:104FDC0045D17B68DB6823F4B05323F00C033A68AB
:104FEC0051683A68D26811433A6812690A431A4305
:104FFC007B68DA603B689B6819467868FFF757FF57
:10500C003B685B6919467868FFF763FF07F1080393
:10501C001846FFF77BFD7B68134A934202D17B69EC
:10502C00BB610CE07B68114A934202D13B69BB61C6
:10503C0005E07B680E4A934201D13B69BB61BB69B9
:10504C00002B0CD03B681B68002B08D00023FB778F
:10505C003B681B681A46B9697868FFF74DFFFB7F00
:10506C0018462037BD4680BD003801400044004042
:10507C000048004080B485B000AF78600E4B1B68D0
:10508C00FB60FB687B68B3F1FF3F0CD07B6801339E
:10509C007B6008E0084B1B6803F48033002B02D0C4
:1050AC007B68013B7B607B68002BF3D100BF00BFAA
:1050BC001437BD4680BC704710E000E080B483B06C
:1050CC0000AF7860034A7B68136000BF0C37BD46A5
:1050DC0080BC7047A4000020024B0146186800F009
:1050EC0025B800BFBC00002070B50F4E0C463168CF
:1050FC00054611B900F046FA30602146284600F00A
:10510C0041FA431C03D14FF0FF34204670BDC41C40
:10511C0024F00304A042F8D0211A284600F032FAF9
:10512C000130F2D1EFE700BFAC0300202DE9F843CA
:10513C00CD1C25F0030508350C2D38BF0C25002D92
:10514C00064601DBA94204D90C2333600020BDE8DC
:10515C00F883DFF8D48000F069F8D8F800301C46EA
:10516C0044BB29463046FFF7BFFF431C044658D1C9
:10517C00D8F800402746002F43D1002C4BD0236891
:10518C003946304604EB030900F0FCF9814542D165
:10519C00216830466D1A2946FFF7A6FF01303AD038
:1051AC0023682B442360D8F800305A6862BBC8F8D7
:1051BC0000700FE02268521B20D40B2A17D96119FA
:1051CC00A342256018BF5960636808BFC8F8001077
:1051DC0062514B60304600F02FF804F10B00231D98
:1051EC0020F00700C21A1CBF1B1AA350AFE762685D
:1051FC00A3420CBFC8F800205A60EBE72346646852
:10520C00AEE73C467F68B6E71A465B68A342FBD123
:10521C0000235360DEE70C233046336000F00CF8BB
:10522C0094E70560D6E700BFB0030020014800F00A
:10523C00F6B900BFF4040020014800F0F1B900BF3A
:10524C00F4040020164B10B51C68236BB3B918205E
:10525C00FFF742FF0246206320B95221114B12483E
:10526C0000F0E0F91149124BC0E90013114B002179
:10527C0083600B2383810120C2E90401216B0E485A
:10528C000B694C6958430D4A02FB0400A3FB023224
:10529C00013340EB0200C1E9043020F0004010BDA6
:1052AC00BC0000206C650008836500080E33CDAB94
:1052BC0034126DE6ECDE05002DF451582D7F954C23
:1052CC00002310B50446C0E90033C0E90433836001
:1052DC0081814366C2818361194608225C3000F0EB
:1052EC0014F90D4B246263620C4BA3620C4BE3620A
:1052FC000C4B23630C4B9C4206D003F16802944286
:10530C0002D0D0339C4205D104F15800BDE81040C6
:10531C0000F084B910BD00BF91540008B3540008CC
:10532C00EB5400080F550008B4030020024A03494F
:10533C00034800F069B800BFB0000020D15D000840
:10534C00C000002041680C4B10B59942044601D0B6
:10535C0000F038FDA168094B994202D0204600F0BC
:10536C0031FDE168064B994204D02046BDE810405F
:10537C0000F028BD10BD00BFB40300201C040020A9
:10538C008404002010B50B4B0B4C0C4A20461A60C1
:10539C0004210022FFF794FF04F168000122092187
:1053AC00FFF78EFF04F1D0000222BDE8104012215D
:1053BC00FFF786BFEC040020B4030020395300082B
:1053CC00014800F02CB900BFF5040020014800F0A2
:1053DC0027B900BFF504002010B50446FFF7F0FF15
:1053EC00236A1BB1BDE81040FFF7F0BF044B2362EA
:1053FC00044B1B68002BF5D1FFF7C4FFF2E700BF8D
:10540C0051530008EC0400202DE9F8430746884668
:10541C0014460026D4E90195B9F1010905D5246893
:10542C00002CF7D13046BDE8F883AB89012B07D9A6
:10543C00B5F90E30013303D029463846C047064330
:10544C006835E9E70EB46FF0004100B59CB01DABB8
:10545C0002900690079104910848094953F8042BCF
:10546C000591006802A9019300F09EF90022029BAD
:10547C001A701CB05DF804EB03B07047BC00002040
:10548C000802FFFF10B50C46B1F90E1000F068F8D9
:10549C000028ABBF636DA3891B1823F48053ACBFEA
:1054AC006365A38110BD2DE9F0411F468B8905462C
:1054BC00DB050C46164605D502230022B1F90E1069
:1054CC0000F03CF8A389324623F48053A38128468C
:1054DC003B46B4F90E10BDE8F04100F063B810B5CE
:1054EC000C46B1F90E1000F029F8431CA38915BF26
:1054FC00606523F4805343F48053A38118BFA381C8
:10550C0010BDB1F90E1000F009B8034602449342E5
:10551C0000D1704703F8011BF9E7000038B50023F0
:10552C00054D044608462B60FDF784FC431C02D154
:10553C002B6803B1236038BDF004002038B5044655
:10554C00084611460022054D2A601A46FDF796FCC6
:10555C00431C02D12B6803B1236038BDF00400203A
:10556C0038B50446084611460022054D2A601A46F5
:10557C00FDF727FC431C02D12B6803B1236038BD17
:10558C00F004002038B50023054D044608462B6076
:10559C00FDF780FC431C02D12B6803B1236038BD9E
:1055AC00F004002038B50446084611460022054D8B
:1055BC002A601A46FDF722FC431C02D12B6803B16A
:1055CC00236038BDF0040020014B1868704700BF01
:1055DC00BC00002070B500260C4D0D4C641BA410B3
:1055EC00A64209D100F036FF00260A4D0A4C641B76
:1055FC00A410A64205D170BD55F8043B984701365E
:10560C00EEE755F8043B98470136F2E7546600087C
:10561C0054660008546600085866000870477047C6
:10562C00704700001FB514461A46094B05461B6807
:10563C00D86854B9074B1C46CDE9013400912B4670
:10564C00054900F0E7FB00F02DFC044BF4E700BF2C
:10565C00BC00002016660008E8650008DB65000841
:10566C0038B50546002940D051F8043C0C1F002BDE
:10567C00B8BFE418FFF7DAFD1C4A136833B963604E
:10568C0014602846BDE83840FFF7D6BDA34208D9C0
:10569C00206821188B4201BF19685B6809182160CA
:1056AC00EDE71A465B680BB1A342FAD911685018A2
:1056BC00A0420BD120680144501883421160E0D104
:1056CC0018685B68084410605360DAE702D90C2351
:1056DC002B60D6E7206821188B4201BF19685B68E4
:1056EC000918216063605460CBE738BDB00300201B
:1056FC002DE9F0471F468E688246BE420C46904606
:10570C000B682DD8B1F90C2012F4906F26D0656976
:10571C00096905EB4505A3EB010905EBD5757B1C68
:10572C004B446D109D4238BF1D46530527D5294665
:10573C00FFF7FCFC064660B34A46216900F0A4FB67
:10574C00A38923F4906343F08003A38126614E4424
:10575C0026603E466561A5EB0905A560BE4200D9F1
:10576C003E4632464146206800F066FB0020A368A6
:10577C009B1BA360236833442360BDE8F0872A4653
:10578C0000F097FB06460028E0D150462169FFF750
:10579C0067FF0C23CAF80030A3894FF0FF3043F0A9
:1057AC004003A381E9E700002DE9F04F98468B896F
:1057BC0007461B060D4614469DB010D50B6973B9F0
:1057CC004021FFF7B3FC2860286130B90C233B6003
:1057DC004FF0FF301DB0BDE8F08F40236B6100230C
:1057EC00099320238DF8293030234FF00109CDF88F
:1057FC000C80DFF898818DF82A3023469A4613F8EE
:10580C00012B0AB1252AF9D1BAEB040B0BD05B465C
:10581C00224629463846FFF76BFF013000F0A7807F
:10582C00099A5A4409929AF80030002B00F09F8094
:10583C0000234FF0FF32CDE905230AF1010A04934E
:10584C0007938DF853301A935446052214F8011B14
:10585C004E4800F00BFB049AD8B9D00644BF202365
:10586C008DF85330110744BF2B238DF853309AF821
:10587C0000302A2B15D0544600204FF00A0C079A02
:10588C00214611F8013B303B092B4BD9B0B10792A3
:10589C0014E0A0EB080309FA03F31343A2460493A4
:1058AC00D2E7039B191D1B680391002BBBBF5B4206
:1058BC0042F0020207930793B8BF049223782E2B71
:1058CC000AD163782A2B32D1039B02341A1D1B6830
:1058DC00039243EAE3730593DFF8B4A00322504626
:1058EC00217800F0C3FA38B14022049BA0EB0A00E7
:1058FC00824013430134049314F8011B06222548FB
:10590C008DF8281000F0B2FA002836D0224B1BBBC1
:10591C00039B073323F0070308330393099B33449A
:10592C0009936AE70C4601200CFB0232A8E700231E
:10593C004FF00A0C194601340593204610F8012B40
:10594C00303A092A03D9002BC6D00591C4E7044686
:10595C0001230CFB0121F0E703AB00932A463846E8
:10596C000E4B04A9AFF30080421C0646D6D1AB897E
:10597C005B063FF52DAF09982CE703AB00932A4645
:10598C003846064B04A900F07DF8EDE717660008D1
:10599C001D6600082166000800000000FD56000886
:1059AC002DE9F047164698468A680B6907469342DC
:1059BC00B8BF1346336091F843200C46DDF82090B5
:1059CC000AB1013333602368990642BF336802334E
:1059DC003360256815F0060506D104F1190AE36851
:1059EC0032689B1AAB422BDC94F843302268003BA4
:1059FC0018BF0123920630D44146384604F14302C5
:105A0C00C847013023D02368226903F00603042B16
:105A1C0014BF002533684FF0000608BFE56804F199
:105A2C001A0408BFED1A54F8123C08BF25EAE575B4
:105A3C009342C4BF9B1AED18B5421AD1002008E05E
:105A4C000123524641463846C847013003D14FF036
:105A5C00FF30BDE8F0870135C1E73020E11881F84F
:105A6C0043005A1C94F845102244023382F8431028
:105A7C00C2E70123224641463846C8470130E6D0EA
:105A8C000136D9E72DE9FF470F7E9146782F8046E6
:105A9C000C469A460C9E01F1430207D8622F0AD895
:105AAC00002F00F0D380582F00F0BA8004F142068A
:105ABC0084F842703AE0A7F16303152BF6D801A1E4
:105ACC0051F823F0295B00083D5B0008B95A000827
