:020000040800F2
:100000000010002005180008391700083B170008E9
:1000100000000000000000000000000000000000E0
:100020000000000000000000000000003D17000874
:1000300000000000000000003F1700084117000802
:100040005518000800000000551800085518000851
:1000500055180008451700085D17000855180008D6
:100060000000000055180008551800085518000831
:100070005518000875170008551800080000000002
:100080005518000800000000000000005518000886
:100090000000000055180008551800085518000801
:1000A0000000000055180008000000005518000866
:1000B0000000000000000000000000000000000040
:1000C00010B5064C2378002B07D1054B002B02D02E
:1000D000044800E000BF0123237010BD0C00002085
:1000E00000000000BC1B0008044B10B5002B03D01F
:1000F0000349044800E000BF10BDC04600000000F6
:1001000010000020BC1B0008002243088B4274D35F
:1001100003098B425FD3030A8B4244D3030B8B4208
:1001200028D3030C8B420DD3FF22090212BA030C11
:100130008B4202D31212090265D0030B8B4219D3F2
:1001400000E0090AC30B8B4201D3CB03C01A524112
:10015000830B8B4201D38B03C01A5241430B8B425A
:1001600001D34B03C01A5241030B8B4201D30B0343
:10017000C01A5241C30A8B4201D3CB02C01A52416A
:10018000830A8B4201D38B02C01A5241430A8B422D
:1001900001D34B02C01A5241030A8B4201D30B0216
:1001A000C01A5241CDD2C3098B4201D3CB01C01A30
:1001B000524183098B4201D38B01C01A524143093A
:1001C0008B4201D34B01C01A524103098B4201D328
:1001D0000B01C01A5241C3088B4201D3CB00C01A95
:1001E000524183088B4201D38B00C01A524143080D
:1001F0008B4201D34B00C01A5241411A00D2014632
:10020000524110467047FFE701B5002000F006F8A4
:1002100002BDC0460029F7D076E770477047C04658
:10022000F0B54F464646D6464402C0B547000E1CC0
:10023000640A3F0EC50F002F3CD0FF2F42D0002391
:10024000802299469A46E400D20414437F3F730209
:100250005B0A984673001B0EF60F002B1BD0FF2B7A
:1002600013D042468021D200C904114388460020A1
:100270007F3B2900FF1A4B467140C9B20F2B00D9B2
:10028000B5E0744A9B00D3589F464346002B3FD1AC
:10029000FF3F023303E04346002B2DD10123290009
:1002A0004A467140C9B21A430E2A38D86A489200A9
:1002B00082589746002C13D104239946033B00270C
:1002C0009A46C4E7002C05D108239946063BFF2730
:1002D0009A46BCE70C239946093BFF279A46B6E7A6
:1002E000200000F083FC7627431F9C4000237F42C0
:1002F00099469A463F1AAAE7404600F077FC4246E4
:10030000431F9A4076235B421B1A90460020B0E7B9
:1003100003234A461A4391460320FC33A9E70D0004
:10032000FF200022C005ED0710432843E0BCBA4679
:10033000B146A846F0BD0D0000200022F2E753466A
:10034000022BEDD0032B33D0A046012B05D100208A
:100350000022E7E7350003287AD03B007F33002BEB
:100360002DDD4246520707D00F2241460A40042A9B
:1003700002D004229446E0444246120105D542468A
:10038000364B1A403B0090468033FE2BC8DC424679
:100390009201520AD8B2C5E780220025FF20D2037D
:1003A000C0E78022D203144202D04346134249D010
:1003B0008022D20322435202FF20520AB2E70122D6
:1003C000D31A1B2BC3DC4246DA4043469E37BB4060
:1003D000591E8B411A43530704D00F231340042B9B
:1003E00000D00432530129D5012000229AE7424669
:1003F00063015501AB4215D21B200022013F0126AB
:100400001C0052005B00002C01DB9D4201D85B1BED
:10041000324301380028F3D1581E834113439846D4
:100420000D009AE71A2001225B1BE8E7023B5A42C3
:1004300053415B4235000022D8B273E7920100209D
:10044000520A6FE71A4352023500FF20520A69E749
:100450004446ADE7D81B0008181C0008FFFFFFF753
:1004600070B5002813D0C317C5185D40C40F28000D
:1004700000F0BCFB9E2301001B1A962B0FDC082802
:1004800034D008398D406D026D0AD8B202E00024E4
:1004900000200025C0052843E407204370BD992BA8
:1004A00016DC421F052800D095402A001148024062
:1004B0006E0709D00F263540042D05D004325501B2
:1004C00002D59F2302405B1A9201550AD8B2E1E798
:1004D0000522121A2800D040020008001B30854077
:1004E0002800451EA84102431500DEE76D02962054
:1004F0006D0ACFE7FFFFFFFBF0B55746DE464E46DD
:100500004546E0B51F000B031B0B16009A46CA0FA9
:100510004B000400934687B05B0D00D1D5E0BB4A89
:10052000934200D1F8E05146420FC9000A438021AE
:1005300009041143C2009146B54A8A469D1800231A
:10054000984602933C037B00FA0F3000240B5B0DAE
:10055000009200D196E0AD4A934231D0720FE40090
:100560002243802424041443A94AF000944663449F
:100570005B195A1C0192424600260A2A42DC5A465E
:1005800000994A4093464246022A32DC013A012A47
:1005900000D949E1022E00D1CAE0012E3DD100234D
:1005A0000024002210005A461B052343D2071343A0
:1005B000190007B0F0BCBB46B246A946A046F0BD44
:1005C000924B2643EB18002E00D1BBE0032241469C
:1005D00011435A46884600994A40802109018C46B9
:1005E00029006144019141460A2900DD33E2934626
:1005F0000326424601279740A6213A00C9000A4037
:100600000F4231D0029E022E00D135E2032E00D1DE
:10061000D2E154464846012EC1D0019A7D4B944602
:100620006344002B00DCC0E0420709D00F220240E7
:10063000042A05D0021D8242804140422418100045
:10064000E20106D5744B019A1C4080239446DB00DE
:100650006344724A93426BDC6207C00864025B0524
:100660000243240B5B0D9DE7902189000F4263D16B
:1006700088223A4200D1D7E0009BA2469B468146A1
:100680000296BFE72300334300D17FE0002C00D166
:10069000ADE1200000F0AAFA020003000B3A1D2091
:1006A0001900821A30000839D0408C4004433000D1
:1006B00088405B4AEB1A944663445A1C01924246B6
:1006C00000260A2A00DC5AE79CE753460343994672
:1006D00054D05346002B00D177E1504600F086FA03
:1006E0000B235B429C4602008444110050460839AB
:1006F00088401D23804660461B1A2000D840030016
:10070000404603439A4623008B4099460023444DBC
:100710009846AD1A029315E752460243914626D1F8
:1007200000221D000223924608329046029309E7F8
:1007300000240022354B35E7002380249B46240308
:10074000324B2FE702224146114380221201944688
:100750002A006244884601920A2900DD52E75A467F
:100760000020009904004A40934602260BE70C2221
:100770001D000323814690460293E3E600239A4638
:1007800004339846033B00250293DBE642460133DF
:100790001A432B0090465A1C019242460024002026
:1007A00001260A2A00DCEAE62CE70122D21A382ABE
:1007B00000DDF4E61F2A00DC2AE11F214942CB1AA2
:1007C0002100D9400B00202A05D0164A019D9446ED
:1007D0006544AC402043421E904118430723190052
:1007E0000024014003420CD00F230340042B00D10E
:1007F00040E1031D8342A441180064426107640282
:10080000240BC20800230A43CCE6C046FF070000C1
:1008100001FCFFFFFF030000FFFFFFFEFE070000DB
:100820000DFCFFFF3E04000049464A460904090C3E
:100830000D00160C020C0004000C4543AC460500EC
:100840007543A84615000F007543009202952A00D3
:10085000009D6F4365462D0CA94647444F44B8455B
:1008600005D91500802252029046454402953D0C60
:10087000039565462D043F042D0CAC463D006544B0
:100880000495250C2404240CAC4625007543A84689
:1008900065460F006943414489466743390C494422
:1008A0006E43884503D980225202904646440D0C7F
:1008B000A846350045440595039D3F04A8463F0CD6
:1008C0000904C91988444546039555462E04360C3B
:1008D0002F0C35004543784381463800A8462D0C3F
:1008E000AA46009A504372434A445244914503D960
:1008F00080256D02A9464844150CA94645462D049D
:100900002D0CA84665467D43120448449044A946F0
:100910003200654662436E437C43170C3619BF199B
:10092000BC4203D980246402A446E144029C039E95
:10093000A446059D66448E428941AC4612043C049F
:10094000120CA2186244494254184644A446464533
:10095000A44182466442A046AA4292418C45894104
:10096000E244D044494252420A43A045A441824550
:100970008941644249420C4341463F0CD219121945
:10098000CC0D049970020843411E884141464A44F7
:10099000F60D52023043490214430843D20135D5C3
:1009A0000122430802401343E0071843640834E679
:1009B000009BA2469B4681468024534624031C4349
:1009C00024034A462E4B240BECE500F00FF91523C7
:1009D0009C4684440200634620321C2B00DC84E6E3
:1009E000002399462300083883409A468EE600F09B
:1009F000FDF802000300153220331C2A00DC4EE60D
:100A000002003400083A0020944052E6019304E6C4
:100A10001C4B21009C460300019DD3406544A94026
:100A200019430300AB40581E834119430800D440CA
:100A30004B0709D00F230B40042B05D00B1D8B4215
:100A40008041404224181800230200D4D6E6012336
:100A500000240022A6E50F29AAD1802352461B03B9
:100A60001A42A9D01C42A7D11C43009B02009B46FE
:100A7000034B97E50024C1E60024014B220091E5D9
:100A8000FF0700001E04000070B5002816D0C31731
:100A9000C5185D40C40F280000F0A8F8104B1B1AC1
:100AA0005B055B0D0A2814DC02002E00153296400F
:100AB0000B22121AD5402D032D0B03E00024002336
:100AC000002500261B052B43E407234330001900B3
:100AD00070BD0B3885402D0300262D0BF2E7C04674
:100AE0001E040000F0B54B000F035B0D3B4C450F9F
:100AF00083B07F0A5E1C2F4300900191CA0FC5008E
:100B000026420BD036495C18FE2C13DDFF20002353
:100B1000C0051843D207104303B0F0BD002B02D12B
:100B200000200023F4E73D43F0D08023DB03FF20C7
:100B30003B43EDE7002C14DD009BFF009B01581E9A
:100B40008341690F3B430B43590741D00F211940A3
:100B5000042928D00433590125D501340023E0B2FB
:100B6000D6E721001731DBDB80211E200904394341
:100B7000001B1F281BDD02267642341B0E00E640B8
:100B80003400202804D017488446634499400D431C
:100B90002B00591E8B412343590715D00F210024E8
:100BA0001940042917D19B015B0AE0B2B0E70E4C53
:100BB0001C192B00A540C340A140681E8541294354
:100BC0000B4300245907C1D19B0100205B0A9FE71A
:100BD000DB08E0B29CE70433E5E7C046FE0700000F
:100BE00080FCFFFFA2FCFFFF82FCFFFF1C21012312
:100BF0001B04984201D3000C10391B0A984201D300
:100C0000000A08391B09984201D30009043902A2DD
:100C1000105C40187047C046040302020101010144
:100C2000000000000000000030B58BB0142200214D
:100C300005A800F08DFF80211A4B89009A691A4C93
:100C40000A439A619B6900250B400093009B802317
:100C5000A26A9B0215491343A3620A68144B200041
:100C60001A408023DB0313430B60802301A91B067A
:100C7000019302950395049500F0EEFD01232000F9
:100C800005A90893059506950795099500F000FEBE
:100C90000422E3689343E3606369033213436361AF
:100CA0000BB030BD00100240002401400827014075
:100CB000FFFF3FFF40210B4B82B05A690A435A6144
:100CC0005B690B400193019B074B20319A688A4373
:100CD0009A609A6820318A439A60012252421A61CE
:100CE00002B070470010024000300240054B82B055
:100CF0005A6902435A615B6918400190019B02B036
:100D00007047C04600100240F0B589B008220021AB
:100D1000684600F01DFF80200025C0030795FFF7FF
:100D2000E5FF80208002FFF7E1FF80209024C002D1
:100D3000FFF7DCFF022608230127E405A662A36271
:100D4000DB18A36202A9200004950595069502967A
:100D5000039700F005FE082202A9200002920495E4
:100D600005950695039700F0FBFD102302AA1100DC
:100D700020000293049505950695039700F0F0FD79
:100D8000204A2149936830200B40F02193609368FA
:100D900004358B43E0390B439360E3681B4A83437C
:100DA000E360D36804398B432B43D36023688343C8
:100DB0002360136868468B4313606B4600959F80E1
:100DC0009E7100F07FFD6B4668469F809E71009685
:100DD00000F078FDC1220E4B920098580D49084052
:100DE0008021C901014399502021196098580A496E
:100DF0000840802109040143995040221A6009B03B
:100E0000F0BDC04600000140FFF0FFFF00040048B5
:100E100000E100E0FF00FFFFFFFF00FF074B084A73
:100E20001A60084A1A6000225A60074A9A6007222C
:100E3000D9681142FCD1054A1A6070470030004061
:100E4000CCCC000055550000FF0F0000AAAA0000FE
:100E500013B5074B019007491868FFF755F9019C36
:100E600044430194019B5A1E0192002BFAD113BDF9
:100E7000080000204054890070B590241023E40538
:100E8000A362050000F080F9072D02D0FF2000F0DA
:100E90007BF91023A36170BD70B590251026202327
:100EA0000C00ED05AE62184300F060F9200000F080
:100EB0005DF9AE6170BD70B590241025E405A562A2
:100EC000502000F053F90120FFF7C2FF732000F01B
:100ED0004DF9A56170BDF8B590271023FF050C00F2
:100EE0001500BB62060000F041F96519AC4202D161
:100EF0001023BB61F8BD300000F046F920700134CA
:100F0000F4E770B590261023F605B362DB1818439A
:100F10000C00150000F02AF90120FFF799FF651970
:100F2000AC4202D11023B36170BD207800F01EF9ED
:100F30000134F5E770B590241025E405A562E220A0
:100F400000F014F90120FFF783FFA56170BD70B5B3
:100F500090241025E405A562E12000F007F90120A6
:100F6000FFF776FFA56170BD70B50020FFF784FF25
:100F700003242043C1B20020FFF78EFF0B4D220057
:100F800029001020FFF7BDFF290022000A20FFF7EB
:100F9000B8FF90230822DB0596209A61FFF758FFDF
:100FA000FFF7C8FFFFF7D3FF70BDC0460000002069
:100FB00010B50A4C032221001020FFF7A2FF2100E8
:100FC0000A200322FFF79DFF90230822DB059A6287
:100FD000FFF7B0FFFFF7BBFF10BDC04603000020C6
:100FE00070B590260823F605B362DB18B3620C00D7
:100FF000150000F0BBF80120FFF72AFF6519AC428D
:1010000004D11023B361083BB36170BD207800F0B8
:10101000ADF80134F3E770B5040072B6FFF7C8FF0E
:101020000020FFF729FFFE23022118400143002082
:10103000FFF732FF9620FFF70BFF210090240825D1
:101040000B22E405A020FFF7CBFF0F20A561FFF7DF
:10105000FFFEA56262B670BD9023082210B5224C37
:10106000DB059A622000FFF7F3FE0A210020FFF75C
:1010700013FF2000FFF7ECFE00210120FFF70CFF1B
:1010800001210220FFF708FF01210320FFF704FFE1
:1010900000210420FFF700FFFFF70DFF07211D20AF
:1010A000FFF7FAFE00211C20FFF7F6FE7021072053
:1010B000FFF7F2FE10210520FFF7EEFE06210800E3
:1010C000FFF7EAFE094C032221001020FFF719FF69
:1010D000032221000B20FFF714FF0B211120FFF743
:1010E000DBFEFFF741FF10BD881300000300002066
:1010F00070B572B60A20FFF7ABFE0720FFF7BCFE03
:101100004025040028420BD00B2261201049FFF734
:10111000E2FE29000720FFF7BFFE01220D4B1A70E7
:1011200020210C4209D00720FFF7B6FEFFF71CFF75
:101130000122094B1A7062B670BD10210C42FAD020
:101140000720FFF7A9FEFFF702FFFFF70DFFF2E709
:101150003500002029000020280000204023024AFA
:1011600011680B4313607047003001400222054BA9
:1011700099681142FCD00122187399681142FCD081
:10118000DB687047003001400222064B996811422B
:10119000FCD00122187399681142FCD0187BC0B2B0
:1011A0007047C0460030014070B5441EE4B20028CC
:1011B0000FD090250226ED050A20AE6100F0ACFCB0
:1011C000AE62002C05D03220013C00F0A5FCE4B258
:1011D000F2E770BDF0B502004118082400200E4D62
:1011E000914200D1F0BD1378060A734026001B021D
:1011F0001BB25F003FB2002B0BDA3B006B40013E9D
:10120000F6B2002EF5D1000280B2584080B2013211
:10121000E6E73B00F3E7C04621100000F0B51D4DA6
:1012200085B029000222684600F0BEFC00276B460C
:1012300001AC2900022220009F7000F0B5FC6B4633
:1012400002AD03221449280003AE9F7100F0ACFCEC
:1012500003221249300000F0A7FC032221000B20DA
:10126000FFF739FE032210206946FFF734FE3B00EA
:101270003800FF226946EF5CC95C8F4200D0100045
:10128000F75CE15C8F4200D010000133032BF1D1F9
:1012900005B0F0BDD41B0008541C0008581C000801
:1012A00010B5FFF7BBFF002803D10530FFF77CFF27
:1012B00010BDFF28FCD1FE38F8E70000F7B5384B29
:1012C0001B78002B4AD0374C09212000FFF782FF02
:1012D000A37A627A1B0213435BBA9BB283423AD170
:1012E0002278012A4ED1304B304C1B6827781902E6
:1012F0002F4C1804090EDDB2000E01911E0E227053
:10130000002F2CD02B4A1268110AA170110C6270A8
:10131000E170120E2271284A092113606B461B7975
:10132000A0712000E37165712672FFF753FF030A75
:10133000A07220006372FFF76EFE1A4B5A78012AE2
:1013400009D19B78012B10D190230132DB059A61E2
:1013500000221A4B1A700022114B1A70F7BD01229D
:1013600052426270A270E270D4E7002B06D1902244
:101370000221D2059162114A1370ECE7022BEAD1E7
:101380000E4BE7E7FF2AE6D10120FFF70DFF002310
:10139000084A13600A4A1360044A1370EBE7C04618
:1013A0002900002035000020440000205A000020C1
:1013B0002A0000204C00002040000020590000209E
:1013C000540000200E490F4B0A680F481A40802332
:1013D000DB0313430B6018210C4BDA688A43DA6095
:1013E00080229968120601400A439A609A68002A8E
:1013F000FCDB0122996801400A439A607047C046AD
:1014000008270140FFFF3FFFE8FFFF7F0024014066
:10141000114B124A996870B5114004220A439A6030
:10142000082219681142FCD01A601C6C0C4B1C80FD
:101430000C4B1888FFF728FB0B4A0C4BFFF75CF8A6
:10144000FFF750FB051CA0B2FFF70AF8011C281C8F
:10145000FEF7E6FE70BDC04600240140E8FFFF7FB6
:1014600048000020BAF7FF1FBA490C022B870A4038
:101470000122254910B50B68934313430B600B6899
:101480001342FCD08022214B520219680A431A6091
:101490008022920219681142FCD00122596A0A4343
:1014A0005A620222596A1142FCD05968184A114006
:1014B000882252030A430F215A60DA6A8A43DA62A9
:1014C0008022196852040A431A6080229204196823
:1014D0001142FCD0F0215A688A435A605A680D497B
:1014E0000A405A60032259689143013A0A430C2189
:1014F0005A605A680A40082AFBD1074800F0FCFAF3
:10150000054800F01FFB10BD002002400010024003
:10151000FFFFC2FFFFF8FFFF006CDC0213B50124E0
:101520008021264B49059A6922439A619A69224093
:101530000192019ADA690A43DA61C022DB69120674
:101540000B401F490093009B0B6A1B021B0A1343AD
:101550000B62FFF78DFFFFF7D7FB00F087F800F075
:101560000FF9FFF7A7FBFFF75FFBFFF757FCFFF74C
:1015700029FFFFF7F3FDFFF76FFD0020FFF790FE57
:10158000104BDA682243DA601A6814431C60FFF7D4
:101590003FFF0D4C2060FFF791FE0C4B0C4A196881
:1015A0000C481368CB1A834203D91160FFF730FF50
:1015B0002060094B094A1A60EDE7C046001002405E
:1015C00000ED00E0002C0140440000205400002009
:1015D000500000201027000000300040AAAA0000A0
:1015E000074B1B699B0709D4064B1A78002A05D1C3
:1015F00001321A70044A054B12681A607047C046DF
:10160000000400485A000020540000204C00002034
:10161000124B1A69D2071FD5022252421A61104A90
:101620001368013313600F4B0F4A1B78002B04D053
:1016300013780133DBB2632B01D813700CE0002365
:10164000902113708022C905486992020304134057
:101650000222824313438B617047C046002C014035
:10166000540000205900002058000020F0B593B02D
:101670002822002108A800F06BFA80212C4B490198
:101680009A6990250A439A619A6900240A40802148
:101690000192019A5A6989020A435A615B690227D9
:1016A0000B4000930326009B2023ED0502A9280090
:1016B00002930594069407940397049600F050F95A
:1016C000402302A9280002930594069407940397E7
:1016D000049600F045F9802302A92800029305949E
:1016E000069407940397049600F03AF982235B006E
:1016F0000993E023DB000A938023102508940B94C0
:101700000C940F9410949B000A4C0D93FA3BFF3BF2
:10171000200008A911930E9500F074F96368AB439B
:101720006360082362681343636013B0F0BDC04672
:101730000010024000300140FEE7FEE770477047AE
:10174000704700000222044B10B55969114202D0C3
:101750005A61FFF745FF10BD000401400422044B0D
:1017600010B55969114202D05A61FFF7C1FC10BD92
:101770000004014010B5FFF74BFF10BD704700009B
:1017800030B587B000236A468024D380174A2401ED
:101790009069174D20439061926901A92240C324AA
:1017A0000092009A134AA40010592840105180203A
:1017B000114C80011060114A20000B804B608A6040
:1017C000CB600B6100F058F9802223680C499343E9
:1017D0002360A3680B407021A36063688B43636040
:1017E000A3689343A36007B030BDC0460010024019
:1017F000FF00FFFF00E100E0002C01407FBB000084
:10180000F8BFFFFF0D4885460D480E490E4A0023DC
:1018100002E0D458C4500433C4188C42F9D30B4AA4
:101820000B4C002301E013600432A242FBD3FFF70C
:10183000A5FF00F095F9FFF771FEFEE7001000200C
:10184000000000200C000020641C00080C00002098
:101850005C000020FEE700008268030030B5012034
:1018600014000440024210D18D684A68D8682A43A7
:10187000CD6809682A43054D284002432000DA60FC
:101880001A69920092080A431A6130BDC73FFFFFF0
:101890008368020030B501201C00044003420ED1D1
:1018A0004D680B68D0682B438D682B43CD68096960
:1018B0002B430B430249014020000B43D36030BD52
:1018C0003CC2FEFF01790200036800293CD0002BD6
:1018D00001D100207047417901291DD0022923D070
:1018E0000120002907D11D494868984348600868CD
:1018F0001843086000209279002AEBD0022A17D002
:10190000032A1DD0012A27D1144AD1689943D160F6
:1019100091680B439360DDE71049086898430860BD
:10192000486818434860E5E70C4908681843F6E73B
:101930000A4A916899439160D1680B43D360C9E723
:10194000064A91681943F6E7044A11689943116001
:10195000516899435160BCE70120BBE70004014096
:10196000F7B5030000220C6800922000009AD040D6
:1019700000D1FEBD0120009A9040220002400442A6
:1019800031D0486803250190100050434543019E23
:10199000ED43771E012F0BD88F689E6847432E407A
:1019A00037439F605F68CE68A743744327435F60F7
:1019B0000C69DF6844432F403C43DC60019C022CEF
:1019C0000BD14F69FF2A11D804000F264443664308
:1019D0007C431A6AB24322431A62019C1A6860432C
:1019E0002A4002431A60009A0132BCE70F26120A0D
:1019F00052435243564357435C6AB4433C435C6290
:101A0000EBE700000368020070B501205B0629D4F3
:101A10004E680B6848693343CE68156833430E69D6
:101A20000C6A33438E6903433343CE69000C33435E
:101A30000F4E234335402B43136053688D680D4E82
:101A4000284333401843802350601B019D4204D239
:101A50008020536840010343536080239B019C42D4
:101A600001D0002070BD4B6A9BB21361F9E7C046FC
:101A70004000FFFFFBF0FFFF10B5194C0368A042C8
:101A800002D0184A904208D1702293434A68134307
:101A9000A0420BD0134A904208D0134A904205D07E
:101AA000124A904202D0124A904203D1114A1A407F
:101AB000CB68134303608B68C3620B888362A042C8
:101AC00005D00A4B984202D0094B984201D10B69CC
:101AD00003630123426913434361002010BDC046E4
:101AE000002C014000040040002000400044014060
:101AF00000480140FFFCFFFFFA2110B58900FEF706
:101B000003FB0022034B013858609A6005321A60CB
:101B100010BDC04610E000E0094A82B0136801938E
:101B2000019B431C591E8B41C01880235B02002877
:101B300001D102B0704711681942FCD00138F6E7B4
:101B400010E000E0014B18607047C046080000201C
:101B500003008218934200D1704719700133F9E7EE
:101B600070B500260C4C0D4D641BA410A64209D183
:101B7000002600F023F80A4C0A4D641BA410A6426C
:101B800005D170BDB300EB5898470136EEE7B300BE
:101B9000EB5898470136F2E75C1C00085C1C000813
:101BA000601C00085C1C0008002310B59A4200D19C
:101BB00010BDCC5CC4540133F8E70000F8B5C04652
:101BC000F8BC08BC9E467047F8B5C046F8BC08BCD7
:041BD0009E46704776
:101BD40000000000EE0300081E030008360300089E
:101BE400540300083603000898030008360300086D
:101BF400540300081E0300081E030008980300088D
:101C0400540300083E0300083E0300083E03000896
:101C1400A20300081E0300081E0300083603000880
:101C24002C04000836030008980300083603000853
:101C34002C0400081E0300081E0300089803000873
:101C44002C0400083E0300083E0300083E0300087D
:081C5400A5A6A700A7A6A500A4
:041C5C00E900000893
:041C6000C1000008B7
:0C1C6400A5A6A7A7A6A5000000127A0004
:0400000508001805D2
:00000001FF
