:020000040800F2
:10000000E806002079010008C1140008DD0C000892
:1000100000000000000000000000000000000000E0
:1000200000000000000000000000000011150008A2
:100030000000000000000000C314000813150008B1
:100040008B010008000000008B0100088B010008F4
:100050008B010008B10C0008C50C00088B010008DA
:10006000000000008B0100088B0100088B010008D4
:100070008B010008B71500088B0100080000000084
:100080008B01000800000000000000008B01000848
:10009000000000008B0100088B0100088B010008A4
:1000A000000000008B010008000000008B01000828
:1000B00000F002F800F050F80CA030C808382418FE
:1000C0002D18671EA246AB4654465D46AC4201D190
:1000D00000F042F87E460F3EB6460FCC0126334272
:1000E00000D0FB1A3343A246AB461847AC1D0000B4
:1000F000CC1D0000103A02D378C878C1FAD8520754
:1001000001D330C830C101D504680C6070470000CD
:100110000023002400250026103A01D378C1FBD823
:10012000520700D330C100D50B60704710B5642969
:1001300002D100F0A1F810BD782902D100F0D2F868
:1001400010BD732902D100F067FD10BD002010BD65
:100150001FB51FBD10B510BD00F076FD1146FFF7AD
:10016000F7FF01F0C7FA00F08EFD03B4FFF7F2FFCE
:1001700003BC00F095FD0000074880470748004792
:10018000FEE7FEE7FEE7FEE7FEE7FEE70448054977
:10019000054A064B70470000B5150008B10000087D
:1001A000E8000020E8060020E8020020E802002025
:1001B0000FB41CB5074B06AA7B446946009005980E
:1001C00000F0FFFC0020694600F00EFD1CBC08BCDE
:1001D00004B018472D0A000070B504468569006810
:1001E000C10601D5302600E02026C00707D070BD2B
:1001F00062683046A1689047206A401C20626D1EEC
:10020000F6D570BD70B5044685690078C00707D182
:1002100070BD6268A16820209047206A401C20625F
:100220006D1EF6D570BD70B50C460546012A05D089
:100230002878800600D5EA69002302E0012305E062
:100240005B1C934202D2E05C0028F9D1A869E61851
:10025000C01AA861286AC01828622846FFF7BCFFA8
:1002600004E06A682078A968641C9047B442F8D317
:100270002846FFF7C7FF70BDF7B500257529106840
:10028000009914A611D0C046C046002802DA4042A8
:1002900011A608E0009909688A0701D50FA602E0B7
:1002A000490704D50EA6012501E0C046C046009FBF
:1002B0000024243704E000F0B3FC30313955641CCD
:1002C0000028F8D12B4632462146009800F01BFC4E
:1002D000FEBD0000000000002D0000002B0000000B
:1002E0002000000070B504460D4621461068C04647
:1002F000C0462188090502D50F4A7A4402E00E4A19
:100300007A440E3223460021243305E00607000913
:10031000360F965D5E54491C0028F7D120780023E3
:10032000000705D5702D03D0002901D0022311321A
:10033000204600F0E8FB70BDC41A0000F3B5044687
:10034000002081B020622046E168884700287DD0E7
:10035000252802D06268A16883E0454F00257F44CC
:100360002046E16888472028064608DB312E06D261
:10037000B81920380078002801D00543F0E7A80715
:1003800001D5042085430020E0610746A0612A2EA4
:100390000AD0304601F00EFD002827D0B800001921
:1003A000303E0090866119E00298BA00121902C826
:1003B000916102902046E1688847012F064617D1D7
:1003C000E06900281FDA202085431CE000980A21FC
:1003D0008069484300998019303888612046E16877
:1003E0008847064601F0E6FC0028EFD1012F0AD02D
:1003F0002E2E08D12046E168884706462020054376
:100400007F1C022FC3DBA069002803DA4042A061F1
:1004100001200543E80701D010208543002E24D099
:1004200030464138192803D80120C0020543203640
:10043000204625603146029A1546FFF777FE0028D0
:100440000CD0012807D0ED1DE80800E00DE0C00049
:100450000830029077E72D1D029574E762683046F8
:10046000A1689047206A401C6CE7206AFEBD00002E
:10047000881A000030B5441C03E00178401C0029B4
:100480000DD08107F9D10B4BDD0104C8D11A91437E
:100490002940FAD0001B0A0603D0C01E30BD001B45
:1004A00030BD0A0401D0801E30BD0902FCD0401EC0
:1004B00030BD000001010101002203098B422CD351
:1004C000030A8B4211D300239C464EE003460B43A4
:1004D0003CD4002243088B4231D303098B421CD306
:1004E000030A8B4201D394463FE0C3098B4201D3F8
:1004F000CB01C01A524183098B4201D38B01C01A30
:10050000524143098B4201D34B01C01A52410309A6
:100510008B4201D30B01C01A5241C3088B4201D355
:10052000CB00C01A524183088B4201D38B00C01A02
:10053000524143088B4201D34B00C01A5241411A29
:1005400000D201465241104670475DE0CA0F00D00C
:100550004942031000D3404253409C460022030905
:100560008B422DD3030A8B4212D38901FC2212BA8B
:10057000030A8B420CD3890192118B4208D3890163
:1005800092118B4204D389013AD0921100E089097B
:10059000C3098B4201D3CB01C01A524183098B425C
:1005A00001D38B01C01A524143098B4201D34B0145
:1005B000C01A524103098B4201D30B01C01A5241A8
:1005C000C3088B4201D3CB00C01A524183088B422F
:1005D00001D38B00C01A5241D9D243088B4201D3B8
:1005E0004B00C01A5241411A00D2014652411046F6
:1005F00063465B1001D34042002B00D5494270474F
:1006000063465B1000D3404201B50549002802DC77
:10061000491C084000E00846C046C04602BD00BF75
:10062000FFFFFF7F70477047704700000246C80F0A
:10063000C00781434B0030B54B405B009B0D20D081
:100640001923DB06C91801231B05994220DB03246B
:10065000A40704251346AB400BD3002B04D1EB06B3
:1006600013409B00E34204D40124640700231219C1
:100670005941FF231B0599420BD2C9000143500F7A
:1006800009E0CB0204D501430803024305D0054825
:1006900030BDFF21C905084330BD084607210905C3
:1006A000884330BD0000C07F1F22030C02D10F22FF
:1006B000000402D0030E03D004E00020014670477E
:1006C0000002083A030F01D10001121F830F01D16C
:1006D0008000921E002801DB4000521E12055118B6
:1006E0004205C012411810467047C10FC90700D01B
:1006F0004042012292071143D6E701218907D3E73F
:10070000F0B58B4C0F09254689B0BD437BD01D0940
:100710002646AE43FAD00E465E402740F60F3E43D3
:10072000254071D024012142FBD0FF24AD19A4043F
:100730002D1B039501252D05DB02DB0AC9022B4386
:10074000C90A29431E010901040F130F05012143A2
:100750001701880B820391432D098C46A90B1E4378
:100760008A039543B30B9A0396433F09BA0B94034C
:10077000A74302962E467E430497B6464E19D719D4
:100780000C460196544305977E43371B7646BF1BA4
:100790003601B646BE0B361900967646BC043719AC
:1007A000009C01D3641C00946400002F01D001263A
:1007B0003443029E049F754366467E43049676004A
:1007C00034196E0034190094029C019E1C19664372
:1007D000751BAE46069465464519059C05956C4308
:1007E000594375460891691A0191049E0146514387
:1007F000A41B0491611A009C0791E10605D06109D0
:100800000122114302E072E06EE06109089D0027B9
:100810002C0A2D066918049D7C412A0A2D066918A8
:10082000019D6241AC0DAD026D185441079A910DC6
:10083000920255196141029A644658435443069BFB
:10084000059A5A43121A131B9A0E9B015B187A41A0
:10085000010B0005C3185141220A200644195A41D0
:100860009A4200D2491C01204002814203D3152341
:100870000226F64302E014230326F6432020C51A7D
:10088000A9401746AF40DA400A4320460399D840B2
:100890000914731819055118039A3843D2075140A7
:1008A000AC4009D00122944006D30022401C5141A3
:1008B000002C01D1400840001E4A934212D301226D
:1008C00003989206904207DB0520400709181A4852
:1008D0000143C012414004E0032040070818C10F43
:1008E000C907002009B0F0BD0020F107FAE705189C
:1008F0000C464C4111486D42A04115D394181A463C
:100900005A410E48644290410ED301204A004005EE
:10091000824209D35A00824206D35940C90F084A7D
:10092000C90700201143DDE700200649DAE700008F
:100930000000FF07FE070000FFFFFF7F0000E0FF51
:100940000000F07F0000F87FF0B5FF252D04C609F8
:10095000C209FF2704462E400137CB093E434840D9
:100960002A402B400746002A6BD0002B69D0AA42B0
:1009700067D0AB4265D0002800DA32460125ED058C
:1009800029432C4309022002090AD21A4B0C7F2466
:10099000E31A434C000A7C44E35C7D2424041219CE
:1009A00014145B00A218884201D3521C00E04000DE
:1009B00049420C465C4324115C43DB016415E31897
:1009C000040A5C43C502200D0C4644436419250A01
:1009D0005D432303EC0C0D46654300030019EB183F
:1009E0004C42A34201D35B18401CD4052018002BB5
:1009F00007D05B00C91804D3401C002901D140086E
:100A000040003F2189048A4209D3002A08DC1106EC
:100A1000090F04D0032149074018C00FC007F0BDDB
:100A200001224100120689187F2252069142F6D215
:100A300005214907C84201D59010F0BDFF20C0052F
:100A4000F0BD002F00DA32461648AA4207D2AB4268
:100A500005D21902090E17D0F80FC007F0BDFF2507
:100A600063002D06AB42F9D84900A942F6D8AB4243
:100A700001D1A942F2D0A94201D1002101E06100D7
:100A80004908D0050843F0BD1102090EFBD0FF2034
:100A90000243D005F0BD0A460146104654E7000067
:100AA000611400000000C07F1F22030C02D10F223E
:100AB00000041CD0030E01D10002083A030F01D13B
:100AC0000001121F830F01D18000921E002801DB5C
:100AD0004000521ED205511802125118192290409E
:100AE00004D3491C002801D1490849000846704731
:100AF000C10FC90700D04042012292071143D3E73A
:100B000001218907D0E7FFB504460D4681B02430A6
:100B100000902168880604D51022E0699143216085
:100B200000E00120A84201DD471B00E000270498F7
:100B3000A1697A191018081AA0612078C00602D499
:100B40002046FFF749FB002608E003986268A16889
:100B5000805D9047206A401C761C20620498864283
:100B6000F3DB2078C0060AD52046FFF735FB06E008
:100B70006268A16830209047206A401C2062384695
:100B80007F1E0028F4DC07E000986268A168405DE1
:100B90009047206A401C206228466D1E0028F3DC26
:100BA0002046FFF72FFB2078000602D5022005B073
:100BB000F0BD0120FBE7000001694A1C02610878D2
:100BC000704700B58FB0029100210591054901934E
:100BD00079440391114604906846FFF7AFFB0FB0CC
:100BE00000BD0000E5FFFFFF0A681070521C0A609C
:100BF000704710B54369002B02D0C046C04601E0E3
:100C0000FFF711FB012010BD1278014624310A7054
:100C100000224A700122ECE711680022D243E8E783
:100C200001468008081A02091018020A1018020C5E
:100C30001018C008820012185200891A01E0401CE6
:100C40000A390A29FBD27047754600F025F8AE46EE
:100C5000050069465346C008C000854618B020B557
:100C6000FFF794FA60BCB64600260027C0C5C0C591
:100C7000C0C5C0C5C0C5C0C5C0C5C0C5403D490888
:100C800049008D46704710B50446C046C046204610
:100C9000FFF76BFA10BD00000048704710000020FD
:100CA00001491820ABBEFEE7260002007047000095
:100CB00080B509480168890703D50221016000F069
:100CC000B5FC80BD80B504480168490703D50421FF
:100CD000016000F0DBFC80BD14040140FEE7000071
:100CE0008268D20712D1C268094B13404A681A437E
:100CF0008B681343CA681A43C260032292070369D0
:100D0000934309681943016100207047012070472F
:100D1000C73FFFFF70B58268D2070CD1C268074B8E
:100D2000134074C909681A4322432A4332430A43D1
:100D3000C260002070BD012070BDC0463CC2FEFFF5
:100D400081B005490A6802430A60096801400091C0
:100D5000009801B07047C0461410024010B501461B
:100D600002680079002810D0002A15D04879204B5D
:100D7000022813D0012814D000281AD158689043B3
:100D8000586018681043186011E0194801689143D1
:100D90000160416891434160002010BD1868104314
:100DA00001E01868904318605868104358600020AC
:100DB00000E00120897903290ED8C04679440979D9
:100DC00049008F4401020B0EE7E7D9689143D960CF
:100DD00099681143996010BD012010BD9968914335
:100DE00001E0996811439960D9681143D96010BD39
:100DF00000040140FEB5002700910C682346FB402B
:100E00004AD00125BD40254044D04A680192531E76
:100E1000022B02972B4613D26B438E685E43032747
:100E20005F438268BA43324382600099CA68624372
:100E30004668A64316434660FC43029F009903E0C0
:100E40006B4303245C43E4430A695A43C668264063
:100E50001643C660019A022A16D12E0A01D0242216
:100E600000E020224F698558002E114602D07643BB
:100E7000764301E01E465E430F227243954377435B
:100E80002F4347500099029F4A685343026822400B
:100E90001A4302607F1CB0E70020FEBD80B57D21B3
:100EA000C900FFF709FB401E8C494860002088609C
:100EB0000520086080BDC04610B5002801D0002084
:100EC00010BD134C216B03200840032806D00228D4
:100ED00009D001280DD100F0F5FA10BD2068800777
:100EE000C1170C4803E00120C103206A80030840B9
:100EF00010BD00F0E7FA616862685205520F064BB8
:100F00009A5C0906090F054B595CC840D04010BDDA
:100F10000010024000127A004B1E00083B1E000821
:100F2000B0B5026852062AD40268164B13400A680C
:100F30001A434B681343CA681A430B6913438A69FF
:100F40001A43CC6914434A6914430B6A1C43046076
:100F500044680D4D2540120C2A438C6822434260A0
:100F6000E20A04D1012212034468144344600122BE
:100F700054030022A34203D1898C016100E00122C5
:100F80001046B0BD4000FFFFFBF0FFFF01490860C5
:100F90007047C04600000020B0B504681B4A90426C
:100FA00004D01B4DA84206D0234608E070239C4382
:100FB0004B6823430FE070239C434B682343A842B4
:100FC00009D0144CA04206D0134CA04203D0134CBD
:100FD000A0421C4604D103242402A343CC681C4332
:100FE00004608B68C3620B888362904205D00A4A12
:100FF000904202D0094A904201D1096901634169D6
:1010000001220A4342610020B0BDC046002C0140CD
:10101000000400400020004000480140004401401E
:10102000F8B50D4601680124C9071BD101681F4AA4
:101030000A4069681143EA680A4329691143AA69A9
:101040000A43026003210A0343689343AA681A43D0
:101050004260090282688A43696911438160144FC2
:10106000B84201D02046F8BD00263046FFF724FFE5
:101070000028F7D029680029F4D00122D203AB69F7
:1010800093420AD140004A081018FFF715FA09499F
:1010900001400007400F401804E04A081018FFF70D
:1010A0000BFA80B2F8603446DCE7C046F369FFFF14
:1010B00000380140F0FF000081B008490A68009242
:1010C000401C01D30020C043009A002804D00A68C5
:1010D000D203D2171018F8E701B0704710E000E013
:1010E00070B58AB001256802BF490A6802430A60E8
:1010F00009680140019101986804144CA16A0143F8
:10110000A1620320800512490A688243A8051018CD
:1011100008600026099608960796E807069006A933
:101120002046FFF7DDFD059604950396029601968D
:1011300001A92046FFF7EEFDE06804218843E06046
:1011400060690721014361610AB070BD002401405C
:101150000827014081B0D84801684022114301604E
:101160000068104000900098064801686022914392
:10117000016001688022914301600021C9438160C0
:1011800001B0704708300240F0B58DB03A480B907E
:10119000042002900A90002709970126B005374CD9
:1011A000A0477004A047B004A0470920C40602204D
:1011B0000190A06208210391A16210210091A16217
:1011C0000897079704A9C1C104AD6B4A2046294678
:1011D000904708970797069705960398049020462E
:1011E0002946654A90470897079706970596009FF6
:1011F000049720462946604A90470F200002204964
:101200000A6882430A6008683843E0229043086015
:101210003020C043E1680140E1601A49CA68029B7E
:101220001A43039B9A43CA602268024022600868FE
:101230000C22904308600AAC2046FFF78FFD01980E
:10124000A071A6800A902046FFF788FDFF200102CA
:101250000D4A13688B43B103591811606449202368
:101260000B60000413688343F005181810604020D9
:1012700008600DB0F0BDC04601000200410D00083D
:10128000080001400004004804E400E00748084961
:101290000160084901600021416007498160C1681F
:1012A0004907FCD1054901607047C0460030004045
:1012B000CCCC000055550000FF0F0000AAAA00008A
:1012C000F0B591B0012001037B4A53680B43536092
:1012D00053680B400793079940041168014311605C
:1012E000116801400791002606960596049603278B
:1012F0000397022000900290202001900798092077
:10130000C40601AD1C4A204629469047069605961C
:1013100004960397009802904020019020462946A9
:10132000154A9047069605960496039700980290F2
:1013300080200190204629460F4A90470F960E962E
:101340000B960A960796412080000890FC300C907E
:10135000072010900002099010240D94074D281FBB
:1013600007A9FFF7DDFD2868A04328602868082149
:101370000143296011B0F0BDF50D000804300140B3
:1013800010B586B0002000900122D102164B1C68D7
:101390000C431C601B680B4005930599FF21090253
:1013A000124B1C688C431C60694608805203104B2A
:1013B0001A60049003900F4A029201900E4C20464E
:1013C000FFF7EAFD8020C043216801402160A16849
:1013D0000A4A0A40A2606168702291436160A16874
:1013E0000140A16006B010BD181002400CE400E0FE
:1013F00000E100E07FBB0000002C0140F8BFFFFFD0
:10140000F0B58FB00126B0032B494A6802434A6009
:101410004A6802400892089870040A6802430A6009
:101420000968014008910796002706970597032051
:10143000019004900220009003907002029008989E
:101440000920C40602AD20462946FFF7D3FC0796C3
:10145000069705970198049000980390B0020190B8
:10146000029020462946FFF7C5FC0E970D970C20E9
:101470000C900B970A9709974B20C00108900F4CCE
:1014800008A92046FFF7CCFDEFF3108086F3108803
:10149000A168019A9143A16080F31088F00261680D
:1014A00081436160A06808218843A06020683043C0
:1014B00020600FB0F0BDC04614100240003801405B
:1014C000FEE7704780B50F4800680C2101400829ED
:1014D00002D100F003F880BD0C4880BD10B5094C66
:1014E0002068C00301D5094800E00748A16A0F221F
:1014F0000A40511CFEF7E0FF21688902090F891C90
:10150000484310BD0410024000093D0000127A005B
:1015100070477047B0B524490A68012002430A6049
:101520000A68D207FCD00104204D2A680A432A60C9
:1015300029688903FCD5696A01436962696A890778
:10154000FCD53D2109046A688A4311210904511818
:101550006960E96A0F229143E96201062A680A4339
:101560002A6029688901FCD56968F0229143696085
:10157000072109026A688A436A60696802220A438D
:1015800082436A6068680C2101400829FAD1084C3E
:101590002046FFF783FC2046FFF7F8FC286B032169
:1015A00088432863B0BDC0460020024000100240BE
:1015B000006CDC02704780B500F08AFB80BD000043
:1015C000032080050C490A68824301208305D21854
:1015D0000A600A494A6818239A434A600B68084A15
:1015E00013409B1818330B600B68002BFCD40B685E
:1015F000134003430B607047082701400824014053
:10160000E8FFFF7F70B50446E94D20060CD0641E4C
:1016100002262E600A20FFF74FFD2E612006F4D02F
:101620003220FFF749FDF0E770BDC046064800686C
:10163000800707D460480178002903D10121017097
:101640004168C1607047C04610040048F0B50022F0
:101650000D4B14468A4215D0FF252646AE43855CC5
:101660002D0275400026082E07D26F002DB2002DE6
:1016700000D55F403D46761CF5E724026540521CCC
:101680002C46E7E7A0B2F0BD21100000B0B5EFF3A3
:10169000108072B60A2000F047FB072000F00AF91C
:1016A000044640060BD5124DA91C61200B2200F008
:1016B000EBF80720402100F0AFF901202870A006C8
:1016C0000AD4E00611D50720102100F0A5F900F09A
:1016D00087F800F0FDF808E00720202100F09CF9D1
:1016E00000F0F6F802480121417062B6B0BDC04674
:1016F0007000002082B02B48016801242143016062
:101700000168214000910099210742680A43426024
:101710004068084001900198FF20000622490A68AD
:1017200082430320800710180860FFF7F3FEFFF7DD
:101730002BFDFFF7C5FDFFF723FEFFF70BFDFFF7BE
:101740005FFEFFF7CDFCFFF7A1FDFFF739FF052096
:10175000FFF758FF00F068FA00F04EF8672000F03D
:10176000F7FA12A000F00AFB002000F071FA11480D
:10177000C1682143C16001682143016000F01CFA87
:10178000E84C20610D4D0E4E0E4F00F053F960688D
:10179000A168411AA94203D3A06000F00DFA2061AC
:1017A0003760F2E71810024020ED00E073746172B8
:1017B00074000000002C0140800000201127000070
:1017C00000300040AAAA0000B0B5D84C1025256111
:1017D000E22000F031FA012000F0A6FA2560B0BD49
:1017E000B0B5D24C10252561E12000F025FA01208A
:1017F00000F09AFA2560B0BDF8B57A48082101607A
:101800001F4C204600F090FA00250A211D4F284663
:10181000B847204600F088FA012630462946B847E6
:1018200002203146B847032420463146B8470420F9
:101830002946B84700F092F81D2007263146B847E0
:101840001C202946B84770213046B847052010258E
:101850002946B84706200146B847614E284631461A
:10186000224600F0C1F80B2528463146224600F0FA
:10187000BBF811202946B84700F02AF8F8BDC04649
:1018800088130000191A0008F8B514460D460646DC
:10189000A64810270761304600F0CEF9002C06D08C
:1018A000304600F0B7F928706D1C641EF6E79F48BB
:1018B0000760F8BD70B504469C4D10262E6100F0FF
:1018C000A9F9072C02D0FF2000F0A4F92E6070BD0A
:1018D000B0B500252846FFF7EDFF0146032421435C
:1018E000284600F099F810200A4D2946224600F0BB
:1018F0007BF80A202946224600F076F88B4808211A
:101900000160962000F010FAFFF75EFFFFF768FF16
:10191000B0BDC04607000020B0B50446EFF310800C
:1019200072B600F047F800252846FFF7C3FFFC21F8
:101930000140891C284600F06FF8962000F0F4F969
:10194000A0200B22214600F019F8784C08252560CC
:101950000F2000F0E9F9256162B6B0BDB0B5734C57
:1019600010252561502000F067F9012000F0DCF916
:10197000732000F061F92560B0BDC046F8B514468B
:101980000D466A4908270F6110260E6100F054F9D0
:10199000012000F0C9F9002C05D0287800F04CF99E
:1019A0006D1C641EF7E7614806600760F8BDC0461D
:1019B00018000048B0B51020094C032521462A46DE
:1019C00000F012F80A2021462A4600F00DF80548DA
:1019D00008210160FFF7F8FEFFF702FFB0BDC04627
:1019E0000400002028000048F8B514460D464F4E6C
:1019F000102737612021084300F01EF9012000F074
:101A000093F9002C05D0287800F016F96D1C641E9F
:101A1000F7E73760F8BDC04670B50C46434D102659
:101A20002E612021084300F007F9204600F004F958
:101A30002E6070BDF8B5394E307800286DD0384C26
:101A400009212046FFF702FEA17A627A120251189C
:101A5000814260D12078FF2824D001285BD1324D0B
:101A600001272F70AE480178002924D0C16802698F
:101A7000697042616A71080E2871080CE870080AE2
:101A8000A870100E2872100CE871100AA8710921B4
:101A90002846FFF7DBFDA872000A68722846FFF7A8
:101AA0003BFF24E00120FFF7ADFD9D480027476084
:101AB000C76007702DE0FF212971E970A970697076
:101AC000016941616971080E2872080CE871080A01
:101AD000A87109212846FFF7B9FDA872000A6872AB
:101AE0002846FFF719FF1148022101600161607863
:101AF000012810D1A078002807D0022809D0012899
:101B000009D10A480221016002E00848022101616E
:101B100000278348477000203070F8BD7000002017
:101B20007200002080000020DA0000201800004829
:101B3000F0B587B006AC0027A770278005ADAF7061
:101B40002F800B20032629463246FFF79DFE1020EA
:101B500021463246FFF798FE6B782A78A8782178DC
:101B60006578A47800AE23C603940F4C0F49204635
:101B7000FEF71EFB204600F0F3F80DA00DA13A463B
:101B8000032F0DD006ABDB5DC45D5C4005ABDB5DB8
:101B9000CD5D5D40254301D00022D2437F1CEFE79D
:101BA000D0B207B0F0BDC0469A000020531E000816
:101BB000A5A6A700A7A6A500B0B510488168104A41
:101BC0000A40111D816001680907FCD508210160E8
:101BD000056C0C4805800C480088FEF78EFD0B4A0A
:101BE0000B4BFEF78DFDFEF721FD0446A8B2FEF774
:101BF00087FF01462046FEF7A7FEB0BD0024014046
:101C0000E8FFFF7F98000020BAF7FF1FBA490C02D7
:101C10002B870A400D490A689207FCD508710868AD
:101C2000C007FCD0087970470248016840220A4387
:101C3000026070470030014004490A689207FCD5F1
:101C400008710868C007FCD0486870470830014038
:101C500010B50EA000F092F8104C11A10122002343
:101C60002046FEF7A5FA204600F088F8FFF760FF4F
:101C7000002801D00DA405E00FA112A210232046D8
:101C8000FEF796FA204600F079F810BD6B6F6D6292
:101C90006F5F627320627574746F6E009A0000202B
:101CA000762E2025642E2530326400006E72662068
:101CB0004552524F520000002573206368203D209A
:101CC000256400006E72663234204F4B2000000005
:101CD00010B512490868C0071ED00120C2430A602F
:101CE0000F494A68521C4A604A78002A12D08A7802
:101CF000521C8A70D2B2642A0ED300228A7009491B
:101D00000A680223400414041A400440A0185840F2
:101D1000486010BD0020887010BDC046102C0140E6
:101D20008000002014000048E0B5019006480068DB
:101D30000649FEF7C1FB0199414301910198411EFB
:101D400001910028FAD18CBD000000204054890088
:101D50000248016801220A430260704700380140CE
:101D6000B0B5044600252046FEF784FB854204D228
:101D7000605D00F017F86D1CF5E7B0BDB0B5044626
:101D800000252046FEF776FB854204D2605D00F018
:101D900009F86D1CF5E70D2000F004F80A2000F0AA
:101DA00001F8B0BD02490A681206FCD58881704767
:101DB0001C38014030380A2801D201207047002029
:101DC0007047303132333435363738394142434445
:101DD00045464030580030313233343536373839A3
:101DE00061626364656640307800040000080000AA
:101DF0000000000000020001000010818283848541
:101E0000868788898B8C8D8E8F91929395969799E2
:101E10009A9C9D9FA0A2A3A5A7A8AAACAEB0B2B35E
:101E2000B5B7B9BCBEC0C2C5C7C9CCCED1D4D7D94D
:101E3000DCDFE2E6E9ECF0F3F7FAFE000000000078
:101E40000000000102030406070809000000000169
:101E500002030454585F414444523A2030782530FC
:101E600032582C203078253032582C2030782530CC
:101E700032580D0A52585F414444523A2030782576
:101E80003032582C203078253032582C20307825AC
:101E90003032580D0A000000B81E00080000002073
:101EA00010000000F4000008C81E00081000002008
:101EB000D80600001001000800127A00A7A6A5A508
:081EC000A6A7000000000000CD
:04000005080000B13E
:00000001FF
