:020000040800F2
:10000000A806002055010008C10D0008410700089E
:1000100000000000000000000000000000000000E0
:10002000000000000000000000000000C50D0008F6
:100030000000000000000000C30D0008C70D00080C
:100040006701000800000000670100086701000860
:100050006701000815070008290700086701000864
:100060000000000067010008670100086701000840
:1000700067010008630E0008670100080000000027
:100080006701000800000000000000006701000890
:100090000000000067010008670100086701000810
:1000A0000000000067010008000000006701000870
:1000B00000F002F800F03EF80CA030C80838241810
:1000C0002D18671EA246AB4654465D46AC4201D190
:1000D00000F030F87E460F3EB6460FCC0126334284
:1000E00000D0FB1A3343A246AB4618472C1A000037
:1000F0004C1A0000103A02D378C878C1FAD85207D7
:1001000001D330C830C101D504680C6070470000CD
:100110000023002400250026103A01D378C1FBD823
:10012000520700D330C100D50B6070471FB51FBD0B
:1001300010B510BD00F0BBFA1146FFF7F7FF00F055
:1001400023FF00F0D3FA03B4FFF7F2FF03BC00F083
:10015000D9FA00000748804707480047FEE7FEE756
:10016000FEE7FEE7FEE7FEE704480549054A064BC1
:1001700070470000610E0008B1000008A8000020D0
:10018000A8060020A8020020A802002001E004C068
:10019000091F0429FBD28B0701D50280801CC907E7
:1001A00000D00270704700290BD0C30702D0027044
:1001B000401C491E022904D3830702D50280801CFB
:1001C000891EE3E70022EEE70022DFE77047704771
:1001D000704700000246C80FC00781434B0030B58E
:1001E0004B405B009B0D20D01923DB06C91801236F
:1001F0001B05994220DB0324A40704251346AB40CA
:100200000BD3002B04D1EB0613409B00E34204D434
:1002100001246407002312195941FF231B05994249
:100220000BD2C9000143500F09E0CB0204D50143B2
:100230000803024305D0054830BDFF21C905084326
:1002400030BD084607210905884330BD0000C07F46
:100250001F22030C02D10F22000402D0030E03D090
:1002600004E00020014670470002083A030F01D164
:100270000001121F830F01D18000921E002801DBB4
:100280004000521E120551184205C0124118104676
:100290007047C10FC90700D04042012292071143A5
:1002A000D6E701218907D3E7F0B58B4C0F09254626
:1002B00089B0BD437BD01D092646AE43FAD00E4619
:1002C0005E402740F60F3E43254071D02401214275
:1002D000FBD0FF24AD19A4042D1B039501252D058A
:1002E000DB02DB0AC9022B43C90A29431E010901AB
:1002F000040F130F050121431701880B820391435B
:100300002D098C46A90B1E438A039543B30B9A0310
:1003100096433F09BA0B9403A74302962E467E43A9
:100320000497B6464E19D7190C46019654430597C3
:100330007E43371B7646BF1B3601B646BE0B3619C9
:1003400000967646BC043719009C01D3641C0094C7
:100350006400002F01D001263443029E049F7543A0
:1003600066467E430496760034196E003419009474
:10037000029C019E1C196643751BAE460694654699
:100380004519059C05956C43594375460891691AB2
:100390000191049E01465143A41B0491611A009CE3
:1003A0000791E10605D061090122114302E072E0E4
:1003B0006EE06109089D00272C0A2D066918049D2E
:1003C0007C412A0A2D066918019D6241AC0DAD02DF
:1003D0006D185441079A910D920255196141029A84
:1003E000644658435443069B059A5A43121A131BFA
:1003F0009A0E9B015B187A41010B0005C31851410D
:10040000220A200644195A419A4200D2491C01206E
:100410004002814203D315230226F64302E014234F
:100420000326F6432020C51AA9401746AF40DA40FC
:100430000A4320460399D840091473181905511826
:10044000039A3843D2075140AC4009D0012294406E
:1004500006D30022401C5141002C01D1400840002D
:100460001E4A934212D3012203989206904207DB60
:100470000520400709181A480143C012414004E012
:10048000032040070818C10FC907002009B0F0BDBC
:100490000020F107FAE705180C464C4111486D425F
:1004A000A04115D394181A465A410E48644290410F
:1004B0000ED301204A004005824209D35A008242ED
:1004C00006D35940C90F084AC90700201143DDE788
:1004D00000200649DAE700000000FF07FE070000E1
:1004E000FFFFFF7F0000E0FF0000F07F0000F87FCB
:1004F000F0B5FF252D04C609C209FF2704462E408A
:100500000137CB093E4348402A402B400746002A8A
:100510006BD0002B69D0AA4267D0AB4265D00028CF
:1005200000DA32460125ED0529432C430902200259
:10053000090AD21A4B0C7F24E31A434C000A7C446C
:10054000E35C7D242404121914145B00A218884271
:1005500001D3521C00E0400049420C465C43241188
:100560005C43DB016415E318040A5C43C502200DFB
:100570000C4644436419250A5D432303EC0C0D46E5
:10058000654300030019EB184C42A34201D35B18EA
:10059000401CD4052018002B07D05B00C91804D3D9
:1005A000401C002901D1400840003F2189048A42B3
:1005B00009D3002A08DC1106090F04D003214907DA
:1005C0004018C00FC007F0BD012241001206891873
:1005D0007F2252069142F6D205214907C84201D531
:1005E0009010F0BDFF20C005F0BD002F00DA3246AC
:1005F0001648AA4207D2AB4205D21902090E17D0FB
:10060000F80FC007F0BDFF2563002D06AB42F9D8F7
:100610004900A942F6D8AB4201D1A942F2D0A94281
:1006200001D1002101E061004908D0050843F0BD77
:100630001102090EFBD0FF200243D005F0BD0A468F
:100640000146104654E70000901500000000C07FEE
:100650001F22030C02D10F2200041CD0030E01D173
:100660000002083A030F01D10001121F830F01D1CC
:100670008000921E002801DB4000521ED205511856
:10068000021251181922904004D3491C002801D1AC
:100690004908490008467047C10FC90700D04042C9
:1006A000012292071143D3E701218907D0E775465C
:1006B00000F024F8AE46050069465346C008C00065
:1006C000854618B020B5FFF74FFD60BCB646002642
:1006D0000027C0C5C0C5C0C5C0C5C0C5C0C5C0C550
:1006E000C0C5403D490849008D46704710B50446D5
:1006F000C046C0462046FFF726FD10BD00487047A3
:100700001000002001491820ABBEFEE726000200C1
:100710007047000080B509480168890703D50221A8
:10072000016000F0A3FB80BD80B504480168490763
:1007300003D50421016000F0AFFB80BD140401402B
:10074000FEE700008268D20712D1C268094B13404D
:100750004A681A438B681343CA681A43C26003226B
:1007600092070369934309681943016100207047A8
:1007700001207047C73FFFFF70B58268D2070CD1D8
:10078000C268074B134074C909681A4322432A43BD
:1007900032430A43C260002070BD012070BDC046D4
:1007A0003CC2FEFF10B5014602684068002810D028
:1007B000002A17D0087A214B022815D0012816D01C
:1007C00000281CD15868904358601868104318607E
:1007D00013E01A4801689143016041689143416008
:1007E000002010BD002010BD1868104301E01868FB
:1007F00090431860586810435860002000E00120C2
:10080000497A03290ED8C0467944097949008F44B2
:1008100001020B0EE5E7D9689143D960996811434D
:10082000996010BD012010BD9968914301E099685D
:1008300011439960D9681143D96010BD000401408B
:10084000F0B582B00B68002B4ED00022019114E06D
:100850004F696443644367430F266643446AB44365
:100860003C4344624C68634304682C401C4304606E
:10087000521C0B681C46D44036D0012494401C40C6
:10088000F6D04D6800956D1E012D11D825466543A3
:1008900001998F686F4303266E438568B5433D43D6
:1008A00001998560CD685D4346689E432E4346604E
:1008B000234663430D695D4303265E43C768B74320
:1008C0002F43C7600199F543009E022ECAD1240A26
:1008D000BED11F465F434C697C430F267E43076AA7
:1008E000B74327430762BDE7002002B0F0BD000018
:1008F00080B57D21C90000F0F1FF401E4E494860DF
:10090000002088600520086080BDC046B0B5026840
:1009100052062BD40268164B13400A681A434B68E0
:100920001343CA681A430B6913438A691A43CC6993
:1009300014434A6914430B6A1C43046044680D4D18
:100940002540120C2A438C6822434260E20A04D1FB
:10095000012212034468144344600122540300221C
:10096000A34201D1898C01611046B0BD0120B0BD08
:100970004000FFFFFBF0FFFF014908607047C046E1
:100980000000002010B504681C4A904202D01C4BA5
:10099000984204D170239C434B68234300E02346D4
:1009A000184CA04208DD90420CD0174CA04209D050
:1009B000164CA04206D01FE0114CA04202D0144CAD
:1009C000A04219D103242402A343CC681C43046031
:1009D0008B68C3620B888362904205D00A4A9042BA
:1009E00002D00A4A904201D109690163416901229A
:1009F0000A434261002010BD1C46E8E7002C01407C
:100A000000040040FF2B0140004801400044014029
:100A10000020004081B008490A680092401C01D3C0
:100A20000020C043009A002804D00A68D203D217DD
:100A30001018FAD101B0704710E000E070B58AB02C
:100A4000002508950795069505950495039502954B
:100A50000195009501267002D3490A6802430A6095
:100A600009680140099109987004144CA16A014376
:100A7000A1620320800512490A688243B00510185C
:100A80000860089507950695F007059005A920468A
:100A9000FFF758FE04950396029501950095694667
:100AA0002046FFF769FEE06804218843E060606942
:100AB0000721014361610AB070BDC04600240140B6
:100AC0000827014081B09848016840221143016025
:100AD0000068104000900098064801686022914329
:100AE000016001688022914301600021C943816057
:100AF00001B0704708300240F0B58DB000270B9769
:100B00000A970997089707970697059704970397F9
:100B10000126B105844802680A43026002680A405F
:100B20000C920C99710402680A43026002680A4040
:100B30000C920C99B10402680A43026000680840F4
:100B40000C900C980920C40602200190A062082194
:100B50000291A16210210091A1620797069703A953
:100B6000C1C103AD20462946FFF76AFE07970697E5
:100B7000059704960298039020462946FFF760FEE9
:100B80000797069705970496009F039720462946E6
:100B9000FFF756FE0F2000021F490A6882430A60D1
:100BA00008683843E022904308603020C143E06881
:100BB0000840E060042209921848C3681343029A6F
:100BC0009343C36022680A402260750209AC258104
:100BD00001680C22914301600A962046FFF7E2FD6E
:100BE00025810A96019809902046FFF7DBFDFF203A
:100BF00001020B4A13688B43B103591811606C4909
:100C000020230B60000413688343F005181810605C
:100C1000402008600DB0F0BD08000140000400480D
:100C200004E400E007480849016008490160002128
:100C3000416007498160C1684907FCD105490160ED
:100C40007047C04600300040CCCC00005555000035
:100C5000FF0F0000AAAA0000F0B593B008A800900A
:100C60002821FFF7B1FA0027079706970597049701
:100C700003970297012001032B4A53680B435360EB
:100C800053680B401293129940041168014311609C
:100C9000116801401291129807970697059703244F
:100CA0000494022001900390202002900920C506A0
:100CB00002AE28463146FFF7C3FD07970697059712
:100CC0000494019803904020029028463146FFF793
:100CD000B7FD079706970597049401980390802025
:100CE000029028463146FFF7ABFD10970F970C97FF
:100CF0000B970897412080000990FC300D90072049
:100D0000119000020A9010240E94084D281F00999B
:100D1000FFF7FCFD2868A0432860286808210143EC
:100D2000296013B0F0BDC0461410024004300140E9
:100D3000B0B586B00020049003900290019000901E
:100D40000122D102E64B1C680C431C601B680B405F
:100D500005930599FF210902144B1C688C431C6004
:100D6000694608805203124B1A6004900390114A9E
:100D700002920190104D2C46083C2046FFF702FEDF
:100D80008020C04321680140216029680B4A0A4045
:100D90002A60291F0A6870239A430A602968014063
:100DA000296006B0B0BDC046181002400CE400E057
:100DB00000E100E07FBB0000082C0140F8BFFFFF0E
:100DC000FEE770477047704710B522490A68012056
:100DD00002430A600A68D207FCD003041E490A1FB6
:100DE00014681C43146013689B03FCD50B6A03430F
:100DF0000B620B6A9B07FCD53D231B040C689C43CC
:100E000011231B04E3180B608B6A0F24A3438B622E
:100E1000030614681C43146013689B01FCD50A6820
:100E2000F0239A430A60072212020B6893430B6077
:100E30000A680223134383430B6008680C220240B4
:100E4000082AFAD1054C2046FFF752FD2046FFF74D
:100E500093FD10BD0020024004100240006CDC0233
:100E6000704780B500F008FD80BD0000074801789C
:100E7000074A1268920707D4002905D101210170A1
:100E8000A3480068034908607047C046730000200B
:100E90001004004890000020F0B583B0EFF31080FC
:100EA00072B60A200190324F3868324900F016FDC0
:100EB0000199414301910198411E01910028FAD105
:100EC0002D4E10243461072000F068FC0546346084
:100ED00040061AD53461612000F072FC0027274ECD
:100EE000612000F05BFCF0557F1C0B2FF8D1224EE7
:100EF00034603461272000F063FC402000F060FC87
:100F000034601F4801210170F34FA8061FD4E80682
:100F10002AD53461272000F053FC204600F050FC15
:100F200034603461E12000F04BFC0120029038680D
:100F3000EA4900F0D3FC0299414302910298411E14
:100F400002910028FAD1346000F0E4F90CE0346139
:100F5000272000F035FC202000F032FC346000F047
:100F6000D9F908480121017062B603B0F0BDC0464E
:100F70000000002040548900180000488100002033
:100F8000740000207500002084B0554801680124D9
:100F900021430160016821400291029921074268C2
:100FA0000A4342604068084003900398FF2000060F
:100FB0004C490A6882430325A80710180860FFF708
:100FC00003FFFFF799FDFFF747FEFFF7B1FEFFF7BD
:100FD00079FDFFF733FDFFF725FEA80542490A68B2
:100FE0008243A00510180860404D686818218843A6
:100FF000686028683E490840401818302860286812
:101000000028FCD428683A4E30402043286000F085
:10101000CFFB00F085F8002000F0DEFB3548C1680A
:101020002143C160016821430160286830400421E8
:101030000191084328602F46083F38680007FAD519
:10104000082000903860AC6B2B4804802B48008847
:10105000FFF727F92A4A2B4BFFF726F9FFF7BAF8D3
:101060000646A0B2FFF720FB01463046FFF740FAE4
:1010700025490860254C264E1FE0009838602C4614
:10108000AD6B1D4805801D480088FFF70AF91C4A12
:101090001C4BFFF709F9FFF79DF80646A8B2254655
:1010A000FFF702FB01463046FFF722FA16490860B7
:1010B000164C174E18481949016000F093FA216840
:1010C0003068411A134A9142F4D3206028680849D5
:1010D000084001990843286038680007FCD5CCE730
:1010E0001810024020ED00E00827014008240140CC
:1010F000E8FFFF7F002C014070000020BAF7FF1FBF
:10110000BA490C022B870A40A00000208C00002066
:101110007C0000201127000000300040AAAA000037
:10112000F0B583B06A49082008606A4D0295F1481D
:101130000068F14900F0D2FB029941430291029804
:10114000411E02910028FAD11024614F3C602020FA
:1011500000F036FB0A2000F033FB103F3C600295A4
:10116000E4480068E44900F0B9FB02994143029168
:101170000298411E02910028FAD1554D2C60212081
:1011800000F01EFB0026304600F01AFB3C602C608D
:10119000222000F015FB0125284600F011FB3C60E1
:1011A0004B480460232000F00BFB284600F008FBAE
:1011B0003C6047480460242000F002FB304600F009
:1011C000FFFA3C6042480460502000F0F9FA0195B3
:1011D0000295C8480068C84900F080FB0299414365
:1011E00002910298411E02910028FAD1732000F06A
:1011F000E7FA3C60F74D2C603D2000F0E1FA072053
:1012000000F0DEFA3C602C603C2000F0D9FA0026A9
:10121000304600F0D5FA3C602C60272000F0D0FA70
:10122000702000F0CDFA3C602C60252000F0C8FA58
:10123000204600F0C5FA3C602C60262000F0C0FA81
:10124000062000F0BDFA3C602C60302000F0B8FAB7
:1012500001980290E0480068E04900F03FFB0299E5
:10126000414302910298411E02910028FAD1DC4DBF
:10127000A85D00F0A5FA761C032EF9D13C60D54894
:1012800004602B2000F09CFA01980290D24800687C
:10129000D24900F023FB0299414302910298411E7A
:1012A00002910028FAD10026A85D00F089FA761C88
:1012B000032EF9D13C60C7480460312000F080FA69
:1012C0000B2000F07DFA3C6000F024F803B0F0BD84
:1012D00028000048881300000000002040548900C6
:1012E000F0B581B014460D460646814810270761C7
:1012F000304600F065FA002C07D0304600F04EFA78
:101300002870641E6D1C002CF7D17948076001B06D
:10131000F0BDC046F0B583B0754E1027376100248C
:10132000204600F03BFAFF2000F038FA054637600F
:101330003761202000F044FA0320284300F040FAEF
:1013400037603761302000F03BFA012001900290B5
:10135000A1480068A14900F0C1FA029941430291F5
:101360000298411E02910028FAD12E4D285D00F00E
:1013700027FA641C032CF9D1376037612A2000F06A
:101380001FFA0198029094480068944900F0A6FA68
:101390000299414302910298411E02910028FAD11C
:1013A0000024285D00F00CFA641C032CF9D137608E
:1013B0000820306096200290874C2068874900F012
:1013C0008DFA0299414302910298411E0291002830
:1013D000FAD13761E22000F0F3F901980290206819
:1013E0007E4900F07BFA0299414302910298411E26
:1013F00002910028FAD137603761E12000F0E0F96E
:10140000019802902068754900F068FA02994143FA
:1014100002910298411E02910028FAD1376003B070
:10142000F0BDC04607000020F0B583B00446EFF3DE
:10143000108072B600F062F8D248102707610025CC
:10144000284600F0ABF9FF2000F0A8F90646CD4889
:1014500007600761202000F0B3F9FC203040801CB9
:1014600000F0AEF9C7480760962000905A4800681F
:101470005A4900F033FA0099414300910098411E07
:1014800000910028FAD10826FA4806610761A020D9
:1014900000F096F9012001904F4800684F4900F094
:1014A0001DFA0199414301910198411E01910028C3
:1014B000FAD1605D00F084F96D1C0B2DF9D1ED4877
:1014C0000760066006600F200290434800684349A9
:1014D00000F004FA0299414302910298411E0291E0
:1014E0000028FAD1E348066162B603B0F0BDC046F9
:1014F000180000480000002040548900F0B583B077
:10150000344E10243460302000F05AF9012001904C
:10151000029031480068314900F0E0F902994143F6
:1015200002910298411E02910028FAD100252C4F09
:10153000785D00F045F96D1C032DF9D13546103D5D
:101540002C6034602A2000F03BF901980290224878
:101550000068224900F0C2F90299414302910298C1
:10156000411E02910028FAD10026B85D00F028F94A
:10157000761C032EF9D12C600820164E30603460A2
:10158000E22000F01DF90198029013480068134909
:1015900000F0A4F90299414302910298411E029180
:1015A0000028FAD12C603460E12000F009F901989C
:1015B000029009480068094900F090F902994143F6
:1015C00002910298411E02910028FAD12C6003B0CA
:1015D000F0BDC046280000480000002040548900AB
:1015E00004000020F0B581B063480078002800D1E5
:1015F000BFE000256149624F2B46284606E0000205
:1016000044405B1C092B20465D4F12D0FF2206464A
:101610009643FC5C240274402F4604E034467E1C52
:10162000072F3746EBD2660024B2002CF6D54E4089
:10163000F4E7B87A7B7A1B021818A3B2984200D05C
:1016400094E03878142811D0FF2800D08EE0894C1F
:10165000022525600A20FFF7DDF925614A490020AF
:1016600008709A490860494908607DE0484D142097
:1016700028704548007800282FD046480068464B1F
:101680001860424C24686C706871200E2871200C20
:10169000E870200AA8705878A8719878E871D8780E
:1016A000287200200646074605E03F025F40761C90
:1016B000092E374D3CD03C469443AB5D1B02634042
:1016C000044604E02B46651C072C2C46EDD25D0039
:1016D0001BB2002BF6D54D40F4E72E4800682E4B88
:1016E00018602A71EA70AA706A7068715878A871D7
:1016F0009878E871D878287200263446374605E095
:101700003F025F40641C092C214D11D038469043A4
:101710002B5D1B024340304604E02B46451C072846
:101720002846EDD25D001BB2002BF6D54D40F4E704
:10173000B8B2000AAB7268722846FFF775FE10490E
:101740004878012812D18878002807D002280AD0CA
:1017500001280BD147480221016002E045480221DF
:101760000161002000E00120594908700020024971
:10177000087001B0F0BDC0467400002021100000C8
:101780008100002018000048730000209000002015
:1017900094000020A0000020780000200D490A6875
:1017A0009207FCD508710868C007FCD0087970471B
:1017B0000248016840220A4302607047003001403D
:1017C00004490A689207FCD508710868C007FCD074
:1017D0004868704708300140F0B583B002AC00267D
:1017E000A670268001A98E700E800B2003252A4644
:1017F000FFF776FD102021462A46FFF771FD1B48B2
:101800001B493246334602E0521C032A0BD002AC7D
:10181000A45C855C654001ACA45C8F5C67402F4391
:10182000F2D0F343F0E7D8B200280AD0FF281BD14A
:10183000104C022525600A20FFF7ECF8256103B063
:10184000F0BD0C4C022525600A20FFF7E3F8256166
:1018500004263220FFF7DEF825600A20FFF7DAF8C9
:101860002561761E3006F4D103B0F0BD121B0008CE
:10187000151B00081800004810B513490868C00778
:1018800021D00120C2430A6010490A68521C0A6034
:101890000F490978002913D00E490A78521C0A70A2
:1018A000D2B2642A0FD300220A700B490A680223BD
:1018B000400414041A400440A0185840486010BD69
:1018C00004480021017010BD102C01407C00002054
:1018D00072000020800000201400004843088B4262
:1018E0001AD3002203098B4279D3030A8B425ED3B9
:1018F000030B8B4242D3030C8B4227D30902FF22F6
:1019000012BA030C8B4202D31212090203D0030B4A
:101910008B4233D31AE0D3E0411A8041401C704718
:1019200003460B4371D443088B42F5D300220309CD
:101930008B4254D3030A8B4239D3030B8B421DD302
:10194000030C8B4202D394466EE0090AC30B8B4210
:1019500001D3CB03C01A5241830B8B4201D38B03BB
:10196000C01A5241430B8B4201D34B03C01A524160
:10197000030B8B4201D30B03C01A5241C30A8B42A3
:1019800001D3CB02C01A5241830A8B4201D38B028E
:10199000C01A5241430A8B4201D34B02C01A524132
:1019A000030A8B4201D30B02C01A5241CDD2C309A4
:1019B0008B4201D3CB01C01A524183098B4201D320
:1019C0008B01C01A524143098B4201D34B01C01A0B
:1019D000524103098B4201D30B01C01A5241C30883
:1019E0008B4201D3CB00C01A524183088B4201D3F2
:1019F0008B00C01A524143088B4201D34B00C01ADE
:101A00005241411A524110007047CA0F00D049425A
:101A1000031000D34042534000229C4603098B42EE
:101A20002DD3030A8B4212D38901FC2212BA030A76
:101A30008B420CD3890192118B4208D389019211F8
:101A40008B4204D3890137D0921100E08909C30980
:101A50008B4201D3CB01C01A524183098B4201D37F
:101A60008B01C01A524143098B4201D34B01C01A6A
:101A7000524103098B4201D30B01C01A5241C308E2
:101A80008B4201D3CB00C01A524183088B4201D351
:101A90008B00C01A5241D9D243088B4201D34B006C
:101AA000C01A5241411A00D20146524110466346C3
:101AB0005B1000D34042704763465B1000D3404246
:101AC00001B50021004201D0C9430846C046C046C6
:101AD00002BD8182838485868788898B8C8D8E8FD9
:101AE000919293959697999A9C9D9FA0A2A3A5A742
:101AF000A8AAACAEB0B2B3B5B7B9BCBEC0C2C5C778
:101B0000C9CCCED1D4D7D9DCDFE2E6E9ECF0F3F7EB
:101B1000FAFEA5A6A7A7A6A5381B0008000000206E
:101B200010000000F4000008481B0008100000200E
:101B3000980600001001000800127A00A7A6A5A5CB
:081B4000A6A700000000000050
:04000005080000B13E
:00000001FF
